:100000000C9421050C9468050C9468050C94680503
:100010000C9468050C9468050C9468050C946805AC
:100020000C9468050C9468050C94472C0C941B2DBB
:100030000C9458230C9468050C9468050C9468057E
:100040000C9468050C9468050C9468050C9468057C
:100050000C9468050C94A3230C9468050C94680513
:100060000C9468050C9468050C9468050C9468055C
:100070000C9468050C9468050C9468050C9468054C
:100080000C9468050C9468050C9468050C9468053C
:100090000C9468050C9468050C9468050C9468052C
:1000A0000C9468050C9468050C9468050763423647
:1000B000B79BD8A71A39685618AEBAAB558C1D3CF9
:1000C000B7CC5763BD6DEDFD753EF6177231BF00BD
:1000D0000000803F05A84CCDB2D44EB93836A902F5
:1000E0000C50B9918688083CA6AAAA2ABE00000036
:1000F000803F696E69745F6261636B6C6967687485
:100100005F70696E28290A00165C1E001F0020001F
:1001100021002200230024002B0014001A000800F4
:10012000150017001C001800390004001600070015
:1001300009000A000B000D00E10064001D001B0017
:100140000600190005001100E000E300E2008B004A
:1001500000002C002C0000002500260027002D00A8
:100160002E0035002A004B000C00120013002F0057
:100170003000310000004E000E000F00330034004C
:100180003200280000000000100036003700380060
:100190008700E500520000008A000000E6000151DF
:1001A000E400500051004F0035003A003B003C0095
:1001B0003D003E003F004000010001000100010041
:1001C00001000100010001000100010002510100D5
:1001D0000100010001000100010001000100010017
:1001E0000100010001000100010001000100010007
:1001F00000000100010000004100420043004400F3
:10020000450001004C00A9000100AC00AE00AB00AD
:100210000100A8000000AA00010001000100010087
:1002200001000100000000000100010001000100C8
:10023000010001004B00000001000000010001511D
:1002400001004A004E004D00C05CCD5CCE5CCF5C2E
:10025000D05CD15CD25CD35C0100010001000100E4
:10026000005C0100010001000100010002510100D9
:100270000100010001000100015101000100010025
:100280000100010001000100010001000100010066
:100290000000C35CC35C0000D45C010001000100ED
:1002A00001000100C25CC95C010001000100010005
:1002B000010001000000CA5C010001000100010012
:1002C0000100010000000000010001000100010028
:1002D00001000100C75C00000100000001000151A5
:1002E0000100C65CC85CC55C44454255473A206481
:1002F000697361626C65642E0A0044454255473A51
:1003000020656E61626C65642E0A000A0025303833
:1003100062003A200025303258000A722F632030E4
:10032000313233343536370A007267626C69676878
:10033000742074696D65722064697361626C652EE6
:100340000A007267626C696768742074696D65720F
:1003500020656E61626C65642E0A007267626C696A
:100360006768742073657420687376205B4E4F4510
:100370004550524F4D5D3A2025752C25752C25751D
:100380000A007267626C696768742073657420681C
:100390007376205B454550524F4D5D3A2025752CB4
:1003A00025752C25750A007267626C696768742070
:1003B0007261696E626F7720736574206873763A34
:1003C0002025642C25642C25642C25750A00726771
:1003D000626C696768742064697361626C65205B34
:1003E000454550524F4D5D3A207267626C696768AF
:1003F000745F636F6E6669672E656E61626C6520FF
:100400003D2025750A007267626C69676874206513
:100410006E61626C65205B454550524F4D5D3A20E0
:100420007267626C696768745F636F6E6669672E76
:10043000656E61626C65203D2025750A00726762F9
:100440006C6967687420746F67676C65205B4545ED
:1004500050524F4D5D3A207267626C696768745FF5
:10046000636F6E6669672E656E61626C65203D2004
:1004700025750A007267626C69676874206D6F6425
:1004800065205B4E4F454550524F4D5D3A202575D6
:100490000A007267626C69676874206D6F6465201A
:1004A0005B454550524F4D5D3A2025750A007267F5
:1004B000626C696768745F696E6974207267626CE8
:1004C000696768745F636F6E6669672E6D6F6465D8
:1004D000203D20302E205772697465206465666166
:1004E000756C742076616C75657320746F2045455A
:1004F00050524F4D2E0A007267626C696768745FD4
:10050000696E6974206565636F6E666967206973DB
:10051000206E6F7420656E61626C65642E0A0072D5
:1005200067626C696768745F696E6974207374616F
:100530007274210A007267626C696768745F696E21
:1005400069742063616C6C65642E0A007267626C6A
:10055000696768745F636F6E6669672E737065653F
:1005600064203D2025640A007267626C69676874C4
:100570005F636F6E6669672E76616C203D2025642F
:100580000A007267626C696768745F636F6E6669A0
:10059000672E736174203D2025640A007267626CC7
:1005A000696768745F636F6E6669672E687565203A
:1005B0003D2025640A007267686C696768745F6330
:1005C0006F6E6669672E6D6F6465203D2025640A35
:1005D000007267626C696768745F636F6E666967F3
:1005E0002E656E61626C65203D2025640A0072678D
:1005F000626C696768745F636F6E66696720454502
:1006000050524F4D3A0A0000047F3F1F6432146479
:100610003214783C1E1E140A05FFAA7F5540626101
:10062000636B6C6967687420737465703A20257514
:100630000A006261636B6C69676874206469736146
:10064000626C650A006261636B6C6967687420653F
:100650006E61626C650A006261636B6C69676874E5
:1006600020746F67676C653A2025750A00626163C4
:100670006B6C696768742064656372656173653A61
:100680002025750A006261636B6C69676874206974
:100690006E6372656173653A2025750A0000010179
:1006A0000101010101010102020202020202020231
:1006B0000303030303030303040404040404040501
:1006C00005050505060606060607070707070808C5
:1006D0000808090909090A0A0A0B0B0B0C0C0C0D76
:1006E0000D0D0E0E0E0F0F0F10101111111212130F
:1006F000131414151516161717181819191A1A1B8A
:100700001B1C1D1D1E1E1F202021222223242425E8
:100710002626272829292A2B2C2D2D2E2F30313221
:1007200032333435363738393A3B3C3D3E3F404131
:1007300042434445464748494A4C4D4E4F50515319
:1007400054555658595A5B5D5E5F616264656668D0
:10075000696B6C6D6F7072737577787A7B7D7E8054
:1007600082838587888A8C8E8F91939596989A9CA0
:100770009EA0A2A3A5A7A9ABADAFB1B3B5B7BABCB4
:10078000BEC0C2C4C6C9CBCDCFD1D4D6D8DBDDDF85
:10079000E2E4E7E9EBEEF0F3F5F8FAFDFF0A0025F5
:1007A00030325820006B6579626F6172645F7265E8
:1007B000706F72743A20000A0025303258006B6561
:1007C00079626F6172645F7365745F6C65643A200F
:1007D0000064656C5F6B65795F6269743A20636180
:1007E0006E27742064656C3A20253032580A006107
:1007F00064645F6B65795F6269743A2063616E2738
:1008000074206164643A20253032580A00290A00B5
:100810002575002F002575005D2800256400200047
:10082000256400200025640020002564007C00254C
:10083000303258006D6F7573656B6579205B62743B
:100840006E7C782079207620685D287265702F6133
:10085000636C293A205B005B735D004B6579626FC6
:100860006172642073746172742E0A005B575D00BC
:100870005B535D005B525D005B445D005B435D006C
:10088000040330000000140343006C007500650091
:1008900062006F00610072006400000014034300F6
:1008A0006C007500650062006F00610072006400FA
:1008B00000000403090409025B00030100A0FA0917
:1008C000040000010301010009211101000122407F
:1008D000000705810308000A090401000103000064
:1008E0000009211101000122BC000705820320003C
:1008F0000A0904020002030000000921110100019D
:1009000022220007058303200001070503032000BE
:10091000011201100100000008EDC1702301000167
:100920000203010631FF0974A1010975150026FFB4
:10093000009520750881020976150026FF00952094
:1009400075089102C005010902A10185020901A1F2
:100950000005091901290515002501950575018175
:1009600002950175038101050109300931158125C1
:100970007F95027508810609381581257F950175D7
:10098000088106050C0A38021581257F9501750836
:100990008106C0C005010980A101850319012AB79C
:1009A00000150126B700950175108100C0050C09DE
:1009B00001A101850419012AA002150126A00295B2
:1009C0000175108100C005010906A1018505050713
:1009D00019E029E715002501950875018102050731
:1009E000190029EF1500250195F075018102050810
:1009F000190129059505750191029501750391016C
:100A0000C005010906A101050719E029E715002520
:100A10000195087501810295017508810105071985
:100A20000029FF150026FF009506750881000508BE
:100A3000190129059505750191029501750391012B
:100A4000C00011241FBECFEFDAE0DEBFCDBF04B679
:100A500003FE27C08091290390912A03A0912B03C4
:100A6000B0912C038730904BA740B04BD1F410923B
:100A7000290310922A0310922B0310922C0314BE08
:100A800084B7877F84BF0FB6F894A89580916000E3
:100A9000886180936000109260000FBEE0E0F8E390
:100AA000099511E0A0E0B1E0E0EEF5E602C00590A6
:100AB0000D92AE3CB107D9F723E0AEECB1E001C036
:100AC0001D92A932B207E1F70E946D290C94B2324F
:100AD0000C940000FF93EF93E091CE01F091CF01D1
:100AE000309709F00995EF91FF910895FC018591E8
:100AF000803011F0EFDFFBCF0895FF27E0E230E216
:100B000047FF0CC0419597FF09C0EDE260957095D5
:100B100080959095611D711D811D911D27FF02C05B
:100B2000219530E350E2AA27660F771F881F991F8F
:100B3000AA1FA41710F0A41B63955A95A9F7AA3011
:100B400008F0A95FA05DAF93F3956115710581056C
:100B5000910541F7ED3211F4EF93F395F21718F484
:100B60003F93F395FBCF8F91B5DFFA95E1F70895A9
:100B7000E991F9918591803021F0853219F0AADF51
:100B8000F9CF089520E0E89455915532C1F35033E0
:100B900011F4689455915A3348F4505390F3220F4E
:100BA000022E220F220F200D250FF4CF0EF42195D7
:100BB00089919991533619F3533729F1533559F1E6
:100BC000BC0188279927E8945C3621F48991999192
:100BD00068945591543639F446EF7EF077FF0DC096
:100BE0008FEF9FEF0AC055374AE039F0583540E1A2
:100BF00021F0523642E009F00895FF93EF937DDF34
:100C0000EF91FF91B7CFFF93EF93FC01819180307B
:100C1000B9F360DFFBCFFF93EF9368DFF1CFDF9392
:100C2000CF93CDB7DEB72596A3DFCF91DF9108959F
:100C30000C941E0982EF90E00E947605569A279A3E
:100C4000549A5E982F985C980895811104C05E9A1A
:100C50002F9A5C9A08955E982F985C980895249A2C
:100C600008950E941D090C942F06249A81FF02C04A
:100C70002C9A08952C98089581E0089581E00895B4
:100C80000C943E0608950C9442061F93CF93DF9375
:100C900000D000D00F92CDB7DEB749835A836B8363
:100CA0002091F60189819A8121111BC06623A9F048
:100CB0000E941320182F682F89819A810E94BE1FDD
:100CC00069817A81812F0F900F900F900F900F9074
:100CD000DF91CF911F910C9411070E94EB1F182FE9
:100CE000EFCF0E94132069817A81EDCFFC01408112
:100CF00051816281738184810C944506CF93DF9387
:100D0000EC010E947606BE01DF91CF910C94430660
:100D10000E947421811102C00E941A220E941A06A8
:100D20000C9431060C94180681E008950C949406F6
:100D3000CF93C82F0E9435068C2FCF910C94960626
:100D400008950E94281B0E94A0062FEF84E39CE0D8
:100D5000215080409040E1F700C000000C94C72370
:100D60000F931F93CF93DF93EC010E9476068C01C3
:100D7000BE010E944006882371F1BE01C8010E9495
:100D80006513882341F1BE01C8010E9441148823E4
:100D900011F1BE01C8010E9482148823E1F0BE0156
:100DA000C8010E94A5158823B1F0BE01C8010E94A8
:100DB000C911882381F08A81882341F101308CE5B3
:100DC000180779F00E3D8CE51807E9F001151C4570
:100DD000E9F40E94A10680E0DF91CF911F910F916D
:100DE000089590918E02892F8E7F90FF816080936D
:100DF0008E0280FF05C08AEF92E00E947605EBCF5D
:100E000088EE92E0FACF0E941A22E5CFCE01DF9160
:100E1000CF911F910F910C943C0690E080E00895D3
:100E20000895E72FF0E09AE0899FE00DF11D11246D
:100E300083E0EE0FFF1F8A95E1F7E60FF11DEE0F3D
:100E4000FF1FE85FFE4F859194910895FC01EE0F1E
:100E5000FF1FE55FFC4F859194910895CF93DF9339
:100E60000E9411070E944308EC01811520E59207BA
:100E700008F042C0811530E4930708F0BDC0883EF9
:100E8000910528F5803E910508F09DC0883A9105AE
:100E900088F4853A910508F08FC08130910509F4F6
:100EA00092C0009709F48FC0049708F08CC0D0E07E
:100EB000C0E089C08F3B910508F489C0805C91092E
:100EC000C03CD105A0F30E942607EC017CC081152F
:100ED000904250F4C11581E0D80708F074C0C03FBB
:100EE000D10528F3D0656FC0C11590E3D90708F08C
:100EF00079C0CE019F70E7CF811525E5920758F59F
:100F0000811534E5930708F0A6C0811542E59407E2
:100F100050F4C11581E5D80708F471C0DC2FCC2747
:100F2000C16FD06A50C0982F969596959E012370F8
:100F30003327C115D34508F07FC0C1E0D0E002C01F
:100F4000CC0FDD1F2A95E2F720E2929FC001112409
:100F5000C82BD92B6FC0C11589E5D807A8F4C115D6
:100F600098E5D90708F07CC0C11526E5D20708F03E
:100F70009ECF8C2F0E94DA08C82FD0E0DC2FCC2720
:100F8000CC27DF71D0621FC0C1153AE5D30708F442
:100F90006CC0CE0190568115904208F088CF8D2FFD
:100FA0008F710E94DA0890E0982F882788279F7118
:100FB0009C012C2BE901E6CFC55AD0E0CD5ADE4F7B
:100FC000C881D0E0D064CE01DF91CF910895C85A96
:100FD000D0E0CC0FDD1FCB5DDE4F0990D881C02D56
:100FE000D464F1CFCE019927D3FF03C0EC01D86CB4
:100FF000EACFEC01D06CE7CFDF70D06AE4CFCE014E
:10100000E4E096958795EA95E1F783702C2F269575
:101010002695237090E2299F90011124382B8C2F64
:101020008370C1E0D0E002C0CC0FDD1F8A95E2F7EB
:10103000C22BD32BDC68C7CFC1E0D0E002C0CC0FFD
:10104000DD1F2A95E2F730E2939FC0011124C82BDF
:10105000D92BDA68B8CFD82FCC27C46FD06AB3CFDA
:10106000DC2FCC27C06FD06AAECF8C2F8F700E9440
:10107000DA0834E0D695C7953A95E1F7CF709C2F02
:10108000EC01D069A0CF82389105B1F1B0F4813381
:10109000910509F475C048F48932910509F469C0D5
:1010A0008A32910509F473C008958533910509F4D6
:1010B00059C08933910501F10895833E9105A9F145
:1010C00038F4803E9105F9F0823E910549F108958A
:1010D000863E9105A9F1873E9105C9F1843E9105AF
:1010E00019F520911B0321FF1FC080911A0384FD75
:1010F00014C087EE90E0089520911A032370A1F0A8
:1011000080EE90E0089520911A0320FD47C03091B1
:101110001B0330FF09C024FF44C090E080E004C0FE
:1011200020911A0322FDF7CF089520911A0322FD82
:101130003BC030911B0330FDE3CF24FFF5CFEDCF53
:1011400020911A0323FFF0CF24FDE7CFD2CF2091C7
:101150001A0323FD2CC030911B0331FFEECF84EE28
:1011600090E0089520911A0325FFDECF89E290E0F8
:10117000089520911A0325FFD7CF85E390E00895C5
:1011800020911A0326FFD0CF8AE290E008952091A3
:101190001A0326FFC9CF81E390E0089589E390E028
:1011A000089583EE90E0089582EE90E0089586EE33
:1011B00090E0089590911A0392FF06C0282F28719D
:1011C0002830F9F4877F846093FF06C0282F2871A8
:1011D0002831F1F4877E846120911B0320FF06C033
:1011E000382F38713830D9F4877F816021FF06C0ED
:1011F000282F28712831D1F4877E816194FD877E64
:101200000895282F24712430F9F68B7F8860DCCF75
:10121000282F2471243101F78B7E8861DDCF382F90
:101220003171313019F78E7F8860E0CF282F21711E
:10123000213121F78E7E8861E1CF08950895E82F4E
:10124000F0E0E253FD4F80810895CF92DF92EF925C
:10125000FF920F931F93CF93DF938AE193E00E9455
:1012600076058EECE82E82E0F82ED0E0C0E095E125
:10127000C92E93E0D92E0DE013E0DF93CF93DF92D8
:10128000CF920E940F0682E193E00E947605F7015B
:1012900081917F010E945C211F928F931F930F9376
:1012A0000E940F068BE093E00E94760521968DB791
:1012B0009EB708960FB6F8949EBF0FBE8DBFCA307A
:1012C000D105D9F6DF91CF911F910F91FF90EF904B
:1012D000DF90CF90089580EA8A95F1F70895AEE502
:1012E000B1E061E070E08D91E82FE295EF70F0E001
:1012F00041A18F709B0101C0220F8A95EAF7922FBE
:101300009095942391A382A1822B82A381E0A83699
:10131000B80749F7A6E5B1E061E070E08D91E82FEC
:10132000E295EF70F0E041A18F709B0101C0220FA8
:101330008A95EAF7922F9095942391A382A1822B0C
:1013400082A381E0AE35B80749F7E4ECF2E0AEECF9
:10135000B2E08EEC92E011921D928E179F07D9F7A2
:101360008AE00E94420A0C9488064F925F927F9214
:101370008F929F92AF92BF92CF92DF92EF92FF92A5
:101380000F931F93CF93DF9304EC12E09EE5A92EF9
:1013900091E0B92E912CCC24C394D12CD8017C900F
:1013A000F80111928F01D5018D915D01C82FC29571
:1013B000CF70D0E099A18F70760101C0EE0C8A95B4
:1013C000EAF7892F8E2989A38AA18E2C80948821FF
:1013D0008AA30E946B0986E5482E81E0582E30E0F2
:1013E00020E0F8013197D2014D912D01842F829593
:1013F0008F7090E0DC0190968C91608190E04F704E
:1014000002C0959587954A95E2F780FD39C08C2DED
:10141000022E01C0880F0A94EAF7862B80832F5F83
:101420003F4F28303105F9F689A1882289A28AA187
:10143000E82AEAA281E09081971101C080E0982A11
:10144000B2E00E3C1B0709F0A9CF292D4AE06EEC53
:1014500072E084EC92E00E94430A0E949206892D79
:10146000DF91CF911F910F91FF90EF90DF90CF9080
:10147000BF90AF909F908F907F905F904F90089516
:1014800080E0CBCF0895FF920F931F93CF93DF930C
:10149000F82E092F162FD72FC42F222349F081E0D1
:1014A0008093D2010E9488239093D1018093D00130
:1014B0008091D2018823A1F08091D0019091D10137
:1014C0000E949423069760F0EF2DF02FA12FBD2FDF
:1014D000CE0FDF2FD11DEC17FD0741F41092D20182
:1014E000DF91CF911F910F91FF90089581918D937E
:1014F000F2CFAF92BF92CF92DF92FF920F931F93E2
:10150000CF93DF93362F472FE82FF0E0E356F94FC4
:1015100071110DC06491762F862FDF91CF911F91AD
:101520000F91FF90DF90CF90BF90AF900895C72F9D
:10153000D0E02491F22E022F10E056E0659FC0010A
:101540001124EFEFF0E0BF010E942F32832F90E0D3
:10155000880F991F35E5369FD001379FB00D1124B4
:101560008A1B9B0B982F990F980F6F01CC1ADD0ADD
:10157000C09ED001C19EB00DD09EB00D11248B2F06
:10158000949FA0011124452F55276F01C41AD50A35
:10159000C09EA001C19E500DD09E500D11245F0130
:1015A000A91AB108AC9E6001AD9ED00CBC9ED00CB7
:1015B0001124CD2CDD24EC19FD09E09FE001E19F11
:1015C000D00DF09FD00D1124ED2F62307105A1F0E8
:1015D00048F46115710569F06130710589F0EB2FF0
:1015E000852F07C06430710571F088F06630710591
:1015F000B1F76E2F722F91CFE22F2B2F8D2FF9CFB6
:10160000E22F252FF6CFEB2F822F2D2FF2CF2B2F6E
:101610008F2DE52FEECF0895CF93DF93762FE9013D
:10162000682F842F0E94790A798368838A83DF91E7
:10163000CF9108958091D802982F9E7F29F48170D0
:1016400082608093D80208958A34E8F381708864B8
:10165000F8CF88E090E00C947232CF92DF92EF9254
:10166000FF926B017C010E941A0BB701A60188E072
:1016700090E0FF90EF90DF90CF900C949032E8EDE7
:10168000F2E083E0808311828FEF82838383148270
:1016900060817181828193810C942D0B80918E02E7
:1016A00080FF76C08EEE95E09F938F930E940F0689
:1016B00080918E020F900F9080FF6AC08091D802B7
:1016C00081701F928F9381ED95E09F938F930E947D
:1016D0000F0680918E020F900F900F900F9080FF59
:1016E00057C08091D80286951F928F9386EB95E024
:1016F0009F938F930E940F0680918E020F900F9000
:101700000F900F9080FF44C08091D9021F928F9359
:101710008CE995E09F938F930E940F0680918E0233
:101720000F900F900F900F9080FF32C08091DA02DF
:101730001F928F9382E895E09F938F930E940F06EC
:1017400080918E020F900F900F900F9080FF20C01D
:101750008091DB021F928F9388E695E09F938F9391
:101760000E940F0680918E020F900F900F900F90A5
:1017700080FF0EC08091DC021F928F938CE495E075
:101780009F938F930E940F060F900F900F900F90D2
:1017900008958091D80280FF02C08695089580E068
:1017A00008958091DC02833018F48F5F8093DC020F
:1017B0006091D8027091D9028091DA029091DB0297
:1017C0000C942D0B8091DC02882319F081508093BA
:1017D000DC026091D8027091D9028091DA02909176
:1017E000DB020C942D0B6091040170E08091D80213
:1017F00080FF0AC08091D70123E0829FC00111249D
:1018000083529D4F0C94D1138091D6019091030186
:1018100023E0829FF0011124E352FD4F891750F716
:101820001182108212828F5F3396F8CF9091D80286
:1018300090FF14C09091D6012091030133E0939F53
:10184000F0011124E352FD4F921710F00C94F30BAA
:101850008183608342839F5F3396F6CF0895CF9351
:10186000DF9300D00F92CDB7DEB79091D80290FFF2
:101870000AC09E012F5F3F4F0E940C0B4B81698174
:101880008A810E94160C0F900F900F90DF91CF91DC
:101890000895CF93DF93EC016C8170E090E080E0DD
:1018A0000E94163020E030E04FE753E40E94392FC9
:1018B0002BED3FE049E450E40E943F310E94AC31FF
:1018C0000E94B32F22EB3AE54CEB5EE30E94CC2E54
:1018D00022E03FE24AEA52E40E943F310E94E52FB3
:1018E000462FE8EDF2E0628181810E942F0C8C810D
:1018F0008F5F8C83DF91CF910895CF93DF93EC01BD
:10190000E8EDF2E0438162818C810E942F0C8C8192
:101910008F5F8C83DF91CF9108950F931F93CF93A7
:10192000DF9300D00F92CDB7DEB78C018091D30149
:1019300081110AC09E012F5F3F4F4FEF6FEF0E9452
:101940000C0B8A818093D301F8016481613069F0C6
:101950008091D30140E0662361F040E0623011F4F1
:101960004091D30180E060E004C06091D30140E089
:1019700080E00E94160CF801848190E0019663E0FB
:1019800070E00E94433284830F900F900F90DF919C
:10199000CF911F910F9108954F925F926F927F9216
:1019A0008F929F92AF92BF92CF92DF92EF92FF926F
:1019B0000F931F93CF93DF9300D00F92CDB7DEB775
:1019C000182FD62E042F722E9091D80290FF46C069
:1019D000E92FE695AE2FB0E0A859BE4F8C918093C9
:1019E000DF019E7F923009F04DC09E012F5F3F4F77
:1019F000812F0E940C0B4B8169818A810E94160CF9
:101A00001093D902D092DA020093DB02772009F416
:101A10009CC06091D8027091D9028091DA029091B5
:101A2000DB020E942D0B80918E0280FF17C08091F7
:101A3000DB021F928F938091DA021F928F93809125
:101A4000D9021F928F9382E893E09F938F930E9415
:101A50000F060FB6F894DEBF0FBECDBF0F900F90EC
:101A60000F90DF91CF911F910F91FF90EF90DF903A
:101A7000CF90BF90AF909F908F907F906F905F902E
:101A80004F900895823019F40091DB02B9CF86306F
:101A900019F41091D902B4CF8930D9F3893109F002
:101AA000AFCFE9518E2F8170682E8E2F8095817077
:101AB000C82EE695F0E0E75EF94FE590F490412CF2
:101AC000FF2497EAA92E93E0B92E609102014616F1
:101AD00018F00E94F30B94CF842C912C8E9CC001A3
:101AE0008F9C900D9E9C900D112470E00E942F32CF
:101AF000512E611028C0560E80918E0280FF11C0B9
:101B0000FF92EF921F92CF921F925F921F924F927D
:101B1000BF92AF920E940F060FB6F894DEBF0FBEC1
:101B2000CDBF2091D601820E911C9401220F331F4C
:101B3000280D391D23523D4F402F6D2D852D0E94BC
:101B40000C0B4394C2CF561AD7CF80918E0280FFE0
:101B500085CF1F920F931F92DF921F921F938BE5E9
:101B600093E073CFE8EDF2E09181282F4381628109
:101B700080E2890F0C94CC0C81E00C94B20DE8ED5E
:101B8000F2E09181282F4381628180EE890F0C94CD
:101B9000CC0C81E00C94BF0DE8EDF2E0628121E114
:101BA000620F08F46FEF282F438181810C94CC0CD5
:101BB00081E00C94CC0DE8EDF2E0628121E1621B42
:101BC00008F460E0282F438181810C94CC0C81E0E3
:101BD0000C94DB0DE8EDF2E0438121E1420F08F4C3
:101BE0004FEF282F628181810C94CC0C81E00C9402
:101BF000EA0DE8EDF2E0438121E1421B08F440E008
:101C0000282F628181810C94CC0C81E00C94F90D19
:101C100020E00C94CC0CEF92FF921F93CF93DF93B4
:101C2000EC0110E0EE24EA94F12C60910201161709
:101C300070F00E94F30B9A818C8190FF27C08F5F18
:101C40008C83DF91CF911F91FF90EF9008952091A9
:101C5000D601422F410F5527551FCA019A01220F65
:101C6000331F280F391F23523D4F70E0C7010E94D8
:101C70004332962F8C814091DB026091DA02199FEA
:101C8000800D11240E940C0B1F5FCFCF8150D8CF45
:101C9000AF92BF92CF92DF92EF92FF920F931F937A
:101CA000CF93DF93FC0182810FEF80FF01E010E012
:101CB00042E1A42E809102011817C8F00E94F30B94
:101CC0008091D501013009F055C0811102C0809189
:101CD000020181508093D501DF91CF911F910F9127
:101CE000FF90EF90DF90CF90BF90AF900895C0919C
:101CF000D601C12ED12CCC0DDD2DD11DCE01880FEA
:101D0000991FC80FD91FC352DD4F198218821A823A
:101D100034E0E32EF12CB12C8091D5018B0D833171
:101D20001CF16A2D0E942132892F082E000C990B7C
:101D3000C816D90691F48091DB028E9DA0018F9D7B
:101D4000500D112455954795559547959E016091E5
:101D5000DA028091D9020E940C0BB00EF1E0EF1A6A
:101D6000F108D1F61F5FA6CF87FFDFCF9091020168
:101D7000890FDBCF90E001966091020170E00E9434
:101D80004332A8CF1F93CF93DF938091D6019091D8
:101D9000030123E0829FF0011124E352FD4F8917D4
:101DA00008F449C0D0E0C0E013E06091020170E0A7
:101DB000CE0102960E9443322091D601820F482F15
:101DC00050E02091D401022E000C330BC217D30730
:101DD000C4F120910101022E000C330B2C173D079A
:101DE00084F1819F9001112423523D4F4091DB02E9
:101DF0006091DA028091D9020E940C0B2196C530C5
:101E0000D10599F60E94F30B809100019091D401C5
:101E1000980F9093D40120910101280F2093010184
:101E2000121614F494301CF0819580930001DF9118
:101E3000CF911F9108951182108212828F5F339685
:101E4000AECFFA01EE0FFF1FE40FF51FE352FD4F77
:101E5000118210821282D2CF0F931F93CF93DF9300
:101E6000EC018C819D810196817099279D838C83E3
:101E700010E005E580910201181730F0DF91CF9155
:101E80001F910F910C94F30B2091D601812F90E0BC
:101E9000AC01420F511D9A01220F331F240F351F31
:101EA00023523D4F4C815D81840F951F817040917D
:101EB000DB026091DA02809F802D11240E940C0BBE
:101EC0001F5FD8CF0F931F93CF93DF93EC0110E0E8
:101ED00000E0909102019017110609F06CF40E9445
:101EE000F30B8C8190E00196817099278C83DF91B0
:101EF000CF911F910F9108952091D601A801420F13
:101F0000511D9A01220F331F240F351F23523D4FBD
:101F10004C816091DA028091D90296959017110652
:101F200051F04CF0442349F04091DB020E940C0B2D
:101F30000F5F1F4FCECF4423B9F340E0F7CF60913E
:101F4000D802669570E04BE050E085E091E00E9499
:101F50005D32892B19F481E08093E0010E9488238F
:101F60009093D9018093D80180918E0280FF08C0A0
:101F700082E493E09F938F930E940F060F900F903F
:101F800008951092E00180918E0280FF08C089E2DE
:101F900093E09F938F930E940F060F900F900895E8
:101FA0009091D80290FF54C0917081113BC0926013
:101FB0009093D8026623E9F16091D8027091D9021A
:101FC0008091DA029091DB020E942D0B80918E02AB
:101FD00080FF0FC08091D80286951F928F9382E96F
:101FE00094E09F938F930E940F060F900F900F9095
:101FF0000F906091D802669570E04BE050E085E06C
:1020000091E00E945D32892B01F10E94C10F81E0B5
:102010008093DB014091DB026091DA028091D9026A
:102020000C94080E853210F09864C2CF880F982B5C
:10203000BFCF80918E0280FFDCCF8091D802869541
:102040001F928F9384E794E0CCCF0E949F0FDFCF45
:102050000895682F9091D802969581E0890F853276
:1020600008F081E00C94D00F81E00C942910682FC7
:102070009091D80296958FEF890F09F484E20C9421
:10208000D00F81E00C94371061E00C94D00F809158
:10209000D80281608093D80280918E0280FF0DC0AB
:1020A0001F9281E08F9386E094E09F938F930E942C
:1020B0000F060F900F900F900F908091D802869589
:1020C0000C94441060E00C94D00F8091DE018111DB
:1020D00060C080918E0280FF14C085E395E09F93DD
:1020E0008F930E940F0680918E020F900F9080FFB9
:1020F00008C08FE195E09F938F930E940F060F9089
:102100000F900E947421811110C080918E0280FF77
:1021100008C087EF94E09F938F930E940F060F9063
:102120000F900E941A220E943F0B0E94290B60937D
:10213000D8027093D9028093DA029093DB026E7F0B
:10214000C1F480918E0280FF08C08EEA94E09F93D4
:102150008F930E940F060F900F900E943F0B0E94DA
:10216000290B6093D8027093D9028093DA0290937E
:10217000DB020E941A0B0E944E0B1092E00180912C
:10218000D80280FF03C086950E94621081E0809390
:10219000DE0108958091D8028E7F8093D8026091ED
:1021A000D8027091D9028091DA029091DB020E94EC
:1021B0002D0B80918E0280FF0FC08091D80281701C
:1021C0001F928F938EEC93E09F938F930E940F0644
:1021D0000F900F900F900F900E94C10F2FEF80E78C
:1021E00092E0215080409040E1F700C000000C9444
:1021F000F30B80918E0280FF10C08091D8028095F1
:1022000081701F928F938DE394E09F938F930E9430
:102210000F060F900F900F900F908091D80280FDC5
:102220000C94CA100C9447100F931F93CF93DF9315
:102230008091E001882309F48DC08091DF01E09155
:10224000D802E695E81BE093DA018230C9F5F0E0A8
:10225000EB5EF94FE491CE2FD0E009E41CE08091D1
:10226000DB01882389F01092DB010E9488239E0104
:1022700020953095820F931F9093D9018093D801B8
:102280001092DD011092DC018091D8019091D9016A
:102290000E9494238C179D0708F45CC0E091D8013C
:1022A000F091D901CE0FDF1FD093D901C093D8018F
:1022B00088ED91E0F801DF91CF911F910F91099482
:1022C000863049F4F0E0EE5EF94FE491CE2FD0E095
:1022D0000DE71CE0C4CF893051F4E695F0E0E15FF2
:1022E000F94FE491CE2FD0E00BE01EE0B8CF8F3055
:1022F00051F4E695F0E0E45FF94FE491CE2FD0E0A1
:1023000008E41EE0ACCF853149F4F0E0E75FF94F17
:10231000E491CE2FD0E002EC1EE0A1CFC4E3D5E0E3
:102320000CE21FE0883109F49ACF833239F4E7E0F8
:10233000F6E0C591D4910DE81CE091CFC4EFD1E057
:1023400002E61FE0843209F48ACFC0EDD7E00BE04B
:102350001BE085CFDF91CF911F910F910895FA0176
:10236000811101C0FB010994CF93DF93C82FD62FB1
:102370000E94C90B8C1740F00E94C90B8D1720F4E6
:10238000DF91CF910C9434108C2FDF91CF910C946E
:1023900044100F931F93CF938C01FB01C281CC2378
:1023A00009F465C00E94A8208272F801E25CFC4535
:1023B000E431F10538F4EC54FD4C0C9457320E9492
:1023C000F910C0E08C2FCF911F910F91089541E437
:1023D00050E164E370E10E94AF11F3CF44E350E1B8
:1023E00061E470E1F8CF49EC5DE06CEB7DE0F3CFA8
:1023F0004CEB5DE069EC7DE0EECF47EE5DE068ED33
:102400007DE0E9CF48ED5DE067EE7DE0E4CF45E0BB
:102410005EE066EF7DE0DFCF46EF5DE065E07EE009
:10242000DACF42EE5BE061ED7BE0D5CF41ED5BE0E2
:1024300062EE7BE0D0CF81E00E944410C2CF65E025
:1024400082E00E94B411BDCF68E086E0FACF6EE072
:1024500089E0F7CF64E18FE0F4CF67E185E1F1CF68
:1024600088E1EACF62E289E1ECCF83E2E5CFC1E027
:10247000A9CF0E947421811102C00E941A220E94D9
:10248000A22180931303803120F0877088608093AD
:10249000130390911303892F817090FF04C0892F3B
:1024A0008695869586950C94250680911303982F22
:1024B000987F19F4885F80931303809113038160E0
:1024C000809313030E94A62180918E0280FF11C089
:1024D000809113038695869586951F928F9385E844
:1024E00096E09F938F930E940F060F900F900F908E
:1024F0000F90809113038695869586950C942506FA
:1025000080911303982F987F79F08850809313035C
:10251000887F91E009F490E08091130390FB80F9AB
:10252000809313030E94A62180918E0280FF11C028
:10253000809113038695869586951F928F938DE6DD
:1025400096E09F938F930E940F060F900F900F902D
:102550000F90809113038695869586950C94250699
:102560008091130380FD1FC081608093130381302D
:1025700019F489E080931303809113030E94A6212C
:1025800080918E0280FF08C085E496E09F938F9330
:102590000E940F060F900F908091130386958695E9
:1025A00086950C94250608958091130380FF14C02E
:1025B0008E7F809313030E94A62180918E0280FF5C
:1025C00008C082E396E09F938F930E940F060F90BE
:1025D0000F9080E00C9425060895CF93C0911303CB
:1025E000C17080918E0280FF0CC01F92CF9387E54F
:1025F00096E09F938F930E940F060F900F900F907D
:102600000F90CC2319F0CF910C94D412CF910C944D
:10261000B01290911303892F8695869586958F5FCA
:102620008F719770823080F5880F880F880F892B03
:102630008093130380911303887F91E009F490E065
:102640008091130390FB80F9809313030E94A621CD
:1026500080918E0280FF11C080911303869586952C
:1026600086951F928F938EE196E09F938F930E94A1
:102670000F060F900F900F900F9080911303869587
:10268000869586950C94250690931303D3CF8111DC
:1026900081E0909113039770282F220F220F220FB1
:1026A000922B90931303987F21E009F420E09091FE
:1026B000130320FB90F9909313030C9425060E94BA
:1026C0004713809113030C94A6219C01FB01828186
:1026D000882349F12D3BFCE53F07C9F040F42B3B33
:1026E000ECE53E0769F02C3B3C4579F008952F3B23
:1026F0009CE5390791F070F0203C3C4589F0089545
:1027000081E00E945F1380E0089580E0FACF0E948C
:102710008012F9CF0E945512F6CF0E94ED12F3CF2E
:102720000E940913F0CF81E008952AB1342F3F7041
:10273000A1E0B0E001C0AA0F3A95EAF72A2B2AB926
:1027400042954F70E42FF0E022A14A2F409542239A
:1027500032A1A32B5FB7F8949B01220F331F260FE2
:10276000371F280F391F2817390741F45FBF87EC3F
:1027700090E00197F1F700C000000895FC0161911D
:10278000CF0178E0ABB9000000C067FF4BB9660F1E
:10279000000000C000C000C04BB900C07A9591F79E
:1027A000E2CF47E90C9495130F931F93CF93DF93D8
:1027B000C62FD42F022FFC0182818823C9F0609399
:1027C000E3010E9488239093E2018093E10180E27B
:1027D0008C0F883008F050C0C77081E001C0880FAE
:1027E000CA95EAF7DF91CF911F910F910C9485184C
:1027F0001091E301161335C08091E1019091E2013F
:102800000E949423883C910560F5C0E2CD0F1D170E
:10281000B9F080E2810F883040F4177081E001C088
:10282000880F1A95EAF70E948C18C83048F481E0A6
:102830009D2F977001C0880F9A95EAF70E9485181E
:10284000802F0E947218C830B8F4D77081E001C0A0
:10285000880FDA95EAF7DF91CF911F910F910C94D1
:102860008C1880E28C0F883038F4C77081E001C08A
:10287000880FCA95EAF7EFCFDF91CF911F910F91A3
:1028800008959C01CB01233F4CE5340731F190F4CE
:10289000283DFCE53F07E9F0293D4CE5340769F1A7
:1028A000273D3C4579F426E241EE61EE0E94D413C7
:1028B00080E00895253FFCE53F07B9F090F0263F02
:1028C0003C45B9F0FC0182818823D1F01092E301EC
:1028D000089527E245EE65EEE9CF26E241EE60EE8F
:1028E000E5CF27E245EE64EEE1CF26E241EE62EE6F
:1028F000DDCF27E245EE66EED9CF28E241E0EBCF0F
:1029000081E00895CF93DF93EC01FB01828188235E
:1029100009F419C1C230FCE5DF07C0F1C6319CE5FE
:10292000D90730F09E012A5F3C452930310570F50A
:102930000E94872190931B0380931A03C031ECE51A
:10294000DE0709F4CFC008F05BC0C8308CE5D807BB
:1029500009F4B6C088F5C430ECE5DE0709F4A8C078
:10296000C0F4C2308CE5D80709F49CC080911A03EA
:102970008260C330DC4509F498C080911A039091BD
:102980001B030E9495210E94281B80E0DF91CF91BC
:10299000089580911A038061C630ECE5DE0709F4E2
:1029A00084C080911A038860C730DC4508F47DC07C
:1029B00080911A03806279C0CC308CE5D80709F485
:1029C00089C070F480911A038C60CA30ECE5DE0790
:1029D00009F46BC008F478C080911A038E7F65C03B
:1029E000CE308CE5D80709F479C080911A038B7F2B
:1029F000CF30DC4508F459C080911A038F7E55C052
:102A0000CB3FECE5DE0709F457C030F5C3318CE568
:102A1000D80709F46FC078F4C131ECE5DE0709F49A
:102A200065C0C231DC4509F0A8CF0E94281B809107
:102A30001A038F773AC0C5318CE5D80709F462C014
:102A400008F476C080911B038160CA3FDC4509F021
:102A500094CF80931B0391CFCF3FFCE5DF0709F4B0
:102A60004DC088F480911B038D7FCD3F9CE5D90735
:102A700081F380911B038E7FCE3FDC4550F3809124
:102A80001B038360E6CFC130FDE5DF0709F459C0C1
:102A900008F444C080E0C230DD4509F06ECF0E94EA
:102AA0001C226BCF80911A03816080931A0365CF3B
:102AB00080911A038460F9CF80911B038260C9CF93
:102AC00080911A038064F1CF0E94281B80911A0321
:102AD0008068EBCF80911A038D7FE7CF80911A0336
:102AE000877FE3CF80911A038F7DDFCF80911A0318
:102AF0008F7BDBCF80911A03837FD7CF80911B031D
:102B00008C7FA7CF80911A0382FB992790F921E04F
:102B1000922790FB82F990FB83F9C7CF80911B032A
:102B2000982F909591708E7F892B90FB81F991CF92
:102B30000E94281B90911A03892F97FB87F98058D0
:102B4000B4CF81E0ACCF81E021CFCF93DF93EB0115
:102B500086319C4511F50E94A8209A81992399F00D
:102B60008A7A91E009F490E09093E401811109C020
:102B700089E20E9483200E94F42080E0DF91CF91BF
:102B8000089585E3F6CF8091E401811104C089E2C4
:102B90000E948A20F0CF85E3FBCF81E0EFCF9093B6
:102BA000EA018093E9010895E091E901F091EA01D9
:102BB000309721F00190F081E02D099480E0089594
:102BC000EF92FF920F931F93CF93DF93EC01E0916D
:102BD000E901F091EA01309709F446C0809124019F
:102BE000882341F080911A0387FF04C0888189837C
:102BF00085E088830280F381E02DCE0109958091E4
:102C00008E0282FF31C080FF04C085EA97E00E94F7
:102C1000760510E000E08FE9E82E87E0F82E80913D
:102C20008E0280FF0EC0FE01E00FF11F80811F9217
:102C30008F93FF92EF920E940F060F900F900F90CC
:102C40000F900F5F1F4F0830110549F780918E02DA
:102C500080FF0AC08DE997E0DF91CF911F910F911E
:102C6000FF90EF900C947605DF91CF911F910F911B
:102C7000FF90EF900895E091E901F091EA0130971B
:102C800039F022E0DC012C930480F581E02D0994D9
:102C900008952091E7013091E8012817390771F074
:102CA0009093E8018093E701E091E901F091EA0156
:102CB000309721F00680F781E02D09940895209146
:102CC000E5013091E6012817390771F09093E6018C
:102CD0008093E501E091E901F091EA01309721F05C
:102CE0000084F185E02D0994089585B7806885BF3B
:102CF00085B7806885BF0895089508950C947C1663
:102D000008950C9480160E9475160E947D160C94EE
:102D10007E1681E008950E947F230E946F090E9421
:102D2000EB230E9439120E9465100C948116CF93F8
:102D3000C82F80918E0282FF1EC080FF1CC08EEBC8
:102D400097E00E94760580918E0280FF14C01F924A
:102D5000CF9389EB97E09F938F930E940F0680910A
:102D60008E020F900F900F900F9080FF04C087EBA2
:102D700097E00E9476058C2FCF910C949806AF9225
:102D8000BF92CF92DF92EF92FF920F931F93CF9358
:102D9000DF93CDB7DEB72A970FB6F894DEBF0FBE2C
:102DA000CDBF0E94B5090E948916882309F461C02D
:102DB0008CEEA82E81E0B82E10E000E0C02E802F0F
:102DC0000E941F09E82EF501D1905F01D81609F481
:102DD0004AC080918E0281FD0E94250980E0FF2477
:102DE000F394DE249D2D9F21C9F18E83CF82EF20A5
:102DF00081E009F480E088870E9488238160782F31
:102E00009A8789874E815F8168858A850E945B17D2
:102E1000F801E451FE4F8081F826F0820E941411DF
:102E20000E94FA250E94D4159091EB01891791F127
:102E30000E94D4158093EB012A960FB6F894DEBF5A
:102E40000FBECDBFDF91CF911F910F91FF90EF90FB
:102E5000DF90CF90BF90AF900C9497168F5FFF0CD0
:102E6000883009F0BFCF0F5F1F4F0A30110509F0FE
:102E7000A5CF8FEF89838A831B820E94882381607C
:102E8000782F9D838C8349815A816B818D810E942B
:102E90005B17C4CF2A960FB6F894DEBF0FBECDBF26
:102EA000DF91CF911F910F91FF90EF90DF90CF9026
:102EB000BF90AF900895CF93DF93CDB7DEB72B9738
:102EC0000FB6F894DEBF0FBECDBF4F83588769871A
:102ED0007A878B871E821D8285E0FE013796DE0190
:102EE000119601900D928A95E1F749815A816B8183
:102EF0007C818D819E812B960FB6F894DEBF0FBE2C
:102F0000CDBFDF91CF910C949E1DFC0180819181FA
:102F10000C945520CF93C82F882309F48BC0823896
:102F2000C1F40E94D41581FD85C089E30E948320ED
:102F30000E94F4202FEF81EE94E0215080409040D9
:102F4000E1F700C0000089E30E948A20CF910C9431
:102F5000F4208338A1F40E94D41580FD6BC083E572
:102F60000E9483200E94F4202FEF81EE94E02150F4
:102F700080409040E1F700C0000083E5E5CF843851
:102F8000A1F40E94D41582FD55C087E40E948320DD
:102F90000E94F4202FEF81EE94E021508040904079
:102FA000E1F700C0000087E4CFCF8CEF8C0F813AAF
:102FB00090F46C2F80911001909111010E943522A4
:102FC000882329F08C2F0E948A200E94F4208C2FC5
:102FD0000E948320BBCF80E28C0F883048F4C770FA
:102FE00081E001C0880FCA95EAF70E94AB20AECFFE
:102FF000EBE5EC0FE33040F4F0E0E554FE4F808168
:1030000090E0CF910C944916E8E5EC0FE73150F4CD
:10301000F0E0EE0FFF1FE357FE4F80819181CF91CB
:103020000C945F16C03F30F08C2F0E948624CF9105
:103030000C946D25CF910895882309F452C08238ED
:1030400071F40E94D41581FF4CC089E30E94832053
:103050000E94F42089E30E948A200C94F420833893
:1030600059F40E94D41580FF3CC083E50E94832060
:103070000E94F42083E5EFCF843859F40E94D415E0
:1030800082FF2FC087E40E9483200E94F42087E4FF
:10309000E2CF9CEF980F913AF0F290E2980F9830BF
:1030A00050F4877091E001C0990F8A95EAF7892F53
:1030B0000E94B120D2CF9BE5980F933020F490E08E
:1030C00080E00C94491698E5980F973120F490E031
:1030D00080E00C945F16803F20F00E94EE240C9458
:1030E0006D250895CF93C82F0E948A17C93349F4DC
:1030F0002FEF87EE93E0215080409040E1F700C031
:1031000000008C2FCF910C941C18882321F00E9472
:10311000AB200C94F4200895882321F00E94B12064
:103120000C94F4200895BF92CF92DF92EF92FF9219
:103130000F931F93CF93DF936C01D62FC72FFC0102
:10314000058102950F70128111110E94C8200E9402
:10315000A120E82E882371F01123B1F080E28D0FB9
:10316000883090F082E00E943F210E94A12091E0EF
:10317000E82EE926BC2EB2949FE0B922EB2DF0E0B8
:10318000E853FD4C0C945732E12CF4CF0C2F0F7008
:10319000C07F11F00295007F1123A9F0002359F0A0
:1031A00080E28D0F883010F0D11109C0802F0E946D
:1031B000AB200E94F4208D2F0E948A1714C0802F0C
:1031C0000E94BB20F6CF8D2F0E941C18002359F0BF
:1031D00080E28D0F883010F0D1112CC0802F0E941A
:1031E000B1200E94F4202B2D2850330B24303105C0
:1031F00020F40E94D4150E949806EE2009F4D5C14F
:103200000E949D2080FDD1C1F60112820E9497206C
:103210000E94221FC6010E94F61A0E949720DF9189
:10322000CF911F910F91FF90EF90DF90CF90BF90C3
:103230000C94431F802F0E94C120D3CFFC2FFF701E
:10324000FF2EC07FC03219F0F29480EFF822DD2308
:1032500069F0D13049F1112391F1002351F1F601C8
:10326000858180FFA8CF8F70858323C0112381F0D3
:10327000011106C00E94DB208F290E948518B3CF60
:103280000130C1F70E94DB208F290E94E120ABCFE3
:10329000011106C00E94EA208F2D0E948C18A3CF36
:1032A000013009F4A0CFF6CF112329F0063008F041
:1032B0009ACF8F2DE2CF053008F095CFEDCF0023C8
:1032C00059F3D93349F4FFEF27EE33E0F1502040B2
:1032D0003040E1F700C000008D2F0E941C1883CF02
:1032E0008C2F86958695837069F0813009F07BCFAD
:1032F0008D2F9C2F9370111102C090E080E00E94EE
:103300005F1671CF8D2F9C2F9370111102C090E02A
:1033100080E00E94491667CF112309F1D53F99F04B
:10332000D63FB9F0D43F49F480911403909115032E
:10333000816090931503809314038D2F0E9486243F
:103340000E946D2550CF80911403909115038260E7
:10335000F0CF80911403909115038460EACFD53F9C
:1033600089F0D63FA9F0D43F49F48091140390919D
:1033700015038E7F90931503809314038D2F0E9465
:10338000EE24DECF80911403909115038D7FF2CF50
:1033900080911403909115038B7FECCF8C2F837059
:1033A00009F041C011111FCF4D2F4295469547702E
:1033B000440F440F0D2F0F7010E030E020E0042E7A
:1033C00004C0000F111F221F331F0A94D2F760E0C0
:1033D00070E0CB01D4FF0FC06FE070E080E090E0C0
:1033E00004C0660F771F881F991F4A95D2F7609512
:1033F000709580959095C695C695C370602B712B7E
:10340000822B932BC23049F058F4C13019F00E943E
:10341000D41EE9CE0E94C21EE6CE0E94E61EE3CE76
:103420000E94C01EE0CE8695112311F08C2F817072
:10343000882309F4D8CE4D2F429546954770440F06
:10344000440F0D2F0F7010E030E020E0042E04C078
:10345000000F111F221F331F0A94D2F760E070E0A3
:10346000CB01D4FF0FC06FE070E080E090E004C0BB
:10347000660F771F881F991F4A95D2F76095709540
:1034800080959095C695C695C370602B712B822B45
:10349000932BC23049F058F4C13019F00E94991FA3
:1034A000A2CE0E94871F9FCE0E94AB1F9CCE0E947F
:1034B000FC1E99CECF70112329F08C2F0E94221F61
:1034C0008D2FDBCE8D2F0E948C188C2F0E94431FD6
:1034D0008ACED23F89F160F4D03FC9F0D13F29F1C3
:1034E000112309F442C0011166CE8C2F8F7121C0C7
:1034F000D33F39F1D43FA1F7112369F1CF718C2F5C
:103500000E94221F63E08C2F0E942A216CCE11237F
:1035100041F0053008F067CE8C2F8F710E94661F36
:1035200062CE063008F05FCEF7CF8C2F8F7111235B
:1035300069F20E94221F57CE8C2F8F711123C9F37D
:10354000C5CF112329F08C2F8F710E940D1F4BCEF8
:103550000E94081F48CE81E00E943F21023008F4FB
:1035600042CE82E00E943F213ECE002359F0D93363
:1035700009F0B2CE8FEF97EEE3E081509040E0404B
:10358000E1F7A8CE8C2F8F71A1CF4C2F4F706D2FEC
:10359000C6010E940D070E94381E25CE4C2F4F7089
:1035A0006D2FC6010E9410071ECEDF91CF911F9193
:1035B0000F91FF90EF90DF90CF90BF9008950F9301
:1035C0001F93CF93DF93EC01688179818A810E94F8
:1035D0005F208C010E94BD1F0E94BF1EB801CE015A
:1035E000DF91CF911F910F910C949318CF93DF939C
:1035F000EC018B819C81892B29F088819981892319
:103600008F3F19F4DF91CF910895CE010E94B0064B
:103610008823C1F3CE010E94DF1ACE01DF91CF9142
:103620000C947E060E94C8200E94D8200E94F4209C
:103630000E9414270E946D2590E080E00E944916A8
:1036400090E080E00C945F160E9491200C94121B75
:103650000E94B8200C94241BE92FE295EF70E250F1
:10366000EE3070F4F0E0E852FD4C0C945732803F9D
:1036700019F020F4883E20F481E00895843FE1F3BE
:1036800080E00895883EC0F3813FD1F7F5CF93FBEA
:10369000882780F908950E9455200C942C1BCF9305
:1036A000DF9300D000D00F92CDB7DEB70F900F9010
:1036B0000F900F900F90DF91CF910895CF93DF93EC
:1036C00000D000D000D0CDB7DEB726960FB6F89464
:1036D000DEBF0FBECDBFDF91CF9108951F93CF9373
:1036E000DF93C091F70116E08091F8018C1304C0BC
:1036F000DF91CF911F910895D0E01C9FF0011D9F95
:10370000F00D1124E750FE4F408151816281738199
:10371000848195810E945E1B2196C770E5CF409100
:10372000290250912A0260912B0270912C02809103
:103730002D0290912E020C945E1B1F93CF93DF936A
:1037400080912E02807FA9F480912B02882389F03A
:103750008091F701C091F8016091290270912A02CD
:10376000A0912C02B0912D02D62FD72316E0C813BA
:1037700004C0DF91CF911F91089590E0109711F050
:10378000DF3F19F401968770F2CF189F9001199FBF
:10379000300D1124F901E750FE4F41814713F2CF5C
:1037A00040814613EFCF42814111ECCF43815481D8
:1037B0004A1B5B0B483C510528F780912E028F7005
:1037C000806180932E02F901E250FE4F80818F705C
:1037D0008061808389E292E00E94F61ADF91CF91A6
:1037E0001F910C946E1BAF92BF92CF92DF92EF921B
:1037F000FF920F931F93CF93DF93CDB7DEB76197FF
:103800000FB6F894DEBF0FBECDBF8C0185E0F80186
:10381000DE011D9601900D928A95E1F7F801408135
:103820005181E28089E2C82E82E0D82E60912C027C
:1038300070912D026115710509F461C19091290201
:1038400020912A02892F82238F3F09F458C1A38037
:10385000B480F0902B02F501E61BF70BFF2009F472
:10386000FCC080912E02382F307FE83CF10508F033
:10387000B2C0311179C0FE2C251323C0941321C08E
:10388000E1101FC08F70806180932E020E948F1BF9
:10389000C6010E94F61A80912E02F80185838F2DB1
:1038A00061960FB6F894DEBF0FBECDBFDF91CF910A
:1038B0001F910F91FF90EF90DF90CF90BF90AF904E
:1038C0000895AB2829F0842F85238F3F09F033C159
:1038D00080E0F82FF170DF2E80FF3CC08091F7016F
:1038E0002091F80136E0821315C04D875E878D85E3
:1038F0009E850E945520292F22952F702230F0F0AE
:10390000243018F59F70F1F0F8019581907FD1F483
:10391000D12C1EC090E0389FF001399FF00D11248A
:10392000E750FE4F6181651306C06081641303C0D8
:1039300062816E110FC001968770D5CF9F7011F014
:10394000882331F3805E883018F3C8010E94F61A8C
:10395000FD2CA5CFEE2009F4A2CF80912E0281602C
:1039600080932E02F12C9BCF251306C0941304C024
:10397000F801EE2009F48DC04D875E878D859E8508
:103980000E944B1B882319F1EE2009F180912E0231
:10399000803270F02091290230912A0238872F83DB
:1039A0001986BB86AA868C87CE0107960E94F61AD6
:1039B00086E0F801A9E2B2E001900D928A95E1F764
:1039C0000E949D1B0E948F1BFF24F39468CFC801A7
:1039D0000E94F61AF9CF311113C07A2DB98AA88A3C
:1039E0006E2D89890E944F1B89E292E00E94F61A8F
:1039F00086E0F60111928A95E9F70E948F1BB2CFFB
:103A000025130FC094130DC0E1100BC0F80185837E
:103A1000C8010E94F61A86E0F60111928A95E9F72C
:103A20003ECF4D875E878D859E850E944B1B8823E8
:103A300071F2EE2061F280912E02803208F4B8CF4C
:103A40002091290230912A023A8329831B82BD8268
:103A5000AC828E83CE010196A9CFE83CF10508F037
:103A600041C0FE2CEE2009F4B2CF25132AC09413D6
:103A700028C080912E0280FD1BC0982F907FC1F03E
:103A8000F8018583903F31F0982F907F905F8F7081
:103A9000892B8583C8010E94F61A86E0F801A9E205
:103AA000B2E001900D928A95E1F70E948F1BF7CE4C
:103AB00086E0F801A9E2B2E001900D928A95E1F763
:103AC000EECE4D875E878D859E850E944B1B8111B2
:103AD0006FCF80912E02816080932E02C8010E94D8
:103AE000F61ADDCE7A2DB98AA88A6E2D89890E94B0
:103AF0004F1B86E0F60111928A95E9F7D6CFEE20AA
:103B000009F465CF4D875E878D859E850E944B1B8E
:103B1000F82E882309F45BCF86E0F801A9E2B2E031
:103B200001900D928A95E1F789E292E00E94851753
:103B30000E949D1BBACF81E08E25CBCE1F93CF93E1
:103B4000DF93CDB7DEB72C970FB6F894DEBF0FBE6C
:103B5000CDBF4F83588769877A878B879C87CE0133
:103B600007960E94F31B882369F08A859B85892B21
:103B700039F04F815885842F85238F3F09F071C01C
:103B800016E05FC086E0FE013796DE0111960190D7
:103B90000D928A95E1F78A859B85892B89F3888523
:103BA0009F8189238F3F61F32091F80130E0C901A3
:103BB0000196877099274091F7014817190671F40B
:103BC0000E94281B1092F8011092F70186E0E9E2AA
:103BD000F2E0DF011D928A95E9F7D2CF96E0929F3D
:103BE000D001939FB00D1124A750BE4FFE01319616
:103BF00001900D929A95E1F78093F8010E946E1B57
:103C0000BFCF819FC001112487509E4F0E94F31B9C
:103C10008823E9F0E091F7011E9FF0011124E7509D
:103C2000FE4F4081518162817381848195810E9420
:103C30005E1B8091F70190E0019687709927809331
:103C4000F7018091F7019091F8018913DACF2C9652
:103C50000FB6F894DEBF0FBECDBFDF91CF911F919D
:103C6000089569857A858B859C850E945E1B88CF27
:103C7000EF92FF920F931F93CF93DF938C01892BC9
:103C800081F0F12CEE24E394E8012196F80184916F
:103C9000843770F4843008F05FC08130B1F0823036
:103CA000A1F1DF91CF911F910F91FF90EF900895B7
:103CB000853709F44CC008F43DC09CE7980F903755
:103CC00080F78F770E941C1849C00E5F1F4FFE01BE
:103CD000849190E2980F983060F48770FE2D01C0B7
:103CE000FF0F8A95EAF78F2F0E94CB200E94F420C5
:103CF00002C00E948A178F2D815030F2EFE9FFE059
:103D00003197F1F700C00000F7CF0E5F1F4FFE01A3
:103D1000849190E2980F983050F48770FE2D01C086
:103D2000FF0F8A95EAF78F2F0E94D120DFCF0E94E4
:103D30001C18E1CF0E5F1F4FFE01C491C150D8F295
:103D40008FE99FE00197F1F700C00000F7CF0E5F09
:103D50001F4FFE01F490CFCF0E948A178E01CBCF68
:103D600008950C94B01E0E94B11E6093650270937A
:103D7000660280936702909368020C94121B089568
:103D80000C94B31E0F931F9300916502109166026D
:103D90002091670230916802602B712B822B932B4C
:103DA0001F910F910C94B31E0F931F930091650206
:103DB000109166022091670230916802602371239E
:103DC000822393231F910F910C94B31E0F931F9383
:103DD000009165021091660220916702309168029D
:103DE00060277127822793271F910F910C94B31E90
:103DF0000C94B01E0C94F81E0E94FA1E609361028F
:103E00007093620280936302909364020C94121B7D
:103E100060E070E0CB010C94FC1E0F931F9341E017
:103E200050E060E070E08A019B0104C0000F111FA8
:103E3000221F331F8A95D2F7C901B8011F910F9134
:103E40000C94FC1E0F931F9341E050E060E070E083
:103E500004C0440F551F661F771F8A95D2F78091C3
:103E6000610290916202A0916302B09164028A01A2
:103E70009B01082B192B2A2B3B2BC901B8011F9141
:103E80000F910C94FC1E0F931F9341E050E060E0F3
:103E900070E004C0440F551F661F771F8A95D2F744
:103EA000CB01BA0160957095809590950091610263
:103EB00010916202209163023091640260237123A9
:103EC000822393231F910F910C94FC1E0F931F9339
:103ED00041E050E060E070E004C0440F551F661FF1
:103EE000771F8A95D2F78091610290916202A0912A
:103EF0006302B09164028A019B01082719272A27CF
:103F00003B27C901B8011F910F910C94FC1E0F9320
:103F10001F9300916102109162022091630230911F
:103F20006402602B712B822B932B1F910F910C94A9
:103F3000FC1E0F931F930091610210916202209169
:103F400063023091640260237123822393231F91C3
:103F50000F910C94FC1E0F931F930091610210911E
:103F600062022091630230916402602771278227E8
:103F700093271F910F910C94FC1E0895990F990F90
:103F8000990F890F982F977041E001C0440F9A95BF
:103F9000EAF786958695869595E0899FF00111242C
:103FA000E15DFD4F30E020E070E05191DF011197BD
:103FB000CB01022E02C0969587950A94E2F7817094
:103FC00081958527842385278C932F5F3F4F25304C
:103FD000310559F70895990F990F990F890F982F67
:103FE000977086958695869525E0829FF00111242D
:103FF000E15DFD4F50E040E080E0219130E0092E8E
:1040000002C0369527950A94E2F721703327042ED3
:1040100001C0220F0A94EAF7822B4F5F5F4F4530B1
:10402000510559F70895BF92CF92DF92EF92FF9218
:104030000F931F93CF93DF938C01C0906102D090B8
:104040006202E0906302F0906402809165029091B8
:104050006602A0916702B0916802C82AD92AEA2AAA
:10406000FB2ACFE1D0E0BC2ED701C6010C2E04C044
:10407000B695A795979587950A94D2F780FD0EC0BF
:10408000219788F7B12C8B2DDF91CF911F910F9144
:10409000FF90EF90DF90CF90BF900895B8018C2FE4
:1040A0000E942E07019761F3EECFCF93DF93EC01CF
:1040B0000E941320BE01DF91CF910C942E071F9315
:1040C000CF93DF93EB019091F601992331F0CB016F
:1040D000DF91CF911F910C945520882379F0CB016B
:1040E0000E941320182F682FCE010E94BE1FBE0110
:1040F000812FDF91CF911F910C942E07CB010E944D
:10410000EB1F182FF4CF682F8091100190911101AF
:104110000C94D722682F80911001909111010C947A
:10412000E22280911001909111010C94ED22809176
:1041300069028595859585950895809169028770B6
:10414000089590916902977081E009F480E00895E4
:1041500080918D02089590918D02892B80938D021C
:104160000895809590918D02982390938D020895E3
:1041700010928D02089590918C02892B80938C026D
:104180000895809590918C02982390938C020895C5
:1041900010928C02089590918B02892B80938B0250
:1041A0000895809590918B02982390938B020895A7
:1041B00010928B02089580916A02089508950C94DC
:1041C000DE2090916A02981721F080936A020C9485
:1041D000DF20089580916A02882329F010926A02F4
:1041E00080E00C94DF200895E0911001F09111011E
:1041F00080918D028083E0911001F0911101808106
:1042000090918C02892B8083E0911001F091110133
:10421000808190918B02892B808390916A029923EF
:1042200081F0E0911001F09111018081892B808350
:1042300080911001909111010E94212281110E9410
:10424000EA2080911001909111010C94E0150895DD
:104250000C94272198E0899F90011124622B609390
:1042600069020E94221F8091690285958595859536
:104270000C9428211092690280E00C9428219091DE
:1042800069028095892380936902282F277071F431
:10429000282F082E000C330B9217130639F0859542
:1042A000859585950E94431F0C943A21089590931B
:1042B000CF018093CE010895829590E09C01220F5A
:1042C000331F220F331F2C7C9595879595958795E5
:1042D0008373282B30E0C901880F991F8A7A35959E
:1042E00027952575822B089590E080E00E94783212
:1042F00021E08C3E9E4F09F020E0822F089582E05D
:1043000090E00C946A3283E090E00C946A32CF9390
:1043100084E090E00E946A32C82F81E290E00E941F
:104320006A32982F8C2FCF910895CF93C92F682F81
:1043300084E090E00E947E326C2F81E290E0CF9189
:104340000C947E3286E090E00C946A32682F86E00E
:1043500090E00C947E32AB01BC018FE090E00C94B5
:104360009032AB01BC0183E190E00C94903260E0AC
:1043700070E0CB010C94B12160E070E0CB010E94B1
:10438000AB210C94B7216CEE7EEF90E080E00E94B0
:104390009C3260E082E090E00E947E3260E083E048
:1043A00090E00E947E321092650210926602109296
:1043B00067021092680260E084E090E00E947E3222
:1043C00060E081E290E00E947E3260E085E090E073
:1043D0000E947E3260E086E090E00E947E326FEFC5
:1043E00087E090E00E947E3240E050E0BA0188E031
:1043F00090E00E94903260E08DE090E00E947E327A
:1044000040E050E0BA0188E190E00E94903260E024
:1044100087E190E00E947E3240E050E0BA018CE1FA
:1044200090E00E94903260E080E290E00E947E3254
:104430000C94BC210C94C321682F8EE090E00C9466
:104440007E32FC01329680912401882321F08091F4
:104450001A039EE187FF96E080E0915008F40895EA
:1044600021912223D1F38F5FF8CF662301F12091B0
:1044700024012223F1F020911A0327FF1AC0462FAE
:104480004695469546954E3190F4677021E030E0B0
:1044900002C0220F331F6A95E2F7840F911DFC01C1
:1044A000828190E02823392381E0232B69F480E086
:1044B0000895FC01329608962191261721F0E817FD
:1044C000F907D1F7F4CF81E008959C01FC01329601
:1044D0009FEF80E04191461751F09F3F19F4411141
:1044E00001C0982F8F5F8630A9F79F3F09F4089588
:1044F000290F311D97FD3A95F90162830895FC015A
:10450000329608962191261303C0DF0111971C9261
:10451000E817F907B9F70895E62FE695E695E695C9
:10452000EE3170F4E80FF92FF11D677021E030E0F3
:1045300001C0220F6A95EAF78281822B8283089557
:1045400080918E0280FF0CC01F926F938FEE97E0D8
:104550009F938F930E940F060F900F900F900F90D4
:104560000895E62FE695E695E695EE3178F4E80FA6
:10457000F92FF11D677021E030E001C0220F6A952C
:10458000EAF72095828128232283089580918E0264
:1045900080FF0CC01F926F9381ED97E09F938F93E4
:1045A0000E940F060F900F900F900F90089520918A
:1045B0002401222329F020911A0327FD0C948C2238
:1045C0000C94652220912401222329F020911A03C2
:1045D00027FD0C94B1220C947F22FC01329680912D
:1045E0002401882351F080911A0387FF06C08EE1D1
:1045F000DF011D928A95E9F7089586E0F9CF0895C5
:1046000008950C9400230E9401238091200384309C
:1046100061F110928F0288E190E020E40FB6F894E7
:10462000A895809360000FBE2093600080E00E94F8
:10463000250680E00E9498060E94012383B7817FAF
:10464000846083BF83B7816083BF7894889583B784
:104650008E7F83BF0FB6F894A89580916000886123
:1046600080936000109260000FBE08950895CF936C
:104670000E94FF220E94B5090E943623C0E08C2FC1
:104680000E941F09811105C0CF5FCA30C1F7CF91C9
:10469000089581E0FCCF08950C944B230E94281BC1
:1046A0000E9439120E94D4150E9498060C944C2343
:1046B0001F921FB61F9211248F939F93AF93BF93A6
:1046C00080918F02811113C080911603909117037E
:1046D000A0911803B09119034196A11DB11D8093BB
:1046E000160390931703A0931803B0931903BF9177
:1046F000AF919F918F911F901FBE1F90189582E0E0
:1047000084BD93E095BD9AEF97BD80936E000895A8
:104710002FB7F8948091160390911703A091180376
:10472000B09119032FBF08959C014FB7F894809161
:10473000160390911703A0911803B09119034FBF6E
:10474000821B930B089578941F921FB61F92112419
:104750008F939F93AF93BF9380911603909117030C
:10476000A0911803B09119030196A11DB11D80936A
:10477000160390931703A0931803B0931903BF91E6
:10478000AF919F918F911F901FBE1F90189581E050
:104790008093E00080E28093D8001092C9008FE1FE
:1047A0009EE40197F1F700C0000087E090EBDC0188
:1047B0008093290390932A03A0932B03B0932C0397
:1047C00088E19CE00FB6F894A895809360000FBE36
:1047D00090936000FFCF0E947421811102C00E945B
:1047E0001A220E947F2180938E020E94872190933B
:1047F0001B0380931A030E948321682F70E090E0CE
:1048000080E00C94C01E8091970280FF12C06091DE
:10481000170185E0689FB00111247595679575951E
:10482000679560387105A8F561157105A1F1862FAE
:10483000089581FF09C06091170185E0689FB0016C
:10484000112475956795EDCF6091170182FD0AC01F
:10485000809196028823D1F0909116016091170102
:10486000891728F085E0689FB0011124DACF869F70
:10487000B001112485E0869F9001879F300D11249F
:10488000692F70E0C9010E944332CBCF65E070E030
:10489000CECF8FE7089581E008958091970280FF41
:1048A0000CC06091130170E07595679575956795DB
:1048B0006115710549F1862F089581FF06C0609149
:1048C000130170E075956795F3CF6091130182FD38
:1048D0000BC0909196029923A1F0609112018091F2
:1048E0001301961738F0682F70E06038710500F3F7
:1048F0008FE70895899FC001112470E00E94433220
:10490000F4CF61E070E0D7CF81E00895803F31F4CB
:104910000E940324819580939B020895813F19F49E
:104920000E940324F8CF823F31F40E940324819532
:1049300080939A020895833F19F40E940324F8CFCC
:10494000893F29F40E944D2480939C0208958A3F58
:1049500021F40E944D248195F7CF8B3F31F40E94C2
:104960004D24819580939D0208958C3F19F40E94F7
:104970004D24F8CF843F31F4809199028160809377
:1049800099020895853F21F4809199028260F7CFC2
:10499000863F21F4809199028460F1CF873F21F412
:1049A000809199028860EBCF883F21F48091990231
:1049B0008061E5CF8D3F31F48091970281608093D3
:1049C000970208958E3F21F4809197028260F7CF7D
:1049D0008F3FB9F7809197028460F1CF90919A024E
:1049E000803F41F480919B0287FD10929B029923A6
:1049F00071F00895813F29F480919B021816ACF361
:104A0000F6CF823F81F497FFF2CF10929A02809105
:104A10009B0290919C02892B90919D02892B49F7D2
:104A2000109296020895833F19F4191674F3DFCF9C
:104A3000893F39F480919C021816CCF610929C02A2
:104A4000D6CF8A3F29F480919C0287FFD0CFF6CF42
:104A50008B3F39F480919D0287FFC9CF10929D0250
:104A6000C6CF8C3F29F480919D021816BCF3BFCFAE
:104A7000843F31F4809199028E7F80939902B7CF61
:104A8000853F21F4809199028D7FF7CF863F21F4F5
:104A9000809199028B7FF1CF873F21F48091990219
:104AA000877FEBCF883F21F4809199028F7EE5CFFD
:104AB0008D3F31F4809197028E7F8093970297CF3C
:104AC0008E3F21F4809197028D7FF7CF8F3F09F0C1
:104AD0008ECF809197028B7FF0CF80918E0283FFE3
:104AE0007EC084E398E00E947605809199021F922F
:104AF0008F938FE298E09F938F930E940F068DE231
:104B000098E00E94760580919A02282F082E000CCA
:104B1000330B3F938F938AE298E09F938F930E9489
:104B20000F0688E298E00E94760580919B02282F6C
:104B3000082E000C330B3F938F9385E298E09F93F0
:104B40008F930E940F0683E298E00E947605809181
:104B50009C02282F082E000C330B3F938F9380E28A
:104B600098E09F938F930E940F068EE198E00E9439
:104B7000760580919D02282F082E000C330B3F9361
:104B80008F938BE198E09F938F930E940F0688E1AB
:104B900098E00E947605809196021F928F9385E19E
:104BA00098E09F938F930E940F0683E198E00E9404
:104BB0007605809197021F928F9380E198E09F93F2
:104BC0008F930E940F068DE098E00E9476058DB7C6
:104BD0009EB74C960FB6F8949EBF0FBE8DBF88E966
:104BE00092E00E943B160E94882390939502809346
:104BF00094020895CF93DF9300D000D000D0CDB7BA
:104C0000DEB786E0E8E9F2E0DE01119601900D9250
:104C10008A95E1F780919A0290919B02892B81F00D
:104C200080919202909193020E949423AC01909102
:104C30009602992331F1809118018417150670F1BD
:104C400080919C0290919D02892B91F0809190021D
:104C5000909191020E949423AC0190919602992325
:104C600009F478C0809114018417150608F480C0F7
:104C700026960FB6F894DEBF0FBECDBFDF91CF9161
:104C80000895209119018AE0289F9001112424178A
:104C90003507B0F69F5F9093960202C09F3FD1F711
:104CA00010929C0210929D0280919A02181624F490
:104CB0000E94032480939A0280919A0287FF05C084
:104CC0000E940324819580939A0280919B0218167A
:104CD00024F40E94032480939B0280919B0287FF0F
:104CE00005C00E940324819580939B0230919A0213
:104CF0003323A1F020919B02222381F045EB340362
:104D0000C00111249923F1F090939A0245EB2403FA
:104D1000900111243323D1F030939B020E946D2522
:104D200080919402909195029093930280939202C5
:104D300086E0FE013196A8E9B2E001900D928A95D5
:104D4000E1F77ECF81E080939A02E0CF81E080930B
:104D50009B02E4CF209115018AE0289F9001112445
:104D60002417350708F084CF9F5F9093960202C006
:104D70009F3FD1F710929A0210929B0280919C0261
:104D8000181624F40E944D2480939C0280919C026A
:104D900087FF05C00E944D24819580939C028091DD
:104DA0009D02181624F40E944D2480939D02809148
:104DB0009D0287FF05C00E944D24819580939D022E
:104DC00030919C023323A1F020919D02222381F097
:104DD00045EB3403C00111249923F1F090939C0218
:104DE00045EB2403900111243323D1F030939D022D
:104DF0000E946D258091940290919502909391026A
:104E00008093900286E0FE013196A8E9B2E001901D
:104E10000D928A95E1F72CCF81E080939C02E0CF40
:104E200081E080939D02E4CF86E0E8E9F2E0DF01D3
:104E30001D928A95E9F710929602109297020895B2
:104E40008091C10208959FB7F8941092A0029FBF6D
:104E500090912003943009F048C02091E9002F7010
:104E60003091EC00932F917030FD90E8922B23E06D
:104E70002093E9002091EB0020FF34C02091EE0048
:104E800027FF30C020919E02222321F02091E800CC
:104E900025FF28C010929E0226E03091E80035FFE1
:104EA00014C08093F1008091E80085FD27C08091B7
:104EB000E80080FFFCCF8091E8008E778093E800C7
:104EC0009F709093E90080E0089530912003343082
:104ED00049F43091EB0035FD05C0215041F481E0EB
:104EE00080939E029F709093E9008FEF0895EFE901
:104EF000FFE03197F1F700C00000CFCF8FB7F894F3
:104F000021E02093A0028FBFDBCFCF93DF9300D0AF
:104F10000F92CDB7DEB790912003943019F58983B5
:104F20007B836A8382E08093E9008FEF9091E800B1
:104F3000815095FD06C095ED9A95F1F7000081111D
:104F4000F5CF8091E80085FF0DC050E040E063E0C0
:104F500070E0CE0101960E943C2A8091E8008E7795
:104F60008093E8000F900F900F90DF91CF910895FC
:104F7000CF93DF93EC010E941F2A823011F084301E
:104F800031F4BE0184E0DF91CF910C948527DF914D
:104F9000CF910895BC0183E00C948527CF93DF93D4
:104FA000EC010E941F2A823011F08430F9F482E073
:104FB0008093E9008FEF9091E800815095FD06C045
:104FC00095ED9A95F1F700008111F5CF8091E800F9
:104FD00085FF0CC050E040E066E070E0CE010E942A
:104FE0003C2A8091E8008E778093E800DF91CF9192
:104FF0000895CF93DF93EC010E941F2A823011F0B5
:105000008430B9F5809124018823B1F180911A038D
:1050100087FF32C060E282E08093E9008FEF9091D9
:10502000E800815095FD06C095ED9A95F1F70000D6
:105030008111F5CF8091E80085FF1BC0809124018C
:1050400070E050E040E0811104C050E040E068E0D2
:1050500070E0CE010E943C2A8091E8008E77809318
:10506000E80080E2FE01A1EAB2E001900D928A958B
:10507000E1F7DF91CF91089568E081E0CDCF8CE733
:1050800098E00E94760580911F03811109C00E945B
:10509000CC2B0E94292C8091E20084608093E20056
:1050A000089588E798E00E94760510921F030895FE
:1050B00084E798E00C94760580E798E00C947605F8
:1050C0008CE698E00E9476050C944E2320919F0276
:1050D0002F5F822F62E30E941532992319F02093EB
:1050E0009F02089510929F028091A0028823F1F000
:1050F000809120038430C1F49091E9009F70209149
:10510000EC00822F817020FD80E8892B93E0909342
:10511000E9009091EB0090FF04C09091EE0097FDA4
:1051200008C08F708093E9001092A0020895109239
:10513000F1009091E80095FDFACF9091E80090FF82
:10514000F0CF9091E8009E779093E800EACF42E09C
:1051500061EC81E00E94482B42E261EC82E00E9417
:10516000482B42E261EC83E00C94482B80912203AF
:10517000833009F45FC030F48130C1F1823009F42A
:105180009BC008958A3009F487C08B3009F46DC044
:10519000893009F04EC080912103813209F049C065
:1051A0008091250390912603029708F042C08091D8
:1051B000E800877F8093E8008091E80082FF35C097
:1051C0009091F3008091F200029729F48091F10010
:1051D0008B7F813021F48091F1008093C102809116
:1051E000E8008B778093E8000C947C2B809121035E
:1051F000813AF9F48091E800877F8093E8008091FC
:10520000250390912603892B61F460E281EA92E004
:1052100070E00E948B2A8091E8008B778093E800F1
:10522000089560E090E080E0F3CF80912003811149
:10523000C3CF089580912103813AD9F78091250346
:1052400090912603892BA9F78091E800877F8093AE
:10525000E8008091E80080FFFCCF809124018093DA
:10526000F1008091E8008E77BDCF809121038132DB
:1052700001F78091250390912603892BD1F6809127
:10528000E800877F8093E8000E947C2B80912303B5
:10529000809324010C94281B80912103813249F6CC
:1052A0008091E800877F8093E8000E947C2B8091AA
:1052B00024038093C202089580912103813A09F06A
:1052C000B8CF8091E800877F8093E8008091E80064
:1052D00080FFFCCF8091C202C2CF84B7877F84BF9A
:1052E0000FB6F894A8958091600088618093600063
:1052F000109260000FBE80E890E00FB6F8948093A3
:105300006100909361000FBE0E9483160E94CC2B17
:105310000E94292C8091E20084608093E20083E265
:1053200097E20E94572178940E94B12E0E948B161A
:105330008AE191E00E94CF158BE598E00E94760506
:1053400080912003853019F00E94BF16F9CF87E5C0
:1053500098E00E9476050E94032380911E03882313
:1053600079F30E943723882359F30E94262AE8CF35
:105370000C94BA29292F33272330310521F168F401
:105380002130310509F449C02230310509F44AC001
:1053900090E080E030E020E029C02132310581F149
:1053A00022323105A9F76330710590F7FB01EE0F4A
:1053B000FF1FEF53FE4F2081318162547E4FFB016E
:1053C000808190E013C099278130910599F0009772
:1053D00041F08230910589F00397D1F6E0E8F8E0DA
:1053E00002C0E2EBF8E0849190E09F01FA01318382
:1053F00020830895ECE9F8E0F6CFE6E8F8E0F3CF93
:105400006330710528F6660F771FFB01E953FE4FE5
:105410002081318189E090E0E9CF82E190E021E1D3
:1054200039E0E4CF8BE590E026EB38E0DFCF8091E8
:105430002003843011F482E0089581E00895809182
:10544000C302811102C00C94172A089580E189BD1E
:1054500082E189BD09B400FEFDCF8091D8008F7D27
:105460008093D8008091E00082608093E00080917A
:10547000E00081FDFCCF0895AF92BF92CF92DF9202
:10548000FF920F931F93CF93DF936C01EB018A017F
:105490000E949B2BF82E811123C00115110539F0B4
:1054A000F80180819181C81BD90BC80ED91EB12C7F
:1054B000A12C2097A9F08091E80085FD22C0809161
:1054C000E8008E778093E80001151105A1F0F8013E
:1054D00080819181A80EB91EB182A08285E0F82E4C
:1054E0008F2DDF91CF911F910F91FF90DF90CF9083
:1054F000BF90AF9008950E949B2B8823D1F2F82E85
:10550000EFCFF60181916F018093F1002197FFEFBA
:10551000AF1ABF0ACECFFC018091270390912803D8
:1055200086179707A0F06115710529F49091E8009E
:105530009E779093E80090E06115710551F4911108
:1055400008C08091E80082FF34C080E00895BC016B
:10555000F2CF809120038823C1F18530C1F1809181
:10556000E80083FD30C08091E80082FDEACF8091A1
:10557000E80080FFE1CF8091F3002091F200382F06
:105580006115710519F02830310558F091E0283087
:10559000310509F090E02091E8002E772093E80093
:1055A000CBCF81918093F100615071092F5F3F4F04
:1055B000E7CF80912003882341F0853041F080912E
:1055C000E80083FFBECF81E0089582E0089583E084
:1055D0000895FC018091270390912803861797076F
:1055E000A0F06115710529F48091E8008E77809311
:1055F000E80090E06115710551F4911108C08091A7
:10560000E80082FF35C080E00895BC01F2CF8091B0
:1056100020038823C9F18530C9F18091E80083FD1A
:1056200031C08091E80082FDEACF8091E80080FFE0
:10563000E1CF8091F3002091F200382F61157105C0
:1056400019F02830310558F091E02830310509F083
:1056500090E08091E8008E778093E800CBCF849132
:105660008093F1003196615071092F5F3F4FE6CF73
:1056700080912003882341F0853041F08091E8003B
:1056800083FFBDCF81E0089582E0089583E008950F
:10569000982F973028F08F708093E90081E008956B
:1056A0009093E900242F762F50E0981731F07091F5
:1056B000EC002091ED005091F00021FD02C09F5FB1
:1056C000E8CF3091EB003E7F3093EB003091ED005E
:1056D0003D7F3093ED003091EB0031603093EB0073
:1056E0007093EC002093ED005093F0002091EE00B9
:1056F00027FDE5CF80E008958091210387FF13C047
:105700008091E80082FF06C08091E8008B7780934B
:10571000E80004C0809120038111F2CF08958091A8
:1057200020038823D9F38091E80080FFF8CF80918F
:10573000E8008E77ECCF2091E4003091E50095E60B
:10574000A9012091EC00822F817020FF06C080917A
:10575000E80080FF06C080E008952091E80022FD67
:105760001AC080912003882389F0853089F08091C8
:10577000EB0085FD0FC02091E4003091E500421759
:105780005307F9F29150E1F684E0089582E008951C
:1057900083E0089581E008950E943A2C0E94422CF3
:1057A000E0EEF0E0808181608083E8EDF0E08081D0
:1057B0008F77808319BCA7EDB0E08C918E7F8C939E
:1057C00080818F7E808310921F0308950F931F9313
:1057D000CF93DF930E943A2C0E94422CC8EDD0E078
:1057E00088818F77888388818068888388818F7D8E
:1057F000888319BC1092200310921C0310921E0380
:1058000010921D0300EE10E0F80180818B7F8083F1
:1058100088818160888342E060E080E00E94482BBC
:10582000E1EEF0E080818E7F8083E2EEF0E0808127
:1058300081608083808188608083F80180818E7F91
:105840008083888180618883DF91CF911F910F9140
:105850000895E8EDF0E080818F7E8083E7EDF0E051
:1058600080818160808384E082BF81E080931F0318
:105870000C94E62BE8EDF0E080818E7F808310921F
:10588000E20008951092DA001092E10008951F924C
:105890000F920FB60F9211242F933F934F935F9364
:1058A0006F937F938F939F93AF93BF93EF93FF93E8
:1058B0008091E10082FF0BC08091E20082FF07C06F
:1058C0008091E1008B7F8093E1000E9466288091A7
:1058D000DA0080FF19C08091D80080FF15C0809148
:1058E000DA008E7F8093DA008091D90080FF96C025
:1058F00080E189BD82E189BD09B400FEFDCF81E070
:10590000809320030E943F288091E10080FF19C00E
:105910008091E20080FF15C08091E2008E7F80932D
:10592000E2008091E20080618093E2008091D800E3
:1059300080628093D80019BC85E0809320030E9488
:105940005C288091E10084FF2BC08091E20084FFFD
:1059500027C080E189BD82E189BD89B5982F91700A
:1059600080FFFBCF8091D8008F7D8093D8008091FD
:10597000E1008F7E8093E1008091E2008F7E809332
:10598000E2008091E20081608093E20080911C033C
:10599000882309F449C084E0809320030E94602892
:1059A0008091E10083FF29C08091E20083FF25C040
:1059B0008091E100877F8093E10082E08093200363
:1059C00010921C038091E1008E7F8093E100809112
:1059D000E2008E7F8093E2008091E20080618093FC
:1059E000E20042E060E080E00E94482B8091F000FD
:1059F00088608093F0000E945828FF91EF91BF913A
:105A0000AF919F918F917F916F915F914F913F9156
:105A10002F910F900FBE0F901F90189519BC1092E8
:105A200020030E94512870CF8091E30087FD93E00E
:105A300090932003B3CF1F920F920FB60F921124B1
:105A40002F933F934F935F936F937F938F939F9386
:105A5000AF93BF93CF93DF93EF93FF93D091E90080
:105A6000DF708091EC00C82FC17080FDC0E81092FB
:105A7000E9008091F000877F8093F00078940E9485
:105A80005F2D1092E9008091F00088608093F00013
:105A9000CD2BCF70C093E900FF91EF91DF91CF91B3
:105AA000BF91AF919F918F917F916F915F914F9136
:105AB0003F912F910F900FBE0F901F9018951F933D
:105AC000CF93DF93CDB7DEB7AA970FB6F894DEBFBA
:105AD0000FBECDBF81E293E02091F100FC01219344
