:100000000C9468050C94AF050C94AF050C9417077D
:100010000C94AF050C94AF050C94AF050C94AF0590
:100020000C94AF050C94AF050C9484290C94582AB9
:100030000C94B4240C94AF050C94AF050C94AF054C
:100040000C94AF050C94AF050C94AF050C94AF0560
:100050000C94AF050C94FF240C94AF050C94AF05E1
:100060000C94AF050C94AF050C94AF050C94AF0540
:100070000C94AF050C94AF050C94AF050C94AF0530
:100080000C94AF050C94AF050C94AF050C94AF0520
:100090000C9402060C94AF050C94AF050C94AF05BC
:1000A0000C94AF050C94AF050C94AF050000000054
:1000B00000003E5B4F5B3E003E6B4F6B3E001C3EC4
:1000C0007C3E1C00183C7E3C18001C577D571C00D1
:1000D0001C5E7F5E1C0000183C180000FFE7C3E7B1
:1000E000FF00001824180000FFE7DBE7FF0030489E
:1000F0003A060E00262979292600407F05050700CB
:10010000407F05253F005A3CE73C5A007F3E1C1CBF
:100110000800081C1C3E7F0014227F2214005F5F31
:10012000005F5F0006097F017F00006689956A0015
:1001300060606060600094A2FFA2940008047E04E6
:10014000080010207E20100008082A1C0800081C47
:100150002A0808001E10101010000C1E0C1E0C00A7
:1001600030383E383000060E3E0E0600000000001B
:10017000000000005F000000000700070000147F7F
:10018000147F1400242A7F2A1200231308646200BB
:10019000364956205000000807030000001C224189
:1001A00000000041221C00002A1C7F1C2A000808B5
:1001B0003E080800008070300000080808080800A9
:1001C0000000606000002010080402003E51494514
:1001D0003E0000427F4000007249494946002141EB
:1001E000494D33001814127F10002745454539004A
:1001F0003C4A494931004121110907003649494922
:100200003600464949291E00000014000000004045
:1002100034000000000814224100141414141400C7
:100220000041221408000201590906003E415D59AF
:100230004E007C1211127C007F49494936003E4134
:10024000414122007F4141413E007F4949494100EF
:100250007F09090901003E41415173007F080808E8
:100260007F0000417F4100002040413F01007F08A6
:10027000142241007F40404040007F021C027F006A
:100280007F0408107F003E4141413E007F0909097B
:1002900006003E4151215E007F091929460026498A
:1002A0004949320003017F0103003F4040403F00C5
:1002B0001F2040201F003F4038403F0063140814B7
:1002C00063000304780403006159494D4300007F33
:1002D00041414100020408102000004141417F00DB
:1002E00004020102040040404040400000030708AF
:1002F00000002054547840007F284444380038449B
:1003000044442800384444287F003854545418008A
:1003100000087E0902001824241C78007F080404C9
:10032000780000447D4000002040403D00007F10E8
:100330002844000000417F4000007C0478047800DD
:100340007C08040478003844444438007C18242491
:100350001800182424187C007C0804040800485461
:100360005454240004043F4424003C4040207C00BA
:100370001C2040201C003C4030403C0044281028F9
:1003800044004C9090907C004464544C440000081D
:1003900036410000000077000000004136080000F0
:1003A0000201020402003C2623263C00000000005B
:1003B0000080808080000000000080E070180C1831
:1003C00030E080000010F8901030783010B8FC3821
:1003D00010000000000000F8FCF800000000000021
:1003E000000000000000001C9C1C00000000F8FC45
:1003F000F80000000000001CFCF8C0000000000035
:100400000080E0F87C1C000000F0FCFCFC1C1C1CC4
:100410001C1C1C1C1C000000000000C0F0F8381C54
:100420001C1C1C1C1C3CF8F0E000E0F0F0F0E0ECC0
:10043000EEF7F37020007C7C7C7E007E7E7E7F7FEA
:100440007F000080C0E07E5B4F5BFEC00000C0000C
:10045000DCD7DEDEDED7DC00C000000000000000DC
:10046000000000000000000000000000000000008C
:10047000000FBCE0818181838382870C183060C0CB
:1004800000001FFE90B9FFBB91983C1811133F115B
:1004900000000000000000FFFFFF0000000000005F
:1004A00000000000000000FFFFFF00000000FFFF51
:1004B000FF0000000000000000030F7FF8E080F064
:1004C000FC3F0F0100000000003F3F3F1C1C1C1CB4
:1004D0001C3C78F8F0E08000000000C3E7FF7E3CA1
:1004E0003878787070F8FFDF87000F1F3F7F7F7FBD
:1004F0007F7F3F1E0C001F1F1F3F003F3F3F7F7F3E
:100500007F00307B7F7830202030787F3B000300F5
:100510000F7F0F0F0F7F0F0003000000000000008F
:10052000000000000000000000000000183C2466ED
:100530006341C18180808080808081C14162386C4C
:100540004CC68181808080808081C14362361C18C6
:1005500000000000000000FFFFFFC0C0C0C0C0C01E
:10056000C0C0C0800000007FFF7F000000007FFF50
:10057000FFC080000000E0E0C0C0C0E0F97F1F07BE
:1005800000000000000000000070F0E0E0C0C0C00B
:10059000C0E0F0F87F3F0F0000000F3F7FF9E0E080
:1005A000C0C0C0C0C0E0F97F3F1F000000000000D5
:1005B000000000000000000000000000000000003B
:1005C000000000000000000000000000000000002B
:1005D000000000000000000000000000000000001B
:1005E00000000000000000000000000029001E00C4
:1005F0001F002000210022002B0014001A00080018
:1006000015001700E00004001600070009000A00AA
:10061000E1001D001B000600190005000000E200BB
:10062000E300095D2C002F0035002700260025007F
:10063000240023002D00130012000C0018001C00E1
:10064000340033000F000E000D000B0028003800AE
:1006500037003600100011000000E7000A5D2A0094
:100660002C00300001000100010001000100010028
:1006700035001E004A0052004D0022003A003B00A7
:10068000500051004F003F00400041004200430035
:1006900044004500000001000100010001000100CC
:1006A000010001000100010001000100010027001C
:1006B000260025002400230000004F0052005100B6
:1006C00050000000310030002F002E002D002E02BF
:1006D0000000010001000100010001000100010013
:1006E00001000100010001003A003B003C003D0018
:1006F0003E003F0035001E021F022002210222029E
:1007000001000100010001000100010000000100E2
:10071000010001000100AE00010001000100010024
:100720000100010045004400430042004100400038
:10073000350227022602250224022302310230025A
:100740002F022E022D020000000001000100010016
:100750000100010000000000000000000000000097
:100760000000000000000000000000000000000089
:100770000000000000000000000000000000000079
:100780000000000000000100010001000100000065
:100790000000000000000000000000000000000059
:1007A0000000000000000000C95CC75CC55CC25CC2
:1007B00000000000CA5CC85CC65CC35C00000000AE
:1007C00000000100010001000100000000047F3F63
:1007D0001F643214643214783C1E1E140A0522234E
:1007E000252628292A2C2D2F3032333536383A3B0E
:1007F0003D3E4042434547494A4C4E505153555760
:10080000595A5C5E6062646668696B6D6F7173757E
:1008100077797B7D7F81838587898A8C8E9092947E
:1008200096989A9C9E9FA1A3A5A7A8AAACAEAFB18B
:10083000B3B4B6B8B9BBBCBEBFC1C2C3C5C6C7C9D5
:10084000CACBCCCDCED0D1D2D2D3D4D5D6D7D7D88F
:10085000D9D9DADADBDBDBDCDCDCDCDCDDDDDDDDE1
:10086000DCDCDCDCDCDBDBDBDADAD9D9D8D7D7D6E9
:10087000D5D4D3D2D2D1D0CECDCCCBCAC9C7C6C5A0
:10088000C3C2C1BFBEBCBBB9B8B6B4B3B1AFAEACE6
:10089000AAA8A7A5A3A19F9E9C9A98969492908E91
:1008A0008C8A89878583817F7D7B79777573716F6A
:1008B0006D6B6968666462605E5C5A595755535146
:1008C000504E4C4A4947454342403E3D3B3A3836FC
:1008D000353332302F2D2C2A292826252322FFAA12
:1008E0007F554000010101010101010101020202E5
:1008F00002020202020203030303030303030404CC
:100900000404040404050505050506060606060795
:100910000707070708080808090909090A0A0A0B4E
:100920000B0B0C0C0C0D0D0D0E0E0E0F0F0F1010EF
:100930001111111212131314141515161617171876
:100940001819191A1A1B1B1C1D1D1E1E1F202021E1
:100950002222232424252626272829292A2B2C2D28
:100960002D2E2F30313232333435363738393A3B49
:100970003C3D3E3F404142434445464748494A4C3E
:100980004D4E4F50515354555658595A5B5D5E5F0A
:10099000616264656668696B6C6D6F7072737577A0
:1009A000787A7B7D7E8082838587888A8C8E8F9102
:1009B000939596989A9C9EA0A2A3A5A7A9ABADAF2C
:1009C000B1B3B5B7BABCBEC0C2C4C6C9CBCDCFD116
:1009D000D4D6D8DBDDDFE2E4E7E9EBEEF0F3F5F8BF
:1009E000FAFDFF0403300000000E034C0069006CA8
:1009F000007900350038000000120346005F0059FE
:100A00000055005500430048004900000004030958
:100A10000409023B00020100A0FA090400000103DE
:100A20000101000921110100012240000705810395
:100A300008000A0904010001030000000921110156
:100A400000012232000705820320000A1201100172
:100A50000000000851FC58000001010203010501DB
:100A60000980A101850319012AB700150126B700E5
:100A7000950175108100C0050C0901A101850419BB
:100A8000012AA002150126A002950175108100C05F
:100A900005010906A101050719E029E7150025014F
:100AA00095087501810295017508810105071900F6
:100AB00029FF150026FF0095067508810005081915
:100AC000012905950575019102950175039101C0F4
:100AD00011241FBECFEFDAE0DEBFCDBF04B603FEA8
:100AE00027C08091A9049091AA04A091AB04B09171
:100AF000AC048730904BA740B04BD1F41092A904BE
:100B00001092AA041092AB041092AC0414BE84B7E5
:100B1000877F84BF0FB6F894A895809160008861A4
:100B200080936000109260000FBEE0E0F8E309954A
:100B300012E0A0E0B1E0EAEDFFE502C005900D9201
:100B4000AA3BB107D9F724E0AAEBB2E001C01D929D
:100B5000A93AB207E1F70E94B5260C94B32F0C9482
:100B6000000083E390E02091BC0027FD02C00197C4
:100B7000D1F708951092B9008CE08093B8000895E1
:100B8000CF93C82F84EA8093BC000E94B105809166
:100B9000B900887F883041F08091B900887F80312A
:100BA00019F081E0CF910895C093BB0084E8809351
:100BB000BC000E94B1058091B900887F883129F07E
:100BC0008091B900887F803461F780E0EBCF84E9C1
:100BD0008093BC0083E390E02091BC0024FD02C020
:100BE0000197D1F708958093BB0084E88093BC00FF
:100BF0000E94B1059091B900987F81E0983209F484
:100C000080E008951F921FB61F9211248F939F9327
:100C1000EF93FF938091B900887F8038C1F038F45A
:100C2000882309F44BC0803679F081E022C0883AED
:100C300011F0883BD1F7E091BB02F0E0E154FC4FAA
:100C400080818093BB0031C01092BA02EECF8091B8
:100C5000BA02811122C08091BB008093BB028091B7
:100C6000BB028031C0F01092BB0280E091E0909313
:100C7000BA029091BC008295880F880F807C892BE6
:100C800085688093BC00FF91EF919F918F911F9099
:100C90001FBE1F90189581E0E9CFE091BB02F0E004
:100CA0008091BB00E154FC4F80838091BB0290E0B7
:100CB00001968F7099278093BB02B7CF1092BC002A
:100CC000B4CF8EE14A9B02C08150E1F74A9BFECF30
:100CD00008955A9880E28A95F1F75A9A0895FC018E
:100CE0003BE03A95F1F720E090E080E031E040E130
:100CF0004A95F1F7880F4A9B02C08160232742E0A2
:100D00004A95F1F7000040E14A95F1F79F5F6913BA
:100D1000EECF90E19A95F1F799B132E03A95F1F77B
:100D2000000040E14A95F1F792FB992790F992274C
:100D30002081920F90830895EF92FF920F931F935B
:100D4000CF93DF930F92CDB7DEB719828C017C0170
:100D5000E60EF11C0E151F0561F481E099819111D9
:100D600080E00F90DF91CF911F910F91FF90EF9056
:100D700008950E94610668E0CE0101960E946F0608
:100D8000F80181938F01E6CF9093BE028093BD025C
:100D90006093BC02529A5A9A08959093BE0280932F
:100DA000BD026093BC0252985A9AEA9AE9E6F0E0D2
:100DB00080818F7C808308956150770B91E001C022
:100DC000990F6A95EAF720E031E0911108C02223DB
:100DD00091F05A9A80E28A95F1F75A980895492F2E
:100DE000482339F05A9A232740E24A95F1F796951D
:100DF000ECCF5A98F9CF5A98EDCFFF920F931F93EB
:100E0000CF93DF93EC018C01060F111DC017D107A2
:100E100031F4DF91CF911F910F91FF900895F990D8
:100E20000E94690668E08F2D0E94DC06EFCF1F92BA
:100E30000F920FB60F9211240F931F932F933F938E
:100E40004F935F936F937F938F939F93AF93BF93D2
:100E5000EF93FF93CF93DF930F92CDB7DEB7198255
:100E60000E94610667E0CE0101960E946F06082F7E
:100E7000069506950695982F92959570202F2570CA
:100E8000920F292F2370969596958770920F89134C
:100E900044C08981811141C08091BC028017E8F172
:100EA00020E12A95F1F75A9A529A82E08A95F1F751
:100EB00000C0A8E00A9FC00111240091BD0210915A
:100EC000BE02080F191F5A98F8016581662321F0A8
:100ED000868197810E94FD060E946906F0E1FA95DD
:100EE000F1F75A9852985A9A20E12A95F1F7D801C9
:100EF00012966C911297662331F113968D919C9105
:100F00000E949C06D801ED91FC91882311F088E0A5
:100F100001C082E080830E9461060F90DF91CF9133
:100F2000FF91EF91BF91AF919F918F917F916F91C1
:100F30005F914F913F912F911F910F910F900FBE95
:100F40000F901F901895ED91FC91E1CF0F931F9397
:100F5000CF93DF932091BC02281719060CF471C0BF
:100F60008C0193E0000F111F9A95E1F7C091BD022B
:100F7000D091BE02C00FD11FF894529A5A9825E022
:100F80002A95F1F70000982F969595708570980F27
:100F9000892F837096959695980F092B0E94690664
:100FA00000C067E0802F0E94DC0680E18A95F1F79F
:100FB00052985A9A4A9B17C087E090E04A9915C008
:100FC0006D81662321F18E819F810E949C06811193
:100FD0001EC0529A5A9AE881F98182E080837894FF
:100FE00082E090E00DC000C0E5CF019771F4529A05
:100FF0005A9AE881F98181E08083789481E090E0D9
:10100000DF91CF911F910F91089500C0D7CF0E941B
:10101000610620E22A95F1F75A98529A80E18A9562
:10102000F1F76A81662321F08B819C810E94FD0685
:101030000E946906E881F9811082789490E080E04E
:10104000DFCF84E090E0DCCFCF93C82F88E70E9409
:10105000C005882311F0C0E00BC080E00E94F305BA
:101060008111F9CF8C2F0E94F305C1E08111F3CFDC
:101070000E94E7058C2FCF910895CF93C62F0E9431
:101080002408882321F08C2FCF910C94240880E031
:10109000CF910895CF93C62F0E942408882349F04A
:1010A00080E00E942408882321F08C2FCF910C949B
:1010B000240880E0CF9108958EEA0C9424088FEAEA
:1010C0000C9424080F931F93CF93DF93EC018C01B2
:1010D0000C5A1F4FD801ED91FC91119760838D91AF
:1010E0009C91119701968D939C938C1B9D0B84353D
:1010F0009105B9F4BE016B5E7F4F4FE350E0CE0126
:101100000E946C2CCE01CF96F8019183808345E13B
:1011100050E060E270E0DF91CF911F910F910C944D
:101120007E2CDF91CF911F910F9108951F93CF9344
:10113000DF93EC01FC01EA5AFF4F81E080836A30C3
:10114000B1F43297808191818C1B9D0B65E170E039
:101150000E942C2C182F153120F0DF91CF911F9178
:10116000089560E2CE010E9462081F5FF4CFCE01B5
:10117000DF91CF911F910C946208EF92FF920F9331
:101180001F93CF93DF937C01EB01FB0101900020C3
:10119000E9F78F0101501109C017D10738F0DF912D
:1011A000CF911F910F91FF90EF9008956991C70122
:1011B0000E949608F1CFCF92DF92EF92FF920F93A9
:1011C0001F93CF93DF93CDB7DEB77C010DB71EB76A
:1011D000DB010D900020E9F7CD01861B970B0196EE
:1011E0002DB73EB7281B390B0FB6F8943EBF0FBE84
:1011F0002DBFADB7BEB711966D017F936F932AE7F0
:1012000031E03F932F939F938F93DF92AF930E9490
:101210008C2CB601C7010E94BD082DB73EB7285FD0
:101220003F4F0FB6F8943EBF0FBE2DBF0FB6F894D8
:101230001EBF0FBE0DBFDF91CF911F910F91FF9089
:10124000EF90DF90CF900895CF93DF93EC0144E5CA
:1012500050E060E270E00E947E2CFE01EC5AFF4FED
:10126000D183C083CA5ADF4F81E08883DF91CF9159
:1012700008957F928F929F92AF92BF92CF92DF920A
:10128000EF92FF920F931F93CF93DF938C010E94F5
:10129000E4249093C0028093BF020E945F0863E041
:1012A00082E20E944A088823C9F16DE781E20E9428
:1012B0004A08882399F188E70E94C00581112EC051
:1012C00080E40E94F305811129C07801480184E57A
:1012D000880E911C96E0792E5701D12CF501C19111
:1012E0005F01C79DE0011124C455DF4F86E0C82E81
:1012F000FE0184910E94F305CA942196C110F8CF93
:10130000D394F5E1DF12EACF85E1E80EF11C8E14EB
:101310009F0411F7F801EA5AFF4F1082DF91CF9135
:101320001F910F91FF90EF90DF90CF90BF90AF9003
:101330009F908F907F900C94E7058FEC93E00C9436
:1013400039091F93CF93DF93C82F0E94BA058EEA05
:101350000E942408811106C0C0E08C2FDF91CF913C
:101360001F91089560E885ED0E943D088823A1F350
:101370006FE188EA0E943D08882371F360E083ED05
:101380000E943D08882341F380E40E9424088823BA
:1013900019F364E18DE80E943D088823E9F260E0DA
:1013A00080E20E943D088823B9F2CC2309F465C08D
:1013B00080EA0E942408882379F280EC0E942408A5
:1013C000882351F262E08AED0E943D08882321F2D1
:1013D0006FE881E80E943D08882309F4BDCF61EFE2
:1013E00089ED0E943D08882309F4B6CF60E48BEDB7
:1013F0000E943D08882309F4AFCF84EA0E942408A4
:10140000882309F4A9CF86EA0E942408882309F4D6
:10141000A3CF8EE20E942408882309F49DCF8FEA8F
:101420000E942408882309F497CF60E081E80E9495
:101430003D08C82F882309F48FCF8FEC93E00E94DA
:10144000240963E082E20E944A08882389F06FE75A
:1014500081E20E944A08882359F088E70E94C0056B
:10146000811106C080E40E94F30514E08823A9F0EE
:101470000E94E7050E949D0970CF81EA0E9424081E
:10148000882309F469CF88EC99CF80E00E94F305A6
:10149000DF5FD038D1F7115011F0D0E0F6CF1092C5
:1014A0002504E6CF0E94E80D80912504811104C037
:1014B00080910001882321F00E949D091092000173
:1014C0008091BF029091C0020E94F02481369A4E12
:1014D00010F00C945C08089581E080930001089559
:1014E000CF93DF93A4E8B1E049E851E0C1E0D0E058
:1014F0008D91E82FE295EF70F0E061A18F709E0171
:1015000001C0220F8A95EAF7922F9095962391A316
:1015100082A1822B82A34A175B0751F7DF91CF91FB
:1015200008950C94900D0C94A70D0E94310C0E940C
:10153000700AAEE7B1E061E070E08D91E82FE295CE
:10154000EF70F0E041A18F709B0101C0220F8A95DE
:10155000EAF7922F9095942391A382A1822B82A3E4
:1015600081E0A438B80749F7209A559A289A5D9ADD
:10157000EBECF2E0A1ECB2E011921D9282E0E53DCD
:10158000F807D1F70E941B0C8093D5020C94B20E81
:101590009F92AF92BF92CF92DF92EF92FF920F9302
:1015A0001F93CF93DF9380910201C5E0D0E08823A1
:1015B00011F0D0E0C0E084E8C82E81E0D82EAE0162
:1015C0004F535D4F7A018A01AA24A394B12C25E0E0
:1015D000922EF60181916F01E82FE295EF70F0E015
:1015E00021A18F70A50102C0440F551F8A95E2F713
:1015F000CA01922F982B91A392A18095892382A34F
:1016000050EA5A95F1F7EEE7F1E020E050E040E0D3
:101610003191A32FA295AF70B0E090968C9190E09D
:101620003F7002C0959587953A95E2F780FD39C0E5
:10163000C501042E01C0880F0A94EAF7282B4F5FDA
:101640005F4F4630510521F7F8018081821719F06C
:101650002083909201010E94700A0F5F1F4FF9E8EA
:10166000CF16F1E0DF0609F0B4CF809101018823A5
:1016700059F08150809301018823A9F08FE99FE000
:101680000197F1F700C0000081E0DF91CF911F9139
:101690000F91FF90EF90DF90CF90BF90AF909F9011
:1016A000089580E0CBCFC553DD4FF70191917F01C5
:1016B00099938F5F8530C9F7E7CFCF93DF93209160
:1016C0000201D0E0C0E0222311F0C5E0D0E00E948A
:1016D0004C0C009731F0029709F4289881E090E0D3
:1016E0000BC0289ADE01A553BD4F25E0E2EEF2E0E3
:1016F00001900D922A95E1F7DF91CF9108950E9414
:10170000C80A80910201E5E0F0E0882311F0F0E0E2
:10171000E0E0E553FD4F90E080E020E0DC01AE51D9
:10172000BD4F4C913191431321E03C93019685309C
:101730009105A1F78091DA02820F8093DA02089571
:10174000CF93DF938091D502882309F440C00E9493
:10175000C80A80910201C5E0D0E0882311F0D0E0F2
:10176000C0E0C553DD4F45E050E0BE018DED92E095
:101770000E945F2C25E0FE01ADEDB2E001900D92DC
:101780002A95E1F70E945D0B892BE9F05D98809125
:10179000D6028F5F8093D602863078F08091020166
:1017A000F0E0E0E0882311F0E5E0F0E0E553FD4FE4
:1017B000108211821282138214820E94BC0E81E078
:1017C000DF91CF9108955D9A1092D602F6CF0E94D4
:1017D0007F0B80910201B0E0A0E0882311F0A5E02A
:1017E000B0E0A553BD4F85E0EDEDF2E001900D9224
:1017F0008A95E1F7E2CFE82FF0E0E553FD4F8081D5
:101800000895089589E19091E30097FD12C02FEFAC
:1018100031EE94E0215030409040E1F700C00000EC
:10182000815089F78091D8008F768093D80080E02E
:10183000089581E008958091D702811107C00E9428
:10184000020C81110AC082E08093D70281E090915E
:10185000D702913009F080E0089581E0F5CF0C9433
:101860001B0C0E942F0C809302010E941B0C8823EA
:1018700021F00E94400C789408950E94460CFBCF02
:1018800063E070E083E091E00C94C40663E070E0F4
:1018900083E091E00C94CD060F931F93CF93DF93D9
:1018A0008C0190911C0180911B01D0E0C0E0981741
:1018B00059F082E090E00E94A607EC01892B21F408
:1018C00080911B0180931C018091D8029091D902D4
:1018D000082B192B90E080E0012B11F081E090E0C3
:1018E0000E94A607892B71F48091DA0280931B0174
:1018F0001092D9021092D802CE01DF91CF911F91A0
:101900000F91089581E090E09093D9028093D802DE
:10191000F3CF80919D0390919E03A0919F03B0917E
:10192000A00384309105A105B105E1F128F50097E8
:10193000A105B10571F16AEA71E082309105A10556
:10194000B10549F1BF93AF939F938F9385EC91E0DD
:101950009F938F931F9288E18F9386E294E09F93E9
:101960008F930E948C2C8DB79EB70A960FB6F89471
:101970009EBF0FBE8DBF13C088309105A105B10574
:1019800029F08E309105A105B105E1F667EB71E014
:1019900002C06EE871E086E294E00E94852C86E247
:1019A00094E008956DE971E0F6CF8DE191E008953E
:1019B000CF93C0E28C33910520F4FC01E951FE4F36
:1019C000C0811F92CF939F938F93FB0180811F92C1
:1019D0008F9381811F928F9386ED91E09F938F93D8
:1019E0001F9288E18F938EEF92E09F938F930E94D6
:1019F0008C2C8DB79EB70E960FB6F8949EBF0FBE77
:101A00008DBF8091E7029091E802449761F41092B3
:101A1000E8021092E702E9EEF2E080E2819392E0C0
:101A2000ED3FF907D9F78091E7029091E802FC01B8
:101A3000E751FD4FC08301969093E8028093E7023F
:101A4000CF9108958EEF92E0089589EE92E0089587
:101A50000F931F93CF93DF93EC018B010E946C0ACD
:101A6000882351F0B801CE010E940C0E8170DF91E5
:101A7000CF911F910F91089580E0F8CF08958F9234
:101A80009F92AF92BF92CF92DF92EF92FF920F930D
:101A90001F93C12CD12C7601C3949701860104C0F9
:101AA000000F111F221F331F6A95D2F746015701FD
:101AB00004C0880C991CAA1CBB1C8A95D2F7D501BE
:101AC000C401802B912BA22BB32B00919D0310916D
:101AD0009E0320919F033091A003082319232A23FA
:101AE0003B2380179107A207B30769F4842F1F9146
:101AF0000F91FF90EF90DF90CF90BF90AF909F90AD
:101B00008F900C943A21842F1F910F91FF90EF90AA
:101B1000DF90CF90BF90AF909F908F900C945B21FF
:101B200080914004869590E090933F0480933E041A
:101B30000E941B0C91E089270C94A109811106C019
:101B400089EA611101C08AEA0C94671B08950C941C
:101B5000520ACF93DF93EC018091D5028823A1F044
:101B60000E94890CBC01CE010E94DB080E94220D5C
:101B7000BC01CE010E94DB080E94250DBC01CE01F4
:101B8000DF91CF910C94DB080E94D50CBC01CE01F3
:101B9000DF91CF910C94BD080F931F93CF93DF93E8
:101BA000EC018B0144E550E00E945F2C892B59F039
:101BB00084E5F801DE0101900D928A95E1F7CA5A99
:101BC000DF4F81E08883DF91CF911F910F910895BE
:101BD000CF93DF93CDB7DEB7C755D1090FB6F894D1
:101BE000DEBF0FBECDBFCE0101960E942409CE01FB
:101BF00001960E94A90DBE016F5F7F4F8FEC93E0AD
:101C00000E94CC0DC95ADF4F0FB6F894DEBF0FBE4D
:101C1000CDBFDF91CF9108950F931F93CF93DF93A3
:101C20008C01EB018A81882319F0C8010E94D80C2D
:101C300009308DE5180709F150F408301D45A9F069
:101C4000C1E08C2FDF91CF911F910F9108950A3041
:101C50008DE51807F1F00B301D4591F7CA8183E03F
:101C6000CC2311F10E943A2106C0CA81CC2349F34A
:101C700080E00E949F0EC0E0E4CFCA8181E0CC23C7
:101C800059F00E943A2143E062E081E00E943F0D5A
:101C9000F2CFCA8182E0F3CF0E945B2143E062E091
:101CA00081E00E943F0DCDCF0E945B21CACF81E031
:101CB000089508950C94590E1F93CF93DF9300D08D
:101CC00000D00F92CDB7DEB749835A836B83209142
:101CD0003C0389819A8121111BC06623A9F00E94CF
:101CE0002D22182F682F89819A810E94D62169811F
:101CF0007A81812F0F900F900F900F900F90DF91AE
:101D0000CF911F910C941D0F0E940422182FEFCF2A
:101D10000E942D2269817A81EDCFFC0140815181A1
:101D20006281738184810C945C0ECF93DF93EC010C
:101D30000E948D0EBE01DF91CF910C945A0ECF936D
:101D4000DF93C1E0D0E002C0CC0FDD1F8A95E2F73F
:101D50008C2F0E947723BE0190E080E0DF91CF912D
:101D60000C94D8200E946423811102C00E94062492
:101D70000E947A170C94910A0E948A170C94930A75
:101D800081E008950C94C00ECF93C82F0E943E0DA1
:101D90008C2FCF910C94C20E08950E94CA1D0E94F0
:101DA000CC0E2FEF84E39CE0215080409040E1F77F
:101DB00000C000000C9423250F931F93CF93DF9353
:101DC000EC010E948D0E8C01BE010E94280D88231B
:101DD00059F1BE01C8010E943A18882329F1BE01B9
:101DE000C8010E947B188823F9F0BE01C8010E9437
:101DF0009E198823C9F0BE01C8010E94C916882314
:101E000099F08A81882339F001158CE5180751F083
:101E10000E3D1C4579F0CE01DF91CF911F910F91BE
:101E20000C94570E0E94CD0E80E0DF91CF911F9150
:101E30000F9108950E940624F7CF972F70E026E0B7
:101E4000929F600D711D1124FB019CE3899FE00DA1
:101E5000F11D1124EE0FFF1FE451FA4F859194916B
:101E60000895CF93DF930E941D0F0E941D10EC0177
:101E7000811522E59207E8F5811531E5930708F011
:101E8000ACC0883E910510F5803E910570F5883A0A
:101E9000910570F4853A910508F078C0813091057C
:101EA00021F1009711F1049700F5D0E0C0E01DC0CA
:101EB0008F3B9105D0F7C85AD0E0CC0FDD1FCD5D28
:101EC000DD4F0990D881C02DD4640FC0811540E545
:101ED000940708F066C0C11580E4D80708F05EC01A
:101EE000CE019A9581159F4100F7CE01DF91CF91E8
:101EF0000895811536E5930718F5811545E5940792
:101F000008F083C0C11584E5D80708F079C09C2F7C
:101F1000969596959E0123703327C115D34508F4F5
:101F200061C0C1E0D0E002C0CC0FDD1F2A95E2F70E
:101F300030E2939FC0011124C82BD92BDA68D5CF8A
:101F4000C1158AE5D80778F4C11599E5D90708F0D5
:101F500066C0C11528E5D20708F4A7CFDC2FCC272F
:101F6000C06FD06AC2CFCE0190568115904208F062
:101F70009CCF8D2F8F710E94B41090E0982F8827EE
:101F800088279F719C012C2BE90147C0C55AD0E0DE
:101F9000CF5ADD4FC881D0E0D064A7CFDF70D06AC0
:101FA000A4CFE4E096958795EA95E1F783702C2F0E
:101FB00026952695237040E2249F90011124382B0A
:101FC0008C2F8370C1E0D0E002C0CC0FDD1F8A955A
:101FD000E2F7C22BD32BDC6888CFD82FCC27C16F78
:101FE000D06A83CFC1E0D0E002C0CC0FDD1F2A95BC
:101FF000E2F720E2929FC0011124C82BD92BEBCF2E
:10200000DC2FCC27C46FD06A70CF0E94B410C82FC9
:10201000D0E0DC2FCC27CC27DF71D06266CF8C2FAD
:102020008F700E94B41034E0D695C7953A95E1F7C9
:10203000CF709C2FEC01D06958CF82389105B1F157
:10204000B0F48133910509F475C048F489329105E3
:1020500009F469C08A32910509F473C00895853383
:10206000910509F459C08933910501F10895833E22
:102070009105A9F138F4803E9105F9F0823E910571
:1020800049F10895863E9105A9F1873E9105C9F170
:10209000843E910519F520919B0421FF1FC080917A
:1020A0009A0484FD14C087EE90E0089520919A046C
:1020B0002370A1F080EE90E0089520919A0420FD15
:1020C00047C030919B0430FF09C024FF44C090E01A
:1020D00080E004C020919A0422FDF7CF089520915A
:1020E0009A0422FD3BC030919B0430FDE3CF24FFD6
:1020F000F5CFEDCF20919A0423FFF0CF24FDE7CF59
:10210000D2CF20919A0423FD2CC030919B0431FF43
:10211000EECF84EE90E0089520919A0425FFDECF63
:1021200089E290E0089520919A0425FFD7CF85E3B6
:1021300090E0089520919A0426FFD0CF8AE290E0A3
:10214000089520919A0426FFC9CF81E390E0089575
:1021500089E390E0089583EE90E0089582EE90E0A8
:10216000089586EE90E0089590919A0492FF06C03B
:10217000282F28712830F9F4877F846093FF06C0E8
:10218000282F28712831F1F4877E846120919B04E7
:1021900020FF06C0382F38713830D9F4877F81602E
:1021A00021FF06C0282F28712831D1F4877E816154
:1021B00094FD877E0895282F24712430F9F68B7FB3
:1021C0008860DCCF282F2471243101F78B7E886151
:1021D000DDCF382F3171313019F78E7F8860E0CF35
:1021E000282F2171213121F78E7E8861E1CFAF92B6
:1021F000BF92CF92DF92FF920F931F93CF93DF9303
:10220000362F472FE82FF0E0ED51F74F71110DC039
:102210006491762F862FDF91CF911F910F91FF90C0
:10222000DF90CF90BF90AF900895C72FD0E024915A
:10223000F22E022F10E056E0659FC0011124EFEF4F
:10224000F0E0BF010E94182C832F90E0880F991FA7
:1022500035E5369FD001379FB00D11248A1B9B0BAB
:10226000982F990F980F6F01CC1ADD0AC09ED001EC
:10227000C19EB00DD09EB00D11248B2F949FA00154
:102280001124452F55276F01C41AD50AC09EA001FD
:10229000C19E500DD09E500D11245F01A91AB108A6
:1022A000AC9E6001AD9ED00CBC9ED00C1124CD2CF8
:1022B000DD24EC19FD09E09FE001E19FD00DF09FC6
:1022C000D00D1124ED2F62307105A1F048F4611595
:1022D000710569F06130710589F0EB2F852F07C01A
:1022E0006430710571F088F066307105B1F76E2FBA
:1022F000722F91CFE22F2B2F8D2FF9CFE22F252F89
:10230000F6CFEB2F822F2D2FF2CF2B2F8F2DE52FF6
:10231000EECF0895CF93DF93762FE901682F842FB6
:102320000E94F710798368838A83DF91CF910895A3
:10233000493708F048E70C948A1180914004982F9F
:102340009E7F61F481708260809340048091430499
:10235000893718F088E78093430408958A34B0F3EE
:1023600081708864F1CF88E090E00C943C2FCF928C
:10237000DF92EF92FF926B017C010E949D11B701E9
:10238000A60188E090E0FF90EF90DF90CF900C9452
:102390005A2FE0E4F4E083E0808311828FEF8283A0
:1023A00088E78383148260817181828193810C9498
:1023B000B7118091400480FF02C08695089580E0A7
:1023C000089580914404833018F48F5F809344040F
:1023D00060914004709141048091420490914304C3
:1023E0000C94B71180914404882319F08150809394
:1023F00044046091400470914104809142049091A2
:1024000043040C94B7116091610170E08091400425
:1024100080FF0AC080911A0323E0829FC00111242B
:102420008B5B9B4F0C947517809119039091600101
:1024300023E0829FF0011124EB5BFB4F891750F7DB
:102440001182108212828F5F3396F8CF90914004F0
:1024500090FF14C0909119032091600133E0939F85
:10246000F0011124EB5BFB4F921710F00C94031258
:102470008183608342839F5F3396F6CF0895CF9325
:10248000DF9300D00F92CDB7DEB79091400490FF5C
:102490000AC09E012F5F3F4F0E9498114B816981B6
:1024A0008A810E9426120F900F900F90DF91CF919A
:1024B0000895CF93DF93EC01EC81F0E0E252F84F06
:1024C0004491E0E4F4E0628181810E943F128C81BA
:1024D0008F5F8C83DF91CF910895CF93DF93EC01D1
:1024E000E0E4F4E0438162818C810E943F128C81A0
:1024F0008F5F8C83DF91CF9108950F931F93CF93BC
:10250000DF9300D00F92CDB7DEB78C018091160318
:1025100081110AC09E012F5F3F4F48E76FEF0E9475
:1025200098118A8180931603F8016481613069F003
:102530008091160340E0662361F040E0623011F4C0
:102540004091160380E060E004C06091160340E013
:1025500080E00E942612F801848190E0019663E0F9
:1025600070E00E942C2C84830F900F900F90DF91CD
:10257000CF911F910F910895AF92BF92CF92DF92AA
:10258000EF92FF920F931F93CF93DF9300D00F92A0
:10259000CDB7DEB7182FF62E042FE22E909140040F
:1025A00090FF29C0E92FE695AE2FB0E0AC5ABD4FA1
:1025B0008C91809322039E7F923059F59E012F5F6C
:1025C0003F4F812F0E9498114B8169818A810E941F
:1025D000261210934104F092420400934304EE202B
:1025E00051F06091400470914104809142049091B7
:1025F00043040E94B7110F900F900F90DF91CF917D
:102600001F910F91FF90EF90DF90CF90BF90AF9010
:102610000895823019F400914304DBCF863019F419
:1026200010914104D6CF8930D9F3893191F6E9511F
:102630008E2F8170D82EE695F0E0E252F74FA590EC
:10264000B490C12CBB2460915F01C61618F00E94A3
:102650000312BFCF2C2D30E0A29EC001A39E900D8F
:10266000B29E900D112470E00E94182C812FD11081
:1026700013C0860F40911903420F532F511D9A0129
:10268000220F331F240F351F2B5B3B4F402F6F2D25
:102690000E949811C394D7CF861BECCFE0E4F4E0FE
:1026A0009181282F438162818AE0890F0C94BC12AA
:1026B00081E00C944E13E0E4F4E09181282F4381F3
:1026C000628186EF890F0C94BC1281E00C945B133D
:1026D000E0E4F4E0628121E1620F08F46FEF282F5B
:1026E000438181810C94BC1281E00C946813E0E476
:1026F000F4E0628121E1621B08F460E0282F43814D
:1027000081810C94BC1281E00C947713E0E4F4E036
:10271000438121E1420F08F44FEF282F628181812C
:102720000C94BC1281E00C948613E0E4F4E0438145
:1027300021E1421B08F440E0282F628181810C9442
:10274000BC1281E00C94951320E00C94BC12EF9223
:10275000FF921F93CF93DF93EC0110E0EE24EA94F5
:10276000F12C60915F01161770F00E9403129A819C
:102770008C8190FF27C08F5F8C83DF91CF911F9159
:10278000FF90EF90089520911903422F410F552794
:10279000551FCA019A01220F331F280F391F2B5BC7
:1027A0003B4F70E0C7010E942C2C962F8C814091EA
:1027B000430460914204199F800D11240E949811D6
:1027C0001F5FCFCF8150D8CFAF92BF92CF92DF9211
:1027D000EF92FF920F931F93CF93DF93FC018281BF
:1027E0000FEF80FF01E010E04BE1A42E80915F012C
:1027F0001817C8F00E94031280911803013009F0E5
:1028000055C0811102C080915F01815080931803EF
:10281000DF91CF911F910F91FF90EF90DF90CF90BC
:10282000BF90AF900895C0911903C12ED12CCC0D4B
:10283000DD2DD11DCE01880F991FC80FD91FCB5B8D
:10284000DB4F198218821A8234E0E32EF12CB12C6E
:10285000809118038B0D8C311CF16A2D0E940A2C7B
:10286000892F082E000C990BC816D90691F4809177
:1028700043048E9DA0018F9D500D112455954795C1
:10288000559547959E0160914204809141040E94B4
:102890009811B00EF1E0EF1AF108D1F61F5FA6CF44
:1028A00087FFDFCF90915F01890FDBCF90E001962A
:1028B00060915F0170E00E942C2CA8CF0F931F93B2
:1028C000CF93DF93809119039091600123E0829F61
:1028D000F0011124EB5BFB4F891740F1C0E0D3E01E
:1028E00060915F01C61740F10E94031220915D01C3
:1028F00080911703820F8093170390915E01920FCE
:1029000090935E01191654F4082E000C990B409117
:102910005F014150550B841795071CF021952093BA
:102920005D01DF91CF911F910F9108951182108267
:1029300012828F5F3396D0CF0C2F10E070E0C80169
:102940000E942C2C20911903820F482F50E02091D7
:102950001703022E000C330B02171307BCF0209153
:102960005E01022E000C330B201731077CF08D9F87
:10297000900111242B5B3B4F409143046091420432
:10298000809141040E949811CF5FAACFFA01EE0F07
:10299000FF1FE40FF51FEB5BFB4F118210821282C9
:1029A000F3CF0F931F93CF93DF938C01FC018481AE
:1029B000958101968170992795838483C0E0D5E540
:1029C00080915F01C81730F0DF91CF911F910F9177
:1029D0000C94031220911903422F4C0F5527551FB9
:1029E000CA019A01220F331F280F391F2B5B3B4F5F
:1029F0008C2F8695F80144815581840F952F911D68
:102A0000817040914304609142048D9F802D112478
:102A10000E949811CF5FD4CF0F931F93CF93DF9372
:102A2000EC0110E000E090915F019017110609F0B1
:102A30006CF40E9403128C8190E0019681709927BA
:102A40008C83DF91CF911F910F91089520911903ED
:102A5000A801420F511D9A01220F331F240F351F69
:102A60002B5B3B4F4C8160914204809141049695D1
:102A70009017110651F04CF0442349F04091430463
:102A80000E9498110F5F1F4FCECF4423B9F340E04F
:102A9000F7CFE0E4F4E080818E7F808360817181F4
:102AA000828193810E94B711109223032FEF80E758
:102AB00092E0215080409040E1F700C000000C946B
:102AC000031260914004669570E04BE050E082E6AE
:102AD00091E00E94522C892B19F481E0809323030A
:102AE0000E94E42490931C0380931B03089590910B
:102AF000400490FF35C09170811128C0926090937E
:102B00004004662351F0609140047091410480912B
:102B10004204909143040E94B7116091400466956D
:102B200070E04BE050E082E691E00E94522C892B4D
:102B3000A1F01092230381E080931E03409143048F
:102B400060914204809141040C94A413853210F0EA
:102B50009864D5CF880F982BD2CF0E946115EBCF08
:102B60000895682F90914004969581E0890F8532F1
:102B700008F081E00C94771581E00C94B115682F72
:102B80009091400496958FEF890F09F484E20C949C
:102B9000771581E00C94BF1561E00C947715E0E4A3
:102BA000F4E080818160808386950C94CC158091BF
:102BB000400480FD0C9449150C94CF1560E00C94F2
:102BC00077158091210381112EC00E946423811109
:102BD00004C00E9406240E94C9110E94B311609390
:102BE00040047093410480934204909343046E7FA9
:102BF00061F40E94C9110E94B31160934004709364
:102C0000410480934204909343040E949D111092CA
:102C100023038091400480FF03C086950E94DE1547
:102C200081E08093210308950F931F93CF93DF9347
:102C300080912303882309F48DC080912203E091C1
:102C40004004E695E81BE0931D038230C9F5F0E0EF
:102C5000E652F84FE491CE2FD0E009E512E18091E1
:102C60001E03882389F010921E030E94E4249E0113
:102C700020953095820F931F90931C0380931B0324
:102C80001092200310921F0380911B0390911C034C
:102C90000E94F0248C179D0708F45CC0E0911B0390
:102CA000F0911C03CE0FDF1FD0931C03C0931B03B6
:102CB0008BE193E0F801DF91CF911F910F9109947F
:102CC000863049F4F0E0E952F84FE491CE2FD0E09D
:102CD0000DE612E1C4CF893051F4E695F0E0EC52F4
:102CE000F84FE491CE2FD0E007EA13E1B8CF8F3050
:102CF00051F4E695F0E0EF52F84FE491CE2FD0E09A
:102D000004EE13E1ACCF853149F4F0E0E253F84F23
:102D1000E491CE2FD0E00EE514E1A1CFC8EED3E0D0
:102D200001ED14E1883109F49ACF833239F4ECECE7
:102D3000F7E0C591D4910DE712E191CFC4EFD1E056
:102D40000CE015E1843209F48ACFC0EDD7E009E840
:102D500011E185CFDF91CF911F910F910895FA0175
:102D6000811101C0FB010994CF93DF93C82FD62FA7
:102D70000E94D9118C1740F00E94D9118D1720F4B0
:102D8000DF91CF910C94BC158C2FDF91CF910C94D7
:102D9000CC150F931F93CF938C01FB01C281CC23E1
:102DA00009F465C00E94C2228272F801E25CFC450F
:102DB000E431F10538F4EB54F04D0C94402C0E94B2
:102DC000D715C0E08C2FCF911F910F91089549EC3A
:102DD00055E16CEB75E10E94AF16F3CF4CEB55E17A
:102DE00069EC75E1F8CF45E653E168E573E1F3CFAF
:102DF00048E553E165E673E1EECF43E853E164E76C
:102E000073E1E9CF44E753E163E873E1E4CF41EADA
:102E100053E162E973E1DFCF42E953E161EA73E133
:102E2000DACF42EF51E161EE71E1D5CF41EE51E1F0
:102E300062EF71E1D0CF81E00E94CC15C2CF65E096
:102E400082E00E94B416BDCF68E086E0FACF6EE063
:102E500089E0F7CF64E18FE0F4CF67E185E1F1CF5E
:102E600088E1EACF62E289E1ECCF83E2E5CFC1E01D
:102E7000A9CF2AB1342F3F70A1E0B0E001C0AA0F62
:102E80003A95EAF72A2B2AB942954F70E42FF0E0E1
:102E900022A14A2F4095422332A1A32B5FB7F89479
:102EA0009B01220F331F260F371F280F391F2817AA
:102EB000390741F45FBF87EC90E00197F1F700C05C
:102EC00000000895FC016191CF0178E0ABB90000EA
:102ED00000C067FF4BB9660F000000C000C000C013
:102EE0004BB900C07A9591F7E2CF43E90C943917BA
:102EF0000C949E0D84988C9A85988D9A8FB18295AA
:102F000081707D9905C090E0892B809326030895F8
:102F100092E0FACFE0912603EE0FEE0FE093260346
:102F20004FB144FB882780F94FB145FB222720F998
:102F300045FF02C022E030E0822BE82BE09326031D
:102F4000EF70F0E0E758FD4F808190912503890FE5
:102F50008093250384304CF0809124038F5F80930D
:102F6000240360E080E00E947817809125038D3F64
:102F70004CF48091240381508093240361E080E02D
:102F80000E94781780912503837887FF03C08150C2
:102F90008C6F8F5F8093250308950F931F93CF93BA
:102FA000DF93C62FD42F022FFC0182818823C9F022
:102FB000609329030E94E4249093280380932703BD
:102FC00080E28C0F883008F050C0C77081E001C0EB
:102FD000880FCA95EAF7DF91CF911F910F910C945A
:102FE0007A1B10912903161335C080912703909105
:102FF00028030E94F0248436910560F5C0E2CD0FCD
:103000001D17B9F080E2810F883040F4177081E01D
:1030100001C0880F1A95EAF70E94811BC83048F456
:1030200081E09D2F977001C0880F9A95EAF70E9462
:103030007A1B802F0E94671BC830B8F4D77081E0DC
:1030400001C0880FDA95EAF7DF91CF911F910F91B8
:103050000C94811B80E28C0F883038F4C77081E0BB
:1030600001C0880FCA95EAF7EFCFDF91CF911F918A
:103070000F9108959C01CB01233F4CE5340731F1BA
:1030800090F4283DFCE53F07E9F0293D4CE5340785
:1030900069F1273D3C4579F426E241EE61EE0E945C
:1030A000CD1780E00895253FFCE53F07B9F090F08B
:1030B000263F3C45B9F0FC0182818823D1F0109273
:1030C0002903089527E245EE65EEE9CF26E241EEB9
:1030D00060EEE5CF27E245EE64EEE1CF26E241EE79
:1030E00062EEDDCF27E245EE66EED9CF28E241E081
:1030F000EBCF81E00895CF93DF93EC01FB01828158
:10310000882309F419C1C230FCE5DF07C0F1C631DC
:103110009CE5D90730F09E012A5F3C4529303105F6
:1031200070F50E947C2390939B0480939A04C03195
:10313000ECE5DE0709F4CFC008F05BC0C8308CE5D1
:10314000D80709F4B6C088F5C430ECE5DE0709F409
:10315000A8C0C0F4C2308CE5D80709F49CC08091A7
:103160009A048260C330DC4509F498C080919A04C7
:1031700090919B040E948A230E94CA1D80E0DF91E7
:10318000CF91089580919A048061C630ECE5DE0706
:1031900009F484C080919A048860C730DC4508F443
:1031A0007DC080919A04806279C0CC308CE5D807CC
:1031B00009F489C070F480919A048C60CA30ECE5FF
:1031C000DE0709F46BC008F478C080919A048E7F02
:1031D00065C0CE308CE5D80709F479C080919A0497
:1031E0008B7FCF30DC4508F459C080919A048F7EE4
:1031F00055C0CB3FECE5DE0709F457C030F5C331CD
:103200008CE5D80709F46FC078F4C131ECE5DE072E
:1032100009F465C0C231DC4509F0A8CF0E94CA1D7F
:1032200080919A048F773AC0C5318CE5D80709F4AC
:1032300062C008F476C080919B048160CA3FDC457F
:1032400009F094CF80939B0491CFCF3FFCE5DF073B
:1032500009F44DC088F480919B048D7FCD3F9CE59F
:10326000D90781F380919B048E7FCE3FDC4550F3DC
:1032700080919B048360E6CFC130FDE5DF0709F450
:1032800059C008F444C080E0C230DD4509F06ECF7B
:103290000E9408246BCF80919A04816080939A04E5
:1032A00065CF80919A048460F9CF80919B048260FD
:1032B000C9CF80919A048064F1CF0E94CA1D809189
:1032C0009A048068EBCF80919A048D7FE7CF80913C
:1032D0009A04877FE3CF80919A048F7DDFCF80911E
:1032E0009A048F7BDBCF80919A04837FD7CF809124
:1032F0009B048C7FA7CF80919A0482FB992790F939
:1033000021E0922790FB82F990FB83F9C7CF80914F
:103310009B04982F909591708E7F892B90FB81F95B
:1033200091CF0E94CA1D90919A04892F97FB87F92B
:103330008058B4CF81E0ACCF81E021CFCF93DF9331
:10334000EB0186319C4511F50E94C2229A81992396
:1033500099F08A7A91E009F490E090932A03811120
:1033600009C089E20E949D220E94012380E0DF9132
:10337000CF91089585E3F6CF80912A03811104C08F
:1033800089E20E94A422F0CF85E3FBCF81E0EFCF5A
:103390009093300380932F030895E0912F03F091D1
:1033A0003003309721F00190F081E02D099480E006
:1033B0000895E0912F03F0913003309721F00280BF
:1033C000F381E02D0994089520912D0330912E036F
:1033D0002817390771F090932E0380932D03E09105
:1033E0002F03F0913003309721F00680F781E02D14
:1033F0000994089520912B0330912C032817390745
:1034000071F090932C0380932B03E0912F03F091A4
:103410003003309721F00084F185E02D0994089560
:1034200085B7806885BF85B7806885BF0895089592
:1034300008950C94171A08950C941B1A0E94101AE0
:103440000E94181A0C94191A81E008950E94DB2436
:103450000E94950A0E9447250E94E1150C941C1AAF
:10346000AF92BF92CF92DF92EF92FF920F931F9392
:10347000CF93DF93CDB7DEB72A970FB6F894DEBFB0
:103480000FBECDBF0E94A00B0E94241A882309F40E
:103490005FC082E3A82E83E0B82E10E000E0C02ECB
:1034A000802F0E94FB0BE82EF501D1905F01D8160A
:1034B00009F448C08091B20381FD0E94010C80E0B4
:1034C000FF24F394DE249D2D9F21B9F18E83CF82BA
:1034D000EF2081E009F480E088870E94E424816085
:1034E000782F9A8789874E815F8168858A850E94B7
:1034F000CA1AF801EE5CFC4F8081F826F0820E9427
:1035000014160E94CD1990913103891791F10E94F0
:10351000CD19809331032A960FB6F894DEBF0FBE03
:10352000CDBFDF91CF911F910F91FF90EF90DF9072
:10353000CF90BF90AF900C94C40E8F5FFF0C86307D
:1035400009F0C1CF0F5F1F4F0A30110509F0A7CF57
:103550008FEF89838A831B820E94E4248160782F05
:103560009D838C8349815A816B818D810E94CA1A07
:10357000C6CF2A960FB6F894DEBF0FBECDBFDF913F
:10358000CF911F910F91FF90EF90DF90CF90BF9060
:10359000AF900895CF93DF93CDB7DEB72B970FB6DB
:1035A000F894DEBF0FBECDBF4F83588769877A87F7
:1035B0008B871E821D8285E0FE013796DE01119603
:1035C00001900D928A95E1F749815A816B817C8146
:1035D0008D819E812B960FB6F894DEBF0FBECDBFB6
:1035E000DF91CF910C942E20FC01808191810C946D
:1035F0006F22CF93C82F882309F43FC08CEF8C0F24
:10360000813AA0F46C2F80916D0190916E010E941F
:103610001F24882329F08C2F0E94A4220E940123BA
:103620008C2F0E949D22CF910C94012380E28C0F5D
:10363000883048F4C77081E001C0880FCA95EAF766
:103640000E94C522F0CFEBE5EC0FE33040F4F0E050
:10365000E954FD4F808190E0CF910C94E419C85A51
:10366000C73158F4EC2FF0E0EE0FFF1FE757FD4F86
:1036700080819181CF910C94FA19CF91089588237C
:1036800029F19CEF980F913A20F40E94A4220C9407
:10369000012390E2980F983050F4877091E001C0B8
:1036A000990F8A95EAF7892F0E94CB22F0CF9BE5EC
:1036B000980F933020F490E080E00C94E419885A3D
:1036C000873120F490E080E00C94FA190895CF93AC
:1036D000C82F0E94F91AC93349F42FEF87EE93E0FF
:1036E000215080409040E1F700C000008C2FCF9126
:1036F0000C943F1B882321F00E94C5220C940123C7
:103700000895882321F00E94CB220C940123089570
:10371000BF92CF92DF92EF92FF920F931F93CF93BE
:10372000DF936C01D62FC72FFC01058102950F7026
:10373000128111110E94E2220E94BB22E82E8823EE
:1037400071F01123C9F080E28D0F8830A8F082E07B
:103750000E944C230E94BB2291E0E82EE926BC2E59
:10376000B2949FE0B922FBE0FB15A8F1EB2DF0E04D
:10377000E753F04D0C94402CE12CF1CF0C2F0F703F
:10378000C07F11F00295007F1123A9F0002359F0AA
:1037900080E28D0F883010F0D11109C0802F0E9477
:1037A000C5220E9401238D2F0E94F91A14C0802F78
:1037B0000E94D522F6CF8D2F0E943F1B002359F087
:1037C00080E28D0F883010F0D1112CC0802F0E9424
:1037D000CB220E9401232B2D2850330B243031059E
:1037E00020F40E94CD190E94C40EEE2009F483C17A
:1037F0000E94B72280FD7FC1F60112820E94B12291
:103800000E943A21C6010E949C1D0E94B122DF91B4
:10381000CF911F910F91FF90EF90DF90CF90BF90CD
:103820000C945B21802F0E94DB22D3CF2C2F2F7092
:10383000F22EC07FC03219F0F29480EFF822DD231F
:1038400069F0D13049F1112391F1002351F1F601D2
:10385000858180FFA8CF8F70858323C0112381F0DD
:10386000011106C00E94E8228F290E947A1BB3CF63
:103870000130C1F70E94E8228F290E94EE22ABCFCF
:10388000011106C00E94F7228F2D0E94811BA3CF39
:10389000013009F4A0CFF6CF112329F0063008F04B
:1038A0009ACF8F2DE2CF053008F095CFEDCF0023D2
:1038B00059F3D93349F4FFEF27EE33E0F1502040BC
:1038C0003040E1F700C000008D2F0E943F1B83CFE6
:1038D0008C2F86958695837069F0813009F07BCFB7
:1038E0008D2F9C2F9370111102C090E080E00E94F8
:1038F000FA1971CF8D2F9C2F9370111102C090E097
:1039000080E00E94E41967CF8C2F837009F041C0DA
:10391000111161CF4D2F429546954770440F440FCA
:103920000D2F0F7010E030E020E0042E04C0000FD7
:10393000111F221F331F0A94D2F760E070E0CB0101
:10394000D4FF0FC06FE070E080E090E004C0660F2D
:10395000771F881F991F4A95D2F7609570958095BB
:103960009095C695C695C370602B712B822B932BB7
:10397000C23049F058F4C13019F00E94EC202BCF2E
:103980000E94DA2028CF0E94FE2025CF0E94D82056
:1039900022CF8695112311F08C2F8170882309F492
:1039A0001ACF4D2F429546954770440F440F0D2F67
:1039B0000F7010E030E020E0042E04C0000F111F53
:1039C000221F331F0A94D2F760E070E0CB01D4FFCE
:1039D0000FC06FE070E080E090E004C0660F771FDA
:1039E000881F991F4A95D2F760957095809590959C
:1039F000C695C695C370602B712B822B932BC2305A
:103A000049F058F4C13019F00E94B121E4CE0E946F
:103A10009F21E1CE0E94C321DECE0E941421DBCE85
:103A2000CF70112329F08C2F0E943A218D2F1DCFAA
:103A30008D2F0E94811B8C2F0E945B21CCCED23F08
:103A400089F160F4D03FC9F0D13F29F1112309F485
:103A500042C00111A8CE8C2F8F7121C0D33F39F104
:103A6000D43FA1F7112369F1CF718C2F0E943A2125
:103A700063E08C2F0E943723AECE112341F0053036
:103A800008F0A9CE8C2F8F710E947E21A4CE063023
:103A900008F0A1CEF7CF8C2F8F71112369F20E940D
:103AA0003A2199CE8C2F8F711123C9F3C5CF1123E1
:103AB00029F08C2F8F710E9425218DCE0E9420210C
:103AC0008ACE81E00E944C23023008F484CE82E04A
:103AD0000E944C2380CE002359F0D93309F0F4CE54
:103AE0008FEF97EEE3E081509040E040E1F7EACEBF
:103AF0008C2F8F71A1CFDF91CF911F910F91FF90EC
:103B0000EF90DF90CF90BF9008950F931F93CF93C6
:103B1000DF93EC01688179818A810E9479228C018E
:103B20000E94D5210E94D720B801CE01DF91CF910C
:103B30001F910F910C94881BCF93DF93EC018B8125
:103B40009C81892B29F08881998189238F3F19F4E1
:103B5000DF91CF910895CE010E94DC0E8823C1F33E
:103B6000CE010E94851DCE01DF91CF910C94950E60
:103B70000E94E2220E94E5220E94012390E080E060
:103B80000E94E41990E080E00C94FA190E94AB22A4
:103B90000C94B81D0E94D2220C94C61DE92FE29508
:103BA000EF70E250EE3070F4F0E0EB52F04D0C9418
:103BB000402C803F19F020F4883E20F481E00895E5
:103BC000843FE1F380E00895883EC0F3813FD1F760
:103BD000F5CF93FB882780F908950E946F220C94FB
:103BE000CE1DCF93DF9300D000D00F92CDB7DEB7BC
:103BF0000F900F900F900F900F90DF91CF9108953D
:103C0000CF93DF9300D000D000D0CDB7DEB726969B
:103C10000FB6F894DEBF0FBECDBFDF91CF910895F0
:103C20001F93CF93DF93C0913D0316E080913E0335
:103C30008C1304C0DF91CF911F910895D0E01C9F99
:103C4000F0011D9FF00D1124E15CFC4F408151817A
:103C500062817381848195810E94001E2196C770C4
:103C6000E5CF40916F0350917003609171037091A3
:103C7000720380917303909174030C94001E1F9340
:103C8000CF93DF9380917403807FA9F480917103B7
:103C9000882389F080913D03C0913E0360916F03BA
:103CA00070917003A0917203B0917303D62FD72344
:103CB00016E0C81304C0DF91CF911F91089590E0E2
:103CC000109711F0DF3F19F401968770F2CF189F1B
:103CD0009001199F300D1124F901E15CFC4F4181E5
:103CE0004713F2CF40814613EFCF42814111ECCF11
:103CF000438154814A1B5B0B4436510528F7809160
:103D000074038F70806180937403F901EC5BFC4F46
:103D100080818F70806180838FE693E00E949C1D7C
:103D2000DF91CF911F910C94101EAF92BF92CF9252
:103D3000DF92EF92FF920F931F93CF93DF93CDB754
:103D4000DEB761970FB6F894DEBF0FBECDBF8C0112
:103D500085E0F801DE011D9601900D928A95E1F74C
:103D6000F80140815181E2808FE6C82E83E0D82E91
:103D700060917203709173036115710509F44FC16D
:103D800090916F0320917003892F82238F3F09F454
:103D900046C1A380B480F0907103F501E61BF70BD8
:103DA000FF2009F40AC180917403382F307FE43674
:103DB000F10508F0C0C0311179C0FE2C251323C0D5
:103DC000941321C0E1101FC08F7080618093740331
:103DD0000E94311EC6010E949C1D80917403F8014F
:103DE00085838F2D61960FB6F894DEBF0FBECDBFD1
:103DF000DF91CF911F910F91FF90EF90DF90CF90C7
:103E0000BF90AF900895AB2829F0842F85238F3F72
:103E100009F021C180E0F82FF170DF2E80FF3CC057
:103E200080913D0320913E0336E0821315C04D87FB
:103E30005E878D859E850E946F22292F22952F7087
:103E40002230F0F0243018F59F70F1F0F8019581E0
:103E5000907FD1F4D12C1EC090E0389FF001399FA3
:103E6000F00D1124E15CFC4F6181651306C0608197
:103E7000641303C062816E110FC001968770D5CFA5
:103E80009F7011F0882331F3805E883018F3C801E9
:103E90000E949C1DFD2CA5CFEE2009F4A2CF80919D
:103EA0007403816080937403F12C9BCF251314C09D
:103EB000941312C0E11010C0F8018583C8010E945C
:103EC0009C1D86E0F801AFE6B3E001900D928A9563
:103ED000E1F70E94311E85CF4D875E878D859E85D7
:103EE0000E94ED1D882319F1EE2009F180917403E1
:103EF000803270F020916F033091700338872F83E8
:103F00001986BB86AA868C87CE0107960E949C1DC7
:103F100086E0F801AFE6B3E001900D928A95E1F7F3
:103F20000E943F1E0E94311EFF24F3945ACFC80105
:103F30000E949C1DF9CF311113C07A2DB98AA88A2D
:103F40006E2D89890E94F11D8FE693E00E949C1DD1
:103F500086E0F60111928A95E9F70E94311EA4CFFE
:103F600025130FC094130DC0E1100BC0F801858319
:103F7000C8010E949C1D86E0F60111928A95E9F71E
:103F800030CF4D875E878D859E850E94ED1D8823ED
:103F900071F2EE2061F280917403803208F4B8CFA0
:103FA00020916F03309170033A8329831B82BD8275
:103FB000AC828E83CE010196A9CFE436F10510F5CF
:103FC000FE2CEE2009F4B3CF25130BC0941309C0C7
:103FD00086E0F801AFE6B3E001900D928A95E1F733
:103FE00000CF4D875E878D859E850E94ED1D8111D6
:103FF0008FCF80917403816080937403C8010E9405
:104000009C1DEFCE7A2DB98AA88A6E2D89890E94CF
:10401000F11D86E0F60111928A95E9F75ACFEE205C
:1040200009F485CF4D875E878D859E850E94ED1DA5
:10403000F82E882309F47BCF86E0F801AFE6B3E0E1
:1040400001900D928A95E1F78FE693E00E94F41AB1
:104050000E943F1E3ECF81E08E25DDCE1F93CF9381
:10406000DF93CDB7DEB72C970FB6F894DEBF0FBE47
:10407000CDBF4F83588769877A878B879C87CE010E
:1040800007960E94951E882369F08A859B85892B57
:1040900039F04F815885842F85238F3F09F071C0F7
:1040A00016E05FC086E0FE013796DE0111960190B2
:1040B0000D928A95E1F78A859B85892B89F38885FE
:1040C0009F8189238F3F61F320913E0330E0C90136
:1040D00001968770992740913D034817190671F49E
:1040E0000E94CA1D10923E0310923D0386E0EFE647
:1040F000F3E0DF011D928A95E9F7D2CF96E0929F17
:10410000D001939FB00D1124A15CBC4FFE013196EC
:1041100001900D929A95E1F780933E030E94101E44
:10412000BFCF819FC0011124815C9C4F0E94951ECE
:104130008823E9F0E0913D031E9FF0011124E15C2A
:10414000FC4F4081518162817381848195810E94FD
:10415000001E80913D0390E001968770992780931F
:104160003D0380913D0390913E038913DACF2C9655
:104170000FB6F894DEBF0FBECDBFDF91CF911F9178
:10418000089569857A858B859C850E94001E88CF5D
:1041900008950C94C8200E94C9206093A1037093D5
:1041A000A2038093A3039093A4030C94B81D0895D5
:1041B0000C94CB200F931F930091A1031091A203A5
:1041C0002091A3033091A403602B712B822B932B9E
:1041D0001F910F910C94CB200F931F930091A1037B
:1041E0001091A2032091A3033091A40360237123B3
:1041F000822393231F910F910C94CB200F931F9335
:104200000091A1031091A2032091A3033091A40374
:1042100060277127822793271F910F910C94CB2041
:104220000C94C8200C9410210E94122160939D03CD
:1042300070939E0380939F039093A0030C94B81DEA
:1042400060E070E0CB010C9414210F931F9341E0C8
:1042500050E060E070E08A019B0104C0000F111F74
:10426000221F331F8A95D2F7C901B8011F910F9100
:104270000C9414210F931F9341E050E060E070E034
:1042800004C0440F551F661F771F8A95D2F780918F
:104290009D0390919E03A0919F03B091A0038A017A
:1042A0009B01082B192B2A2B3B2BC901B8011F910D
:1042B0000F910C9414210F931F9341E050E060E0A4
:1042C00070E004C0440F551F661F771F8A95D2F710
:1042D000CB01BA01609570958095909500919D03F2
:1042E00010919E0320919F033091A00360237123BE
:1042F000822393231F910F910C9414210F931F93EA
:1043000041E050E060E070E004C0440F551F661FBC
:10431000771F8A95D2F780919D0390919E03A0917B
:104320009F03B091A0038A019B01082719272A2720
:104330003B27C901B8011F910F910C9414210F93D1
:104340001F9300919D0310919E0320919F03309134
:10435000A003602B712B822B932B1F910F910C9438
:1043600014210F931F9300919D0310919E032091A0
:104370009F033091A00360237123822393231F9115
:104380000F910C9414210F931F9300919D03109192
:104390009E0320919F033091A003602771278227FD
:1043A00093271F910F910C9414210895E92FEE0F7C
:1043B000E90FEE0F8E0F982F977041E001C0440F68
:1043C0009A95EAF786958695869595E0899FF001FE
:1043D0001124EB58FC4F30E020E070E05191DF01F8
:1043E0001197CB01022E02C0969587950A94E2F7A9
:1043F000817081958527842385278C932F5F3F4F7C
:104400002530310559F70895E92FEE0FE90FEE0F2A
:104410008E0F982F977086958695869525E0829FBA
:10442000F0011124EB58FC4F50E040E080E0219176
:1044300030E0092E02C0369527950A94E2F72170E4
:104440003327042E01C0220F0A94EAF7822B4F5F14
:104450005F4F4530510559F70895BF92CF92DF92D3
:10446000EF92FF920F931F93CF93DF938C01C09035
:104470009D03D0909E03E0909F03F090A003809155
:10448000A1039091A203A091A303B091A403C82A11
:10449000D92AEA2AFB2ACFE1D0E0BC2ED701C601F7
:1044A0000C2E04C0B695A795979587950A94D2F7D8
:1044B00080FD0EC0219788F7B12C8B2DDF91CF9115
:1044C0001F910F91FF90EF90DF90CF90BF900895D4
:1044D000B8018C2F0E94310F019761F3EECFCF937B
:1044E000DF93EC010E942D22BE01DF91CF910C944D
:1044F000310F1F93CF93DF93EB0190913C039923EE
:1045000031F0CB01DF91CF911F910C946F22882362
:1045100079F0CB010E942D22182F682FCE010E9426
:10452000D621BE01812FDF91CF911F910C94310FC5
:10453000CB010E940422182FF4CF682F80916D01C7
:1045400090916E010C945524682F80916D0190918B
:104550006E010C94572480916D0190916E010C9422
:1045600059248091A5038595859585950895809119
:10457000A503877008959091A503977081E009F4D1
:1045800080E008958091B10308959091B103892B43
:104590008093B103089580959091B10398239093EF
:1045A000B10308951092B10308959091B003892B3F
:1045B0008093B003089580959091B00398239093D1
:1045C000B00308951092B00308951092AF030895B8
:1045D0008091A603089508950C94EB229091A60370
:1045E000981721F08093A6030C94EC2208958091F3
:1045F000A603882329F01092A60380E00C94EC22F5
:104600000895E0916D01F0916E018091B103808376
:10461000E0916D01F0916E0180819091B003892B42
:104620008083E0916D01F0916E0180819091AF03E4
:10463000892B80839091A603992381F0E0916D01ED
:10464000F0916E018081892B808380916D01909122
:104650006E010E940D2481110E94F72280916D014C
:1046600090916E010C94D91908950C94342398E01C
:10467000899F90011124622B6093A5030E943A2127
:104680008091A5038595859585950C943523109289
:10469000A50380E00C9435239091A5038095892390
:1046A0008093A503282F277071F4282F082E000C63
:1046B000330B9217130639F08595859585950E94E1
:1046C0005B210C944723089590E080E00E94422FE4
:1046D00021E08C3E9E4F09F020E0822F089582E079
:1046E00090E00C94342F83E090E00C94342F682FEA
:1046F00083E090E00C94482FCF9384E090E00E94F8
:10470000342FC82F81E290E00E94342F982F8C2FF5
:10471000CF910895CF93C92F682F84E090E00E9435
:10472000482F6C2F81E290E0CF910C94482FAB0181
:10473000BC018FE090E00C945A2FAB01BC0183E1E7
:1047400090E00C945A2F60E070E0CB010C949D2314
:1047500060E070E0CB010E9497230C94A3236CEEE1
:104760007EEF90E080E00E94662F60E082E090E0C3
:104770000E94482F60E083E090E00E94482F109252
:10478000A1031092A2031092A3031092A40360E06D
:1047900084E090E00E94482F60E081E290E00E9477
:1047A000482F60E085E090E00E94482F60E086E0BE
:1047B00090E00E94482F6FEF87E090E00E94482F22
:1047C00040E050E0BA0188E090E00E945A2F60E09B
:1047D0008DE090E00E94482F40E050E0BA0188E16F
:1047E00090E00E945A2F60E087E190E00E94482FFD
:1047F00040E050E0BA018CE190E00E945A2F60E066
:1048000080E290E00E94482F0C94A8230C94AF23E0
:10481000682F8EE090E00C94482F9C012E5F3F4F54
:10482000AC01485F5F4F80E02417350709F4089515
:10483000F90191919F019923B9F38F5FF5CF662319
:1048400049F0FC01329608962191261729F0E817C5
:10485000F907D1F780E0089581E008959C01FC01FB
:1048600032969FEF80E04191461751F09F3F19F437
:10487000411101C0982F8F5F8630A9F79F3F09F43F
:104880000895290F311D97FD3A95F9016283089526
:10489000FC01329608962191261303C0DF0111977F
:1048A0001C92E817F907B9F708950C942E240C947C
:1048B0004824029626E0FC0111922A95E9F7089512
:1048C000089508950C9461240E9462248091A004AC
:1048D000843049F11092B30388E190E020E40FB6F0
:1048E000F894A895809360000FBE2093600080E04C
:1048F0000E94C40E0E94622483B7817F846083BFBC
:1049000083B7816083BF7894889583B78E7F83BF98
:104910000FB6F894A895809160008861809360003C
:10492000109260000FBE08950895CF930E946024F6
:104930000E94A00B0E949424C0E08C2F0E94FB0BCD
:10494000811105C0CF5FCA30C1F7CF91089581E0D2
:10495000FCCF08950C94A9240E94CA1D0E94CD1971
:104960000E94C40E0C94AA241F921FB61F921124F9
:104970008F939F93AF93BF938091B303811113C023
:104980008091960490919704A0919804B091990415
:104990004196A11DB11D8093960490939704A09316
:1049A0009804B0939904BF91AF919F918F911F90FC
:1049B0001FBE1F90189582E084BD93E095BD9AEFCD
:1049C00097BD80936E0008952FB7F8948091960458
:1049D00090919704A0919804B09199042FBF0895E5
:1049E0009C014FB7F8948091960490919704A09100
:1049F0009804B09199044FBF821B930B089578944B
:104A00001F921FB61F9211248F939F93AF93BF9352
:104A10008091960490919704A0919804B091990484
:104A20000196A11DB11D8093960490939704A093C5
:104A30009804B0939904BF91AF919F918F911F906B
:104A40001FBE1F90189581E08093E00080E2809364
:104A5000D8001092C9008FE19EE40197F1F700C0E1
:104A6000000087E090EBDC018093A9049093AA04F6
:104A7000A093AB04B093AC0488E19CE00FB6F8942B
:104A8000A895809360000FBE90936000FFCF0E94B6
:104A90006423811102C00E9406240E946F23809328
:104AA000B2030E947C2390939B0480939A040E94FB
:104AB0007323682F70E090E080E00C94D820809100
:104AC000BC0308950895CF93DF9300D00F92CDB724
:104AD000DEB79091A004943019F589837B836A83B3
:104AE00082E08093E9008FEF9091E800815095FD7E
:104AF00006C095ED9A95F1F700008111F5CF8091F0
:104B0000E80085FF0DC050E040E063E070E0CE01BA
:104B100001960E9479278091E8008E778093E800C3
:104B20000F900F900F90DF91CF910895CF93DF9367
:104B3000EC010E945C27823011F0843031F4BE0118
:104B400084E0DF91CF910C946325DF91CF9108959C
:104B5000BC0183E00C946325CF93DF93EC010E94AA
:104B60005C27823011F0843039F581E08093E900D0
:104B70008FEF9091E800815095FD06C095ED9A95D4
:104B8000F1F700008111F5CF8091E80085FF14C096
:104B900050E040E068E070E0CE010E94792780910B
:104BA000E8008E778093E80088E0FE01A4EBB3E094
:104BB00001900D928A95E1F7DF91CF910895809150
:104BC0009F04811109C00E9409290E9466298091D1
:104BD000E20084608093E200089510929F0408959B
:104BE000089508950C94AC2442E061EC81E00E94A9
:104BF000852842E261EC82E00C9485288091A20431
:104C0000833009F45FC030F48130C1F1823009F49F
:104C10009BC008958A3009F487C08B3009F46DC0B9
:104C2000893009F04EC08091A104813209F049C059
:104C30008091A5049091A604029708F042C080914B
:104C4000E800877F8093E8008091E80082FF35C00C
:104C50009091F3008091F200029729F48091F10085
:104C60008B7F813021F48091F1008093BC0380918F
:104C7000E8008B778093E8000C94B9288091A10418
:104C8000813AF9F48091E800877F8093E800809171
:104C9000A5049091A604892B61F468E084EB93E06D
:104CA00070E00E94C8278091E8008B778093E8002D
:104CB000089560E090E080E0F3CF8091A00481113E
:104CC000C3CF08958091A104813AD9F78091A504BA
:104CD0009091A604892BA9F78091E800877F8093A3
:104CE000E8008091E80080FFFCCF809179018093FB
:104CF000F1008091E8008E77BDCF8091A1048132D0
:104D000001F78091A5049091A604892BD1F680919A
:104D1000E800877F8093E8000E94B9288091A3046F
:104D2000809379010C94CA1D8091A104813249F6C7
:104D30008091E800877F8093E8000E94B9288091E5
:104D4000A4048093BD0308958091A104813A09F0E1
:104D5000B8CF8091E800877F8093E8008091E800D9
:104D600080FFFCCF8091BD03C2CF84B7877F84BF13
:104D70000FB6F894A89580916000886180936000D8
:104D8000109260000FBE80E890E00FB6F894809318
:104D90006100909361000FBE0E941E1A0E940929B3
:104DA0000E9466298091E20084608093E2007894FA
:104DB0000E94EF2B0E94261A8FE691E00E94C819EC
:104DC0008091A004853019F00E94301AF9CF0E941A
:104DD000642480919E04882399F30E94952488235B
:104DE00079F30E946327ECCF0C94F626292F332702
:104DF0002330310519F168F42130310509F44AC036
:104E00002230310509F44BC090E080E030E020E032
:104E100028C02132310579F122323105A9F780E429
:104E200090E020E93AE061157105D9F082E390E065
:104E30002EE53AE061307105A1F0E6CF9927813087
:104E4000910599F0009741F08230910589F0039720
:104E5000D9F6E3EEF9E002C0EDE0FAE0849190E0EB
:104E60009F01FA01318320830895E9EFF9E0F6CF3D
:104E7000E9EEF9E0F3CF89E090E023E23AE0611552
:104E8000710579F389E090E02CE33AE06130710537
:104E900041F3BACF82E190E02CE43AE0E2CF8BE339
:104EA00090E021E13AE0DDCF8091A004843011F45C
:104EB00082E0089581E008958091BE03811102C0CF
:104EC0000C945427089580E189BD82E189BD09B41D
:104ED00000FEFDCF8091D8008F7D8093D800809117
:104EE000E00082608093E0008091E00081FDFCCFD3
:104EF0000895AF92BF92CF92DF92FF920F931F93CC
:104F0000CF93DF936C01EB018A010E94D828F82E21
:104F1000811123C00115110539F0F80180819181BB
:104F2000C81BD90BC80ED91EB12CA12C2097A9F0F3
:104F30008091E80085FD22C08091E8008E77809303
:104F4000E80001151105A1F0F80180819181A80EFA
:104F5000B91EB182A08285E0F82E8F2DDF91CF910E
:104F60001F910F91FF90DF90CF90BF90AF90089569
:104F70000E94D8288823D1F2F82EEFCFF601819134
:104F80006F018093F1002197FFEFAF1ABF0ACECFD8
:104F9000FC018091A7049091A80486179707A0F0C0
:104FA0006115710529F49091E8009E779093E800CF
:104FB00090E06115710551F4911108C08091E800ED
:104FC00082FF34C080E00895BC01F2CF8091A0043C
:104FD0008823C1F18530C1F18091E80083FD30C0A4
:104FE0008091E80082FDEACF8091E80080FFE1CF68
:104FF0008091F3002091F200382F6115710519F0AE
:105000002830310558F091E02830310509F090E062
:105010002091E8002E772093E800CBCF81918093F8
:10502000F100615071092F5F3F4FE7CF8091A004DD
:10503000882341F0853041F08091E80083FFBECFA6
:1050400081E0089582E0089583E00895FC01809155
:10505000A7049091A80486179707A0F06115710521
:1050600029F48091E8008E778093E80090E0611544
:10507000710551F4911108C08091E80082FF35C09C
:1050800080E00895BC01F2CF8091A0048823C9F18B
:105090008530C9F18091E80083FD31C08091E8003E
:1050A00082FDEACF8091E80080FFE1CF8091F3009C
:1050B0002091F200382F6115710519F02830310563
:1050C00058F091E02830310509F090E08091E80037
:1050D0008E778093E800CBCF84918093F100319656
:1050E000615071092F5F3F4FE6CF8091A004882364
:1050F00041F0853041F08091E80083FFBDCF81E031
:10510000089582E0089583E00895982F973028F05D
:105110008F708093E90081E008959093E900242F37
:10512000762F50E0981731F07091EC002091ED004F
:105130005091F00021FD02C09F5FE8CF3091EB005D
:105140003E7F3093EB003091ED003D7F3093ED00DA
:105150003091EB0031603093EB007093EC002093C2
:10516000ED005093F0002091EE0027FDE5CF80E0A8
:1051700008958091A10487FF13C08091E80082FF09
:1051800006C08091E8008B778093E80004C080918E
:10519000A0048111F2CF08958091A0048823D9F34F
:1051A0008091E80080FFF8CF8091E8008E77ECCF07
:1051B0002091E4003091E50095E6A9012091EC00F2
:1051C000822F817020FF06C08091E80080FF06C01A
:1051D00080E008952091E80022FD1AC08091A0048B
:1051E000882389F0853089F08091EB0085FD0FC020
:1051F0002091E4003091E50042175307F9F29150F5
:10520000E1F684E0089582E0089583E0089581E066
:1052100008950E9477290E947F29E0EEF0E08081C6
:1052200081608083E8EDF0E080818F77808319BC16
:10523000A7EDB0E08C918E7F8C9380818F7E8083F0
:1052400010929F0408950F931F93CF93DF930E94B2
:1052500077290E947F29C8EDD0E088818F778883E5
:1052600088818068888388818F7D888319BC1092AB
:10527000A00410929C0410929E0410929D0400EED3
:1052800010E0F80180818B7F808388818160888332
:1052900042E060E080E00E948528E1EEF0E080815D
:1052A0008E7F8083E2EEF0E0808181608083808168
:1052B00088608083F80180818E7F8083888180610F
:1052C0008883DF91CF911F910F910895E8EDF0E071
:1052D00080818F7E8083E7EDF0E080818160808334
:1052E00084E082BF81E080939F040C942329E8ED41
:1052F000F0E080818E7F80831092E200089510920A
:10530000DA001092E10008951F920F920FB60F92EB
:1053100011242F933F934F935F936F937F938F93BA
:105320009F93AF93BF93EF93FF938091E10082FF30
:105330000BC08091E20082FF07C08091E1008B7F6B
:105340008093E1000E94EE2B8091DA0080FF19C06B
:105350008091D80080FF15C08091DA008E7F809305
:10536000DA008091D90080FF96C080E189BD82E19A
:1053700089BD09B400FEFDCF81E08093A0040E94A6
:10538000DF258091E10080FF19C08091E20080FF5D
:1053900015C08091E2008E7F8093E2008091E20050
:1053A00080618093E2008091D80080628093D80071
:1053B00019BC85E08093A0040E94F1258091E10052
:1053C00084FF2BC08091E20084FF27C080E189BD6B
:1053D00082E189BD89B5982F917080FFFBCF8091C4
:1053E000D8008F7D8093D8008091E1008F7E8093DC
:1053F000E1008091E2008F7E8093E2008091E200E4
:1054000081608093E20080919C04882309F449C064
:1054100084E08093A0040E94F2258091E10083FF44
:1054200029C08091E20083FF25C08091E100877F41
:105430008093E10082E08093A00410929C0480910C
:10544000E1008E7F8093E1008091E2008E7F809367
:10545000E2008091E20080618093E20042E060E03F
:1054600080E00E9485288091F00088608093F000A1
:105470000E94F025FF91EF91BF91AF919F918F9185
:105480007F916F915F914F913F912F910F900FBE40
:105490000F901F90189519BC1092A0040E94ED2542
:1054A00070CF8091E30087FD93E09093A004B3CF89
:1054B0001F920F920FB60F9211242F933F934F9389
:1054C0005F936F937F938F939F93AF93BF93CF938C
:1054D000DF93EF93FF93D091E900DF708091EC00B0
:1054E000C82FC17080FDC0E81092E9008091F000E3
:1054F000877F8093F00078940E949C2A1092E900A4
:105500008091F00088608093F000CD2BCF70C09325
:10551000E900FF91EF91DF91CF91BF91AF919F9102
:105520008F917F916F915F914F913F912F910F904C
:105530000FBE0F901F9018951F93CF93DF93CDB799
:10554000DEB7AA970FB6F894DEBF0FBECDBF81EAD3
:1055500094E02091F100FC012193CF01F4E0893A1D
:105560009F07B9F70E94FE258091E80083FF1EC1C6
:105570008091A1049091A2049A3008F017C1E92FFC
:10558000F0E0ED51F04D0C94402C803899F08238C9
:1055900009F00CC18091A5048F70873008F006C116
:1055A0008093E9008091EB0085FB882780F91092B9
:1055B000E90006C080919D0490919E049111826043
:1055C0009091E800977F9093E8008093F10010920B
:1055D000F1008091E8008E77E5C0882309F4D3C0FC
:1055E000823009F0E3C08091A3048111D6C080917C
:1055F000A5048F702FEF280F263008F0D7C08093B6
:10560000E9002091EB0020FFC8C0933031F4809175
:10561000EB0080628093EB00C0C09091EB00906142
:105620009093EB0021E030E001C0220F8A95EAF769
:105630002093EA001092EA008091EB008860EACFA4
:105640008111B4C01091A3041F778091E30080788A
:10565000812B8093E3008091E800877F8093E800AE
:105660000E94B9288091E80080FFFCCF8091E30080
:1056700080688093E30082E0111183E08093A004AE
:1056800095C08058823008F091C08091A304909119
:10569000A4048C3D23E09207A1F583E08A838AE28B
:1056A00089834FB7F894DE01139620E03EE051E283
:1056B000E32FF0E050935700E49120FF03C0E29500
:1056C000EF703F5FEF708E2F90E0EA30C0F0C7962A
:1056D0008D939D932F5F243159F74FBF8091E80040
:1056E000877F8093E8006AE270E0CE0101960E9415
:1056F000C8278091E8008B778093E80057C0C09658
:10570000E7CF6091A5047091A604AE014F5F5F4F93
:105710000E94F426BC01892B09F448C09091E8004E
:10572000977F9093E80089819A810E942628E1CF93
:105730008038E1F58091E800877F8093E8008091D0
:105740009C048093F10045CF811130C09091A30457
:10575000923060F58091E800877F8093E800909315
:105760009C040E94B92880919C04882311F084E055
:1057700005C08091E30087FDFACF81E08093A0040B
:105780000E94F42513C08091A304813079F481E054
:10579000933009F080E080939E041092E90080919C
:1057A000E800877F8093E8000E94B9288091E80094
:1057B00083FF0AC08091E800877F8093E800809192
:1057C000EB0080628093EB00AA960FB6F894DEBFE0
:1057D0000FBECDBFDF91CF911F9108950895CF9354
:1057E0008091A0048823A1F0C091E900CF7090912E
:1057F000EC00892F817090FD80E8C82B1092E900A1
:105800008091E80083FD0E949C2ACF70C093E9003C
:10581000CF91089587FB082E062687FD819567FDA9
:1058200061950E94462C0EF4919507FC8195089590
:10583000AA1BBB1B51E107C0AA1FBB1FA617B707B6
:1058400010F0A61BB70B881F991F5A95A9F78095D2
:105850009095BC01CD01089597FB072E16F4009496
:1058600007D077FD09D00E94182C07FC05D03EF424
:10587000909581959F4F0895709561957F4F0895FC
:10588000EE0FFF1F0590F491E02D0994991B79E02C
:1058900004C0991F961708F0961B881F7A95C9F7C0
:1058A00080950895FC014150504030F0019006165B
:1058B000D1F73197CF010895882799270895FB01E3
:1058C000DC0104C08D910190801921F441505040B9
:1058D000C8F7881B990B08956817790768F4FB01CE
:1058E000DC01E40FF51FA40FB51F02C002900E9259
:1058F00041505040D8F708950C94922EDC0101C01D
:105900006D9341505040E0F70895FB01DC01019098
:105910000D920020E1F70895AEE0B0E0E2E9FCE28C
:105920000C948A2F0D891E898F89988D26E02C83EF
:105930001A83098397FF02C080E090E801979E8355
:105940008D83AE01455E5F4F698D7A8DCE010196E4
:105950000E94BC2C4D815E8157FD0AC02F81388585
:10596000421753070CF49A01020F131FF80110821B
:105970002E96E4E00C94A62FABE0B0E0E2ECFCE263
:105980000C947C2F7C013B018A01FC01178216825A
:10599000838181FFB9C19AE0292ECE0101965C0175
:1059A000F7019381F30193FD859193FF81913F016D
:1059B000882309F446C1853239F493FD859193FF1C
:1059C00081913F01853229F4B70190E00E94A62E13
:1059D000E7CF912C412C512CFFE1F51538F08B329B
:1059E00009F188F4803201F1833221F157FC3AC089
:1059F00020ED280F2A3040F556FE1FC0929C200D46
:105A00001124922E06C08D3291F0803379F768947C
:105A100050F8F30193FD859193FF81913F0181112E
:105A2000DBCF20C0689451F8689452F8F2CF6894A4
:105A300053F8EFCF689454F8ECCF429C200D11241A
:105A4000422E689455F8E5CF8E3229F456FCF9C001
:105A5000689456F8DECF8C3619F4689457F8D9CF8D
:105A60008836B9F2982F9F7D95549330C0F08336D5
:105A7000A1F18337C1F1833509F05BC0F801C19012
:105A8000D1908F01692D70E056FC02C06FEF7FEF5F
:105A9000C6010E94872E4C01689457F80AC00C5F1B
:105AA0001F4F2FE3298388248394912C6501E89468
:105AB00057F853FC04C04814190409F018F5342CA5
:105AC0008114910431F5332009F46ACFB70180E2E3
:105AD00090E00E94A62E3A94F6CFF8018081898347
