:100000000C9432010C9479010C9479010C947901CF
:100010000C9479010C9479010C9479010C94790178
:100020000C9479010C9479010C942D190C94FF19FE
:100030000C9427140C9479010C9479010C94790197
:100040000C9479010C9479010C9479010C94790148
:100050000C9479010C9474140C9479010C9479012A
:100060000C9479010C9479010C9479010C94790128
:100070000C9479010C9479010C9479010C94790118
:100080000C9479010C9479010C9479010C94790108
:100090000C9479010C9479010C9479010C947901F8
:1000A0000C9479010C9479010C947901B009B00990
:1000B000E209E2092F0A630B630B630B4D0AE20AA4
:1000C000F30AF30A530B630B630B5C0BFF0BFF0B81
:1000D000110C110C080C110C110C110CFF0BFF0B67
:1000E0000D0C110C110C0D0C6C1A931A8B1B931A1E
:1000F0008B1BDF1A021B8B1B591B681B4000410026
:1001000042003D003E003F003A003B003C000151F0
:10011000430044004500A800AA00A9004600AE0024
:100120004900010004033000000022035200410096
:100130004D004100200057004F0052004B0053007B
:1001400020004D00310030002D0042000000160359
:10015000520041004D004100200057004F00520066
:100160004B00530000000403090409023B00020194
:1001700000A0FA0904000001030101000921110196
:1001800000012240000705810308000A090401005C
:100190000103000000092111010001226D00070583
:1001A000820320000A12011001000000084152AB36
:1001B0000001000102030105010980A10185031965
:1001C000012AB700150126B700950175108100C0FE
:1001D000050C0901A101850419012AA002150126B7
:1001E000A002950175108100C005010906A10185D5
:1001F00005050719E029E715002501950875018116
:10020000020507190029EF1500250195F0750181F8
:1002100002050819012905950575019102950175D9
:10022000039101C005010906A101050719E029E7AD
:100230001500250195087501810295017508810158
:100240000507190029FF150026FF0095067508818E
:10025000000508190129059505750191029501759B
:10026000039101C011241FBECFEFDAE0DEBFCDBF86
:1002700004B603FE27C08091360290913702A09108
:100280003802B09139028730904BA740B04BD1F47F
:1002900010923602109237021092380210923902F0
:1002A00014BE84B7877F84BF0FB6F894A895809159
:1002B0006000886180936000109260000FBEE0E0F3
:1002C000F8E3099511E0A0E0B1E0E2E1F8E302C053
:1002D00005900D92AA37B107D9F722E0AAE7B1E05D
:1002E00001C01D92A633B207E1F70E945C160C9480
:1002F000071C0C94000081E0089581E008950C949F
:100300007D0108950C9481011F93CF93DF9300D05A
:1003100000D01F92CDB7DEB749835A836B833091EB
:100320008A0189819A81311114C0662359F02223F0
:1003300049F00E943811182F682F89819A810E94F4
:10034000E11003C00E940C11182F69817A81812F5E
:1003500004C00E94381169817A810F900F900F902C
:100360000F900F90DF91CF911F910C943802FC01F8
:10037000262F408151816281738184810C94840194
:10038000CF93DF93EC0160E00E94B701BE01DF91E3
:10039000CF910C9482010E94C0140E9470128111AE
:1003A00002C00E9410130C9451040C944D04089543
:1003B0000C94D70181E008950C94DA01CF93C82FF3
:1003C0000E94D8018C2F0E94DC01CF9108950895DE
:1003D0000E94ED0B0E94E7012FEF84E39CE0215087
:1003E00080409040E1F700C000000C949A140F93F5
:1003F0001F93CF93DF93EC0161E00E94B7018C0162
:10040000BE010E947F01882349F1BE01C8010E94FC
:100410007F05882319F1BE01C8010E94C005882309
:10042000E9F0BE01C8010E94EB068823B9F08A8179
:10043000882369F001158CE5180731F00E3D1C4545
:1004400031F40E9410130AC00E94E80107C0CE01D7
:10045000DF91CF911F910F910C947B0180E0DF9190
:10046000CF911F910F91089580E090E00895089535
:10047000272F30E0280F311D8AE0829FF001839FF3
:10048000F00D1124E60FF11DEE0FFF1FE450FF4F9A
:10049000859194910895880F991FFC01EC5DFE4FA2
:1004A000859194910895CF93DF930E9438020E9422
:1004B0006503EC018115904508F043C0C11580E447
:1004C000D80708F0CBC0C03ED10528F5C03CD10507
:1004D00008F0B3C0C83AD10578F4C53AD10508F0A0
:1004E000A4C0C130D10509F4ECC008F4E8C0C430A0
:1004F000D10508F0E6C0E3C0CF3BD10508F0DFC06E
:10050000C85AD0E0CC0FDD1FC35FDE4F0990D88101
:10051000C02DD464D6C0C11590E2D90750F4C115DE
:1005200021E0D20708F0CDC0C83ED10508F4C9C00B
:10053000C6C0C11580E3D80708F086C0CE019F7001
:100540007FC0C11595E5D90708F043C0C11524E562
:10055000D20708F09AC0C11582E5D80708F5C11581
:1005600091E5D90708F07DC0CE0174E09695879596
:100570007A95E1F783709C2F937021E030E002C000
:10058000220F331F9A95E2F73C68382BCF70C6953F
:10059000C69580E2C89FE0011124C22BD32B91C0E5
:1005A0009E01237033278C2F86958695C115D345E0
:1005B00008F05CC0C1E0D0E002C0CC0FDD1F2A957E
:1005C000E2F720E2829FC0011124C82BD92BDC68FE
:1005D00078C0C11529E5D207A0F4C11588E5D80770
:1005E00008F058C0C11596E5D90708F068C08C2FEF
:1005F0000E94F9038F71C82FD0E0DC2FCC27D06286
:1006000060C0C1152AE5D20708F449C0CE01905652
:100610008115904208F053C08D2F8F710E94F9030D
:10062000DD27D0628F71D82B4CC0C55AD0E0C55C95
:10063000DE4FC881D0E0D06444C0CE01805C910917
:100640000E944B02EC013DC0CE019927D3FF03C0AD
:10065000EC01D86C36C0EC01D06C33C0DF70D06ACE
:1006600030C0DC2FCC27C16FD06A2BC0C1E0D0E0F6
:1006700002C0CC0FDD1F2A95E2F720E2829FC00165
:100680001124C82BD92BDA681CC0DC2FCC27C46FEF
:10069000D06A17C0DC2FCC27C06FD06A12C08C2F55
:1006A0008F700E94F90394E0D695C7959A95E1F76B
:1006B000CF70D0E0DC2FCC27D069C82B02C0C0E0BF
:1006C000D0E0CE01DF91CF9108958238910569F194
:1006D000B0F48133910509F46DC048F48932910575
:1006E00009F463C08A32910509F469C0089585331D
:1006F000910509F455C089339105B9F00895833EF9
:10070000910569F138F4803E9105B1F0823E910582
:1007100009F10895863E9105A9F1873E9105B9F149
:10072000843E910509F064C023C02091270220FD7A
:100730004FC021FD4DC008958091270280FD44C027
:100740008091280280FF44C08091270284FD42C02E
:1007500083EE4DC08091270282FF38C0F5CF809193
:10076000270282FD33C08091280280FD31C0ECCF8A
:100770008091280281FF32C08091270284FD2AC027
:1007800087EE35C08091270283FF26C0F5CF809188
:10079000270283FD21C08091280281FD1FC0ECCF7C
:1007A0008091270285FD1CC01DC08091270285FD18
:1007B00019C016C08091270286FD16C017C080910F
:1007C000270286FD13C010C089E311C082EE0FC05E
:1007D00080EE0DC080E00BC086EE09C084EE07C03D
:1007E00089E205C085E303C08AE201C081E390E0AD
:1007F00008959091270292FF0DC0282F287128306C
:1008000019F4877F846006C0282F2471243011F4E6
:100810008B7F886093FF0DC0282F2871283119F431
:10082000877E846106C0282F2471243111F48B7EC9
:1008300088612091280220FF0DC0382F3871383090
:1008400019F4877F816006C0382F3171313011F47F
:100850008E7F886021FF0DC0282F2871283119F460
:10086000877E816106C0282F2171213111F48E7E8F
:10087000886194FD877E0895E82FF0E0EE0FFF1F5A
:10088000EF5DFD4F808191810895089580EA8A95FA
:10089000F1F7089508950C944A040C944B040C94B9
:1008A0004A040C944F04CF93DF936E98769AAEE38C
:1008B000B1E048E451E061E070E08D91E82FE2950D
:1008C000EF70F0E021A18F70EB0102C0CC0FDD1FB3
:1008D0008A95E2F7CE019C2F9095922391A392A145
:1008E000892B82A34A175B0741F7109220021092CE
:1008F0001F02109222021092210281E00E94D00475
:10090000DF91CF910C94CB01CF93DF936E9A7698C1
:100910000E944604AEE3B1E040E050E020E030E069
:10092000C1E0D0E06D91E62FE295EF70F0E080A19C
:1009300090E06F7002C0959587956A95E2F780FD0B
:1009400008C0CE01042E02C0880F991F0A94E2F756
:1009500002C080E090E0282B392B4F5F5F4F4A3078
:10096000510501F76E98769A80911F0290912002AE
:100970002817390731F03093200220931F02C1E07D
:1009800001C0C0E02C2F41E061E272E08FE192E013
:100990000E94D1040E94D5018C2FDF91CF91089540
:1009A0000895FF920F931F93CF93DF93F82E092F93
:1009B000162FD72FC42F222349F081E080937C018A
:1009C0000E94591490937B0180937A0180917C015D
:1009D0008823D9F080917A0190917B010E9465145F
:1009E000069798F0EF2DF02FA12FBD2F80E090E01B
:1009F0004C2F50E08417950734F4219131912D93B9
:100A00003D930196F7CF10927C01DF91CF911F911A
:100A10000F91FF9008950F931F93CF93DF93C62FED
:100A2000D42F122FFC0182818823C9F060937F01AB
:100A30000E94591490937E0180937D0180E28C0F77
:100A4000883008F057C0C77081E001C0880FCA9590
:100A5000EAF7DF91CF911F910F910C946C0980916F
:100A60007F01681330C080917D0190917E010E94CA
:100A70006514883C910538F500E20D0FCD17B9F0EB
:100A800080E28C0F883040F4C77081E001C0880F8D
:100A9000CA95EAF70E947309083028F581E09D2F76
:100AA000977001C0880F9A95EAF70E946C09812F10
:100AB0000E9459090830F0F4D77081E001C0880F16
:100AC000DA95EAF70AC080E28C0F883098F4C77094
:100AD00081E001C0880FCA95EAF7DF91CF911F919D
:100AE0000F910C947309812FDF91CF911F910F917A
:100AF0000C945909DF91CF911F910F9108959C019A
:100B0000CB01233F4CE53407F9F078F4283DFCE5B0
:100B10003F07B9F0293D4CE5340711F1273D3C452D
:100B200031F526E241EE61EE1EC0253FFCE53F07B0
:100B300099F070F0263F3C45D1F427E245EE66EE91
:100B400012C027E245EE0EC026E241EE60EE0BC079
:100B500027E245EE64EE07C026E241EE62EE03C0F6
:100B600028E241E065EE0E940B0580E00895FC015B
:100B70008281882319F010927F01089581E0089501
:100B8000CF93DF93EC01FB018281882309F41FC11D
:100B9000C230FCE5DF0708F41BC1C6319CE5D9076C
:100BA00038F09E012A5F3C452930310508F010C11C
:100BB0000E9483129093280280932702C031ECE5B3
:100BC000DE0709F4C3C008F041C0C8308CE5D8077F
:100BD00009F49AC0F0F4C430ECE5DE0709F487C0EC
:100BE00068F4C2308CE5D80709F477C0C330DC451F
:100BF00009F0E3C080912702826076C0C630ECE540
:100C0000DE0709F46EC008F07BC08091270288607F
:100C10006BC0CC308CE5D80709F485C068F4CA30C5
:100C2000ECE5DE0709F474C008F079C00E94ED0B12
:100C300080912702806858C0CE308CE5D80709F42F
:100C400076C008F07FC0809127028BC0CB3FECE5D7
:100C5000DE0709F44FC018F5C3318CE5D80709F455
:100C60007DC078F4C131ECE5DE0709F473C0C23110
:100C7000DC4509F0A2C00E94ED0B809127028F771E
:100C800033C0C5318CE5D80709F472C008F486C0BA
:100C9000CA3FDC4509F091C0809128023EC0CF3F99
:100CA000FCE5DF0709F45FC058F4CD3F9CE5D907A8
:100CB00009F444C008F43FC08091280282602DC02E
:100CC000C130FDE5DF0709F475C008F45DC0C2302E
:100CD000DD4509F072C080E06EC08091270281601E
:100CE00003C08091270280618093270266C08091B3
:100CF000270211C0809128028260809328025DC083
:100D0000809127028062F0CF809127028064ECCF2F
:100D10008091270288608460E7CF8160EECF809168
:100D200027028E7FE1CF809127028D7FDDCF8091DA
:100D30002702877FD9CF8091280218C0809128028E
:100D40008D7FDBCF809127028F7ECECF80912702CF
:100D50008F7DCACF809127028F7BC6CF80912702DB
:100D6000877F8B7FC1CF809128028D7F8E7FC5CFFB
:100D70008091270282FB222720F991E0922790FBA5
:100D800082F990FB83F9B0CF80912802982F90953B
:100D900091708E7F892B90FB81F9AFCF0E94ED0B74
:100DA0008091270287FB222720F991E0922790FB70
:100DB00087F99ACF81E00E941213809127029091C7
:100DC00028020E9494120E94ED0B80E001C081E095
:100DD000DF91CF910895CF93DF9386319C4541F504
:100DE000EB010E94B911982F8A8120910001309166
:100DF0000101882379F09A7A81E009F480E08093F8
:100E00008001911102C069E201C065E3C9010E943D
:100E1000AD130AC080918001811102C069E201C056
:100E200065E3C9010E94B8130E94071280E001C067
:100E300081E0DF91CF9108959093860180938501A1
:100E40000895E0918501F0918601309721F001909D
:100E5000F081E02D099480E00895E0918501F09102
:100E60008601309799F020910C01222359F02091AE
:100E7000270227FF07C0DC012C9111962C931197B4
:100E800025E02C930280F381E02D099408952091B0
:100E90008301309184012817390771F09093840100
:100EA00080938301E0918501F0918601309721F0D4
:100EB0000680F781E02D09940895209181013091F9
:100EC00082012817390771F0909382018093810184
:100ED000E0918501F0918601309721F00084F18541
:100EE000E02D0994089585B7806885BF85B780682F
:100EF00085BF089508950C947A070C947B070C9491
:100F00007A070C947A070E9473070E947F070C945B
:100F10007D0781E008950C9489070E9450140E9477
:100F200053040E94D4140C948107CF92DF92EF9265
:100F3000FF920F931F93CF93DF93CDB7DEB72A971E
:100F40000FB6F894DEBF0FBECDBF0E9484040E948E
:100F50008B07882309F43FC080E00E943C047C0199
:100F6000C0908801D0908901C826D926C114D10427
:100F700091F18091FA0181FD0E94450480E001E039
:100F800010E0960120233123232B01F18E831F8251
:100F9000E022F12281E0EF2809F480E088870E94B6
:100FA00059148160782F9A8789874E815F8168857F
:100FB0008A850E94240880918801909189010827E0
:100FC0001927109389010093880115C08F5F000FC6
:100FD000111F8A30B1F68FEF89838A831B820E94AA
:100FE00059148160782F9D838C8349815A816B814C
:100FF0008D810E9424080E94210790918701891702
:10100000A1F00E942107809387012A960FB6F894D9
:10101000DEBF0FBECDBFDF91CF911F910F91FF902B
:10102000EF90DF90CF900C94DE012A960FB6F894E3
:10103000DEBF0FBECDBFDF91CF911F910F91FF900B
:10104000EF90DF90CF900895CF93DF93CDB7DEB7C9
:101050002B970FB6F894DEBF0FBECDBF4F835887D6
:1010600069877A878B87DE01119686E0FD011192F0
:101070008A95E9F785E0FE01379601900D928A95F1
:10108000E1F749815A816B817C818D819E810E942B
:10109000A60E2B960FB6F894DEBF0FBECDBFDF9124
:1010A000CF910895FC01808191810E947A11089569
:1010B000CF93882309F49CC0C82F8238C1F40E94C2
:1010C000210781FD95C069E38091000190910101A4
:1010D0000E94AD130E9407122FEF81EE94E0215081
:1010E00080409040E1F700C0000069E319C08338F8
:1010F00001F50E94210780FD7BC063E5809100011E
:10110000909101010E94AD130E9407122FEF81EE12
:1011100094E0215080409040E1F700C0000063E57A
:1011200080910001909101010E94B813CF910C941D
:1011300007128438C1F40E94210782FD59C067E478
:1011400080910001909101010E94AD130E9407124D
:101150002FEF81EE94E0215080409040E1F700C0F5
:10116000000067E4DDCF8CEF8C0F813AD0F46C2F58
:1011700080910001909101010E942D13882349F074
:101180006C2F80910001909101010E94B8130E9480
:1011900007126C2F80910001909101010E94AD1304
:1011A000C5CF80E28C0F883048F4C77081E001C061
:1011B000880FCA95EAF70E94BC11B8CFEBE5EC0F97
:1011C000E33040F4F0E0EA58FE4F808190E0CF91A8
:1011D0000C944707C85AC73158F4EC2FF0E0EE0FD3
:1011E000FF1FE85BFE4F80819181CF910C945D07DA
:1011F000CF910895882309F45BC0682F823879F471
:101200000E94210781FF54C069E380910001909101
:1012100001010E94AD130E94071269E310C08338D8
:10122000B1F40E94210780FF43C063E58091000173
:10123000909101010E94AD130E94071263E5809115
:101240000001909101010E94B8130C940712843898
:1012500079F40E94210782FF2BC067E4809100018E
:10126000909101010E94AD130E94071267E4E7CF3D
:101270008CEF860F813A18F380E2860F883048F4AD
:10128000677081E001C0880F6A95EAF70E94C21179
:10129000DCCF8BE5860F833020F480E090E00C9467
:1012A0004707685A673120F480E090E00C945D07AE
:1012B0000895CF93C82F0E945808C93349F42FEFDF
:1012C00087EE93E0215080409040E1F700C000009D
:1012D0008C2FCF910C94FA08882321F00E94BC1126
:1012E0000C9407120895882321F00E94C2110C94D7
:1012F00007120895CF92DF92EF92FF920F931F9300
:10130000CF93DF937C01062FC72FFC011581129527
:101310001F70D281D1110E94D9110E94B21188236D
:1013200099F0DD2389F08C2F807F803421F080E2DA
:10133000800F883048F082E00E9451120E94B21162
:1013400091E0D82ED92601C0D12CCC2EC2948FE0AA
:10135000C8228C2D90E0FC01EA5AFF4F0C94BF1B71
:101360008C2F807FCF70882311F0C295C07FDD2342
:1013700099F0CC2309F482C180E2800F883010F00C
:10138000011104C08C2F0E94BC1103C08C2F0E943D
:10139000CC110E94071272C1802F0E94FA08CC2340
:1013A00009F491C180E2800F883010F0011104C06F
:1013B0008C2F0E94C21103C08C2F0E94D2110E9458
:1013C000071281C18C2F807FCF70803211F0C295BF
:1013D000C07F002319F00130C9F022C0DD2371F075
:1013E000112341F0113031F40E94EC118C2B0E943A
:1013F000F41169C10E94EC118C2B1DC0112319F04E
:10140000113009F460C10E94FD1125C0DD2321F0D7
:10141000163008F058C10EC0153008F054C11BC07A
:10142000DD2361F0112331F0F701858180FF26C1B2
:101430008F7085838C2F0E946C0945C1112359F050
:10144000093309F02CC1FFEF27EE83E0F150204073
:101450008040E1F722C18C2F0E94730934C18C2F88
:1014600086958695837019F0813061F02CC1DD235B
:1014700021F0802F9C2F937002C080E090E00E94AA
:10148000470729C1DD2321F0802F9C2F937002C0D4
:1014900080E090E00E945D071EC18C2F837009F0F0
:1014A00045C0D11114C1402F429546954770440F55
:1014B000440F602F6F70862F90E0A0E0B0E0042E04
:1014C00004C0880F991FAA1FBB1F0A94D2F704FFFC
:1014D00010C00FE010E020E030E004C0000F111F4A
:1014E000221F331F4A95D2F700951095209530950D
:1014F00003C000E010E09801C695C695C370BC011A
:10150000CD01602B712B822B932BC23049F058F404
:10151000C13019F00E94F70FDAC00E94E50FD7C062
:101520000E940910D4C00E94E30FD1C0DD2319F03E
:101530008C2F817001C08695882309F4C8C0402F84
:10154000429546954770440F440F602F6F70862F69
:1015500090E0A0E0B0E0042E04C0880F991FAA1FFD
:10156000BB1F0A94D2F704FF10C00FE010E020E088
:1015700030E004C0000F111F221F331F4A95D2F71D
:10158000009510952095309503C000E010E098017B
:10159000C695C695C370BC01CD01602B712B822B03
:1015A000932BC23049F058F4C13019F00E94BC109E
:1015B0008EC00E94AA108BC00E94CE1088C00E94CC
:1015C0001D1085C0CF70DD2339F08C2F0E94431091
:1015D000802F0E946C097BC0802F0E9473098C2F82
:1015E0000E94641074C0023F01F128F4003F41F0F2
:1015F000013FA1F03FC0033FF9F0043F39F13AC089
:10160000DD2341F0153008F05EC08C2F8F710E94F1
:10161000891059C0163008F056C0F7CFDD2339F0D5
:101620008C2F8F710E9443104EC0DD23C9F38C2F85
:101630008F710E94641047C0DD2329F08C2F8F71B9
:101640000E942E1040C00E9429103DC0DD2349F0A9
:10165000CF718C2F0E94431063E08C2F0E943C12AC
:1016600032C081E00E945112123068F182E00E9483
:10167000511229C0DD2331F0112391F2802F0E94F5
:10168000580821C0112399F2093349F49FEFE7EE7E
:10169000F3E09150E040F040E1F700C00000802FFF
:1016A0000E94FA0810C04C2F4F70602FC7010E9493
:1016B00034020E94540F0FC04C2F4F70602FC7018F
:1016C0000E94370208C088EF8C0D843020F40E94FD
:1016D00021070E94DE01DD20C9F00E94AE1180FDCD
:1016E00015C0F70112820E94A8110E944310C70181
:1016F0000E94A70B0E94A811DF91CF911F910F911B
:10170000FF90EF90DF90CF900C946410DF91CF9119
:101710001F910F91FF90EF90DF90CF9008950F935E
:101720001F93CF93DF93EC01688179818A810E94B6
:1017300085118C010E94E0100E94D10FB801CE01EA
:101740000E947A09DF91CF911F910F910895CF9355
:10175000DF93EC01988189812B813C81232B31F02F
:101760008F3F31F481E09F3F19F403C081E001C055
:1017700080E080FD19C0CE010E94F70181110CC0EC
:101780000E94B211882381F08A81882369F082E067
:10179000DF91CF910C945112CE010E948F0BCE019C
:1017A000DF91CF910C94C001DF91CF9108950E94F9
:1017B000D9110E94E9110E94071280E090E00E9476
:1017C000470780E090E00C945D07809100019091C4
:1017D00001010E94C3130C94D70B0E94C9110C94F1
:1017E000E50BE92FE295EF704E2F50E0FA013297AA
:1017F000EE30F105B0F4EA59FF4F0C94BF1B803F67
:1018000091F018F4883E68F40EC0843F51F40BC088
:10181000883E48F0813F29F406C093FB882780F971
:10182000089580E0089581E008950E947A110E9451
:10183000F10B0895CF93DF9300D000D01F92CDB766
:10184000DEB70F900F900F900F900F90DF91CF9118
:101850000895CF93DF9300D000D000D0CDB7DEB78E
:1018600026960FB6F894DEBF0FBECDBFDF91CF91A5
:1018700008951F93CF93DF93C0918B0116E0809161
:101880008C01C81799F0D0E01C9FF0011D9FF00D4E
:101890001124E357FE4F408151816281738184811D
:1018A00095810E94290C2196C770E9CFDF91CF91D5
:1018B0001F9108954091BD015091BE016091BF01FB
:1018C0007091C0018091C1019091C2010C94290CCA
:1018D0000F931F93CF93DF938091C20182958F70F6
:1018E00009F05DC08091BF01882309F458C0809140
:1018F0008B0110918C016091BD017091BE01C0916E
:10190000C001D091C10191E06F3F09F090E0292F13
:1019100006E0811709F443C0209721F07F3F21F0B2
:1019200030E003C031E001C0322F90E030FD34C020
:10193000089FF001099FF00D1124DF01A357BE4F4E
:1019400011963C911197371327C03C91361324C050
:1019500012963C91129731111FC013964D915C91D4
:1019600014974C1B5D0B483C5105B0F48091C201AB
:101970008F7080618093C201EE56FE4F80818F7020
:10198000806180838DEB91E00E94A70BDF91CF9166
:101990001F910F910C94390C01968770BACFDF918B
:1019A000CF911F910F9108959F92AF92BF92CF92C6
:1019B000DF92EF92FF920F931F93CF93DF93CDB7F8
:1019C000DEB761970FB6F894DEBF0FBECDBF8C01B6
:1019D00085E0F801DE011D9601900D928A95E1F7F0
:1019E000F80140815181E2809091BD016091BE017A
:1019F0002091C0013091C1012115310531F06F3FB7
:101A000031F481E09F3F19F403C081E001C080E020
:101A1000F82FF1709F2E80FD46C1F801A380B4809D
:101A20008DEBC82E81E0D82EF090BF01F501E21BAE
:101A3000F30BFF2009F4DFC08091C201E83CF105FF
:101A400008F09BC0282F207F09F052C0561313C006
:101A5000491311C0FE2CE1100EC08F70806180937D
:101A6000C2010E945A0CC6010E94A70B8091C201BC
:101A7000F801858358C1AB2831F05F3F31F481E034
:101A80004F3F19F403C081E001C080E080FD03C036
:101A900081E08E2502C080E090E0F82FF170FF2EEB
:101AA00080FF1CC080918B0120918C0136E0821751
:101AB00009F417C190E0389FF001399FF00D11240F
:101AC000E357FE4F6181561306C06081461303C081
:101AD0006281E61203C001968770E9CFFE2CEE20EA
:101AE00009F421C18091C20181608093C2015AC072
:101AF000561306C0491304C0E11002C0F8019FC08C
:101B00004D875E878D859E850E94150C882379F10F
:101B1000EE2069F12091C201822F82958F7090E0B2
:101B2000029774F08091BD019091BE0198878F83D8
:101B30001986BB86AA862C87CE0107960E94A70B22
:101B400086E0F801ADEBB1E001900D928A95E1F7E6
:101B50000E94680C0E945A0C0DC0561729F14D873F
:101B60005E878D859E850E94150C81112CC0C80151
:101B70000E94A70BFF24F394D6C0282F207F69F77B
:101B80007A2DB98AA88A6E2D89890E941A0C8DEB4C
:101B900091E00E94A70B86E0F60111928A95E9F781
:101BA0000E945A0CF12CBFC04913D9CFE110D7CFF6
:101BB000F8018583C8010E94A70B86E0F601119207
:101BC0008A95E9F7B0C0EE2091F22091C201822FF0
:101BD00082958F7090E002970CF4B2CF8091BD0196
:101BE0009091BE019A8389831B82BD82AC822E8331
:101BF000CE010196A3CFE83CF10508F047C0FE2CCA
:101C0000EE2009F4B4CF561330C049132EC02091F2
:101C1000C20120FD21C0822F82958F70482F50E095
:101C200041155105C9F0F80125834F30510541F0A8
:101C30008F5F982F9295907F822F8F70892B85834D
:101C4000C8010E94A70B86E0F801ADEBB1E001905E
:101C50000D928A95E1F742C086E0F801ADEBB1E064
:101C600001900D928A95E1F75EC04D875E878D8564
:101C70009E850E94150C811163CF8091C201816005
:101C80008093C201C8010E94A70B4DC07A2DB98A6A
:101C9000A88A6E2D89890E941A0C86E0F60111929D
:101CA0008A95E9F71BC0EE2009F461CF4D875E8766
:101CB0008D859E850E94150CF82E882309F457CF38
:101CC00086E0F801ADEBB1E001900D928A95E1F765
:101CD0008DEB91E00E9452080E94680C0E945A0C01
:101CE00022C04D875E878D859E850E947A11292F9F
:101CF00022952F70223028F49F7039F0811105C091
:101D00000BC0243028F49F7049F4805E883020F0A6
:101D1000C8010E94A70B9F2CF92C05C0F8019581E2
:101D2000907F99F7F9CF8F2D61960FB6F894DEBFAB
:101D30000FBECDBFDF91CF911F910F91FF90EF901C
:101D4000DF90CF90BF90AF909F9008951F93CF9357
:101D5000DF93CDB7DEB72C970FB6F894DEBF0FBE7A
:101D6000CDBF4F83588769877A878B879C87CE0141
:101D700007960E94D40C8823D1F09F8188852A85FC
:101D80003B85232B31F08F3F31F481E09F3F19F4E5
:101D900003C081E001C080E080FD47C04F815885CD
:101DA00069857A858B859C850E94290C3EC086E0DA
:101DB000FE013796DE01119601900D928A95E1F7AA
:101DC000FF81E8856A857B856115710531F0EF3FFC
:101DD00031F481E0FF3F19F403C081E001C080E0ED
:101DE00080FD23C020918C0130E0C90101968770ED
:101DF000992740918B0150E084179507F1F1F98301
:101E0000EA837D836C8396E0929FD001939FB00D0F
:101E10001124A357BE4FFE01319601900D929A9561
:101E2000E1F780938C010E94390C16E080918B01C0
:101E300090918C01891771F1189FC001112483576B
:101E40009E4F0E94D40C882329F1E0918B011E9FA4
:101E5000F0011124E357FE4F40815181628173816B
:101E6000848195810E94290C80918B0190E00196DC
:101E70008770992780938B01D9CF0E94ED0B109228
:101E80008C0110928B01EDEBF1E086E0DF011D92F9
:101E90008A95E9F72C960FB6F894DEBF0FBECDBF3A
:101EA000DF91CF911F910895EF92FF920F931F93AF
:101EB000CF93DF938C01892B09F46CC0F12CEE24B5
:101EC000E394E8012196F8018491843740F484304A
:101ED00008F051C0813081F0823019F15BC0853744
:101EE00009F444C0A8F19CE7980F903708F052C05D
:101EF0008F770E94FA0841C00E5F1F4FFE01849148
:101F000090E2980F983050F48770FE2D01C0FF0FBB
:101F10008A95EAF78F2F0E94DC1114C00E9458089E
:101F20002DC00E5F1F4FFE01849190E2980F9830F4
:101F300060F48770FE2D01C0FF0F8A95EAF78F2F9E
:101F40000E94E2110E94071219C00E94FA0816C0EE
:101F50000E5F1F4FFE01C491CC2381F08FE99FE0FB
:101F60000197F1F700C00000C150F6CF0E5F1F4F80
:101F7000FE01F49003C00E9458088E018F2D882323
:101F800009F49FCFEFE9FFE03197F1F700C00000BF
:101F90008150F5CFDF91CF911F910F91FF90EF907E
:101FA0000895089508950C94D20F0C94D30F0E94B5
:101FB000D50F6093D1017093D2018093D301909398
:101FC000D4010C94D70B0C94D70F0F931F9300914F
:101FD000D1011091D2012091D3013091D401602B15
:101FE000712B822B932B1F910F910C94D70F0F9372
:101FF0001F930091D1011091D2012091D301309112
:10200000D40160237123822393231F910F910C9499
:10201000D70F0F931F930091D1011091D2012091FE
:10202000D3013091D40160277127822793271F9114
:102030000F910C94D70F0C94D20F0E941B10609339
:10204000CD017093CE018093CF019093D0010C9479
:10205000D70B60E070E0CB010C941D100F931F9321
:1020600041E050E060E070E08A019B0104C0000F95
:10207000111F221F331F8A95D2F7C901B8011F9182
:102080000F910C941D100F931F9341E050E060E0FE
:1020900070E004C0440F551F661F771F8A95D2F762
:1020A0008091CD019091CE01A091CF01B091D0014E
:1020B0008A019B01082B192B2A2B3B2BC901B80144
:1020C0001F910F910C941D100F931F9341E050E04E
:1020D00060E070E004C0440F551F661F771F8A95AB
:1020E000D2F740955095609570958091CD01909173
:1020F000CE01A091CF01B091D0018A019B010823AC
:1021000019232A233B23C901B8011F910F910C9475
:102110001D100F931F9341E050E060E070E004C099
:10212000440F551F661F771F8A95D2F78091CD0106
:102130009091CE01A091CF01B091D0018A019B0175
:10214000082719272A273B27C901B8011F910F919A
:102150000C941D100F931F930091CD011091CE018F
:102160002091CF013091D001602B712B822B932BCA
:102170001F910F910C941D100F931F930091CD018F
:102180001091CE012091CF013091D00160237123B5
:10219000822393231F910F910C941D100F931F9373
:1021A0000091CD011091CE012091CF013091D0014D
:1021B00060277127822793271F910F910C941D1080
:1021C00008952AE0929F800D1124E82FE695E69568
:1021D000E695877051E001C0550F8A95EAF785E0D2
:1021E000E89FF0011124ED53FE4F20E030E070E055
:1021F0004081CB01022E02C0969587950A94E2F7A2
:102200008170819584278523842781932F5F3F4F99
:102210002530310569F708952AE0929F800D112439
:10222000682F669566956695982F977085E0689FEC
:10223000B001112440E050E080E0FB01E40FF51F05
:10224000ED53FE4F208130E0092E02C036952795D0
:102250000A94E2F721703327042E01C0220F0A945A
:10226000EAF7822B4F5F5F4F4530510531F70895F4
:10227000BF92CF92DF92EF92FF920F931F93CF9373
:10228000DF938C01C090CD01D090CE01E090CF01C2
:10229000F090D0018091D1019091D201A091D30111
:1022A000B091D401C82AD92AEA2AFB2ACFE1D0E08A
:1022B000D701C6010C2E04C0B695A79597958795B2
:1022C0000A94D2F780FD04C0219790F7B12C07C083
:1022D000BC2EB8018C2F0E9453020197A9F38B2DBD
:1022E000DF91CF911F910F91FF90EF90DF90CF90F2
:1022F000BF900895CF93DF93EC010E943811BE0187
:102300000E945302DF91CF9108951F93CF93DF93E3
:10231000EB0190918A01992321F0CB010E947A115F
:1023200013C0882349F0CB010E943811182F682F61
:10233000CE010E94E11004C0CB010E940C11182FA5
:10234000BE01812F0E945302DF91CF911F9108950A
:102350008091D50185958595859508958091D501C4
:10236000877008959091D501977081E009F480E01D
:1023700008958091F90108959091F901892B809336
:10238000F901089580959091F90189238093F901CD
:1023900008951092F90108959091F801892B809386
:1023A000F801089580959091F80189238093F801B0
:1023B00008951092F80108959091F701892B809368
:1023C000F701089580959091F70189238093F70193
:1023D00008951092F70108958091D6010895089507
:1023E0000C94EF110C94F0119091D601981721F0F4
:1023F0008093D6010C94F21108958091D601882320
:1024000029F01092D60180E00C94F2110895E09129
:102410000001F09101018091F9018083E0910001B8
:10242000F091010190818091F801892B8083E091E6
:102430000001F091010190818091F701892B808347
:102440008091D601882381F0E0910001F091010193
:102450009081892B808380910001909101010E94DD
:10246000171381110E94FD118091000190910101CB
:102470000C942D070C94EF1198E0899F9001112482
:10248000262B2093D5010E9443108091D50185957C
:10249000859585950C943A121092D50180E00C94A4
:1024A0003A122091D501809582238093D501982FEF
:1024B000977079F430E0482F082E000C550B241744
:1024C000350739F08595859585950E9464100C94A3
:1024D0004C1208956FEF7FEF80E090E00C94F11BB9
:1024E00080E090E00E94CD1B21E08C3E9E4F09F0E1
:1024F00020E0822F089582E090E00C94C51B83E0D9
:1025000090E00C94C51BCF9384E090E00E94C51B23
:10251000C82F81E290E00E94C51B2C2F30E0A9015A
:10252000582BCA01CF910895CF93C92F682F84E00B
:1025300090E00E94D31B6C2F81E290E0CF910C942D
:10254000D31BAB01BC018FE090E00C94E51BAB0109
:10255000BC0183E190E00C94E51B60E070E0CB01EE
:102560000C94A71260E070E0CB010E94A1120C94C1
:10257000AD126CEE7EEF80E090E00E94F11B60E017
:1025800082E090E00E94D31B60E083E090E00E9434
:10259000D31B1092D1011092D2011092D30110924C
:1025A000D40160E084E090E00E94D31B60E081E20F
:1025B00090E00E94D31B60E085E090E00E94D31B76
:1025C00060E086E090E00E94D31B6FEF87E090E030
:1025D0000E94D31B40E050E0BA0188E090E00E94E6
:1025E000E51B60E08DE090E00E94D31B40E050E0EE
:1025F000BA0188E190E00E94E51B60E087E190E08D
:102600000E94D31B40E050E0BA018CE190E00E94B0
:10261000E51B60E080E290E00E94D31B0C94B212B4
:102620000C94B912682F8EE090E00C94D31BFC013F
:10263000329680910C01882331F08091270287FF28
:1026400002C09EE101C096E080E0915028F0219107
:102650002223D9F38F5FF9CF0895662351F120919A
:102660000C012223E9F02091270227FF19C0462FF1
:102670004695469546954E31E0F4677021E030E08E
:1026800002C0220F331F6A95E2F7FC01E40FF11D2F
:10269000828190E02823392381E0232B69F409C04B
:1026A000FC01329608962191621729F0E817F90784
:1026B000D1F780E0089581E008959C01FC013296F5
:1026C0009FEF80E04191461789F09F3F19F4411137
:1026D00001C0982F8F5F8630A9F79F3F39F0F9012D
:1026E000E90FF11D97FDFA956283089508959C0105
:1026F0002A5F3F4FFC014281461301C012820196BE
:1027000082179307B9F70895262F269526952695C3
:102710002E3168F4FC01E20FF11D677021E030E01A
:1027200001C0220F6A95EAF78281282B228308953F
:10273000262F2695269526952E3170F4FC01E20F62
:10274000F11D677021E030E001C0220F6A95EAF7C1
:102750002095828128232283089520910C01222331
:1027600029F02091270227FD0C9484130C945D130B
:1027700020910C01222329F02091270227FD0C949F
:1027800098130C94771320910C01FC0132962223AC
:1027900031F08091270287FF02C08EE101C086E000
:1027A000DF011D928A95E9F7089508950C94D513D9
:1027B0000C94D5130E94D8130E9484040E94D6134F
:1027C00080E00E943C0421E0892B09F420E0822F64
:1027D00008950C94D5130C94E9130E94EB13809187
:1027E0002D02843049F11092FB0120E488E190E051
:1027F0000FB6F894A895809360000FBE20936000F8
:1028000080E00E94DE010E94EB1383B7817F846029
:1028100083BF83B7816083BF7894889583B78E7FA9
:1028200083BF0FB6F894A89580916000886180936B
:102830006000109260000FBE08950C94D5130E94A2
:10284000ED0B0E9421070E94DE010C941D141F92C3
:102850000F920FB60F9211248F939F93AF93BF9354
:102860008091FB01811113C0809123029091240279
:10287000A0912502B09126024196A11DB11D809321
:10288000230290932402A0932502B0932602BF91C5
:10289000AF919F918F910F900FBE0F901F90189541
:1028A00082E084BD93E095BD9AEF97BD80936E0062
:1028B00008952FB7F8948091230290912402A0915B
:1028C0002502B09126022FBF08959C014FB7F894BE
:1028D0008091230290912402A0912502B0912602BA
:1028E0004FBF821B930B089578941F920F920FB6DF
:1028F0000F9211248F939F93AF93BF9380912302E4
:1029000090912402A0912502B09126020196A11D6A
:10291000B11D8093230290932402A0932502B093CB
:102920002602BF91AF919F918F910F900FBE0F9094
:102930001F90189581E08093E00080E28093D8009A
:102940001092C9008FE19EE40197F1F700C00000EA
:1029500087E090EBDC018093360290933702A093DE
:102960003802B09339029CE088E10FB6F894A8953C
:10297000809360000FBE90936000FFCF0C946A12AA
:102980000E9484048FE39CE90197F1F700C00000E6
:102990000E94840480E00E943C0480FF04C00E94E6
:1029A000BE140C949A1408950E947012811102C0F2
:1029B0000E9410130E947B128093FA010E948312DE
:1029C00090932802809327020E947F12682F70E064
:1029D00080E090E00C94E30F80911C02089508952C
:1029E000CF93DF9300D01F92CDB7DEB790912D0229
:1029F000943019F589837B836A8382E08093E900B0
:102A00008FEF9091E800815095FD06C095ED9A9565
:102A1000F1F700008111F5CF8091E80085FF0DC02E
:102A200040E050E063E070E0CE0101960E94211783
:102A30008091E8008E778093E8000F900F900F90C0
:102A4000DF91CF910895CF93DF93EC010E9404179B
:102A5000823011F0843031F4BE0184E0DF91CF91F7
:102A60000C94F014DF91CF910895BC0183E00C9495
:102A7000F014CF93DF93EC010E940417823011F021
:102A80008430D9F580910C01882339F08091270298
:102A900087FF03C060E282E002C068E081E08093CB
:102AA000E9008FEF9091E800815095FD06C095ED0B
:102AB0009A95F1F700008111F5CF8091E80085FF2C
:102AC0001CC080910C01811105C040E050E068E01D
:102AD00070E003C070E040E050E0CE010E9421179A
:102AE0008091E8008E778093E80080E2FE01ACEFF1
:102AF000B1E001900D928A95E1F7DF91CF910895B1
:102B000080912C02811109C00E94B2180E940F19F5
:102B10008091E20084608093E200089510922C027C
:102B20000895089508950C941F1442E061EC81E02B
:102B30000E942B1842E261EC82E00C942B188091E9
:102B40002F02833009F460C030F4813071F082309C
:102B500009F499C008958A3009F485C08B3009F4CE
:102B60006BC0893009F0A7C020C080912E02813A45
:102B700009F0A1C08091E800877F8093E8008091F0
:102B8000320290913302892B21F460E28CEF91E0C4
:102B900003C060E080E090E070E00E946C178091DC
:102BA000E8008B778093E800089580912E028132AF
:102BB00009F081C08091320290913302029708F0AF
:102BC0007AC08091E800877F8093E8008091E800D8
:102BD00082FD05C080912D028111F8CF6CC020913B
:102BE000F3008091F20090E0922B029729F48091FB
:102BF000F1008B7F813021F48091F10080931C02E1
:102C00008091E8008B7753C080912E02813A09F0C1
:102C100052C08091320290913302892B09F04BC04F
:102C20008091E800877F8093E8008091E80080FF32
:102C3000FCCF80910C0136C080912E028132D9F5F3
:102C40008091320290913302892BA9F58091E8009E
:102C5000877F8093E8000E94601880913002809303
:102C60000C010C94ED0B80912E02813221F58091A4
:102C7000E800877F8093E8000E946018809131020D
:102C800080931D02089580912E02813AA1F48091D3
:102C9000E800877F8093E8008091E80080FFFCCF08
:102CA00080911D028093F1008091E8008E778093DF
:102CB000E8000C946018089584B7877F84BF0FB62E
:102CC000F894A895809160008861809360001092CC
:102CD00060000FBE90E080E80FB6F894809361002A
:102CE000909361000FBE0E9483070E94B2180E9459
:102CF0000F198091E20084608093E20078940E9432
:102D0000A41B0E948D0782E091E00E941C07809125
:102D10002D02853069F40E94ED1380912B028823E7
:102D2000B1F30E94DA13882391F30E940B17EFCFBF
:102D30000E949507ECCF0C949D16292F3327233042
:102D40003105C9F060F42130310581F022303105C0
:102D500009F04AC08BE390E02AE631E049C0213215
:102D6000310511F12232310579F13EC082E190E066
:102D700025EA31E03DC099278130910561F040F0AE
:102D80008230910559F0039779F5E4E2F1E008C04B
:102D9000E6E6F1E005C0EEE4F1E002C0EAE2F1E0CF
:102DA000849190E09F0124C06115710541F061306C
:102DB0007105D1F489E090E025E931E019C089E09E
:102DC00090E02CE731E014C06115710541F06130ED
:102DD000710551F48DE690E027EB31E009C080E405
:102DE00090E024E232E004C080E090E020E030E0B7
:102DF000FA0131832083089580912D02843011F0EF
:102E000081E0089582E0089580911E02811102C040
:102E10000C94FC16089580E189BD82E189BD09B456
:102E200000FEFDCF8091D8008F7D8093D8008091E7
:102E3000E00082608093E0008091E00081FDFCCFA3
:102E40000895CF92DF92EF92FF920F931F93CF934B
:102E5000DF93EC018B017A010E947F18811133C04E
:102E6000E114F10439F0F70180819181081B190BFD
:102E7000C80FD91FC12CD12C0115110519F1809152
:102E8000E80085FD16C08091E8008E778093E80009
:102E9000E114F10449F0F70180819181C80ED91E37
:102EA000D182C08285E00FC00E947F18882321F361
:102EB0000AC089918093F10001501109FFEFCF1AE8
:102EC000DF0ADACF80E0DF91CF911F910F91FF9061
:102ED000EF90DF90CF900895209134023091350229
:102EE0002617370748F06115710539F42091E8007D
:102EF0002E772093E80001C0B901FC0120E06115A4
:102F0000710579F180912D028823F1F18530F1F17D
:102F10008091E80083FD3CC08091E80082FD2EC0D6
:102F20008091E80080FFEBCF2091F3008091F200C8
:102F300090E0922B6115710551F08830910538F4BD
:102F400021912093F100615071090196F3CF21E0A6
:102F5000089709F020E08091E8008E778093E800E0
:102F6000CECF2111CFCF0AC080912D02882361F0EE
:102F7000853061F08091E80083FD0AC08091E8000F
:102F800082FFF2CF80E0089582E0089583E0089503
:102F900081E00895209134023091350226173707D9
:102FA00048F06115710539F42091E8002E772093DF
:102FB000E80001C0B901FC0120E06115710591F143
:102FC00080912D02882309F440C0853009F43FC068
:102FD0008091E80083FD3DC08091E80082FD2FC014
:102FE0008091E80080FFE9CF2091F3008091F2000A
:102FF00090E0922B6115710559F08830910540F4ED
:1030000024912093F1003196615071090196F2CF1D
:1030100021E0089709F020E08091E8008E77809306
:10302000E800CBCF2111CCCF0AC080912D0288239C
:1030300061F0853061F08091E80083FD0AC08091E5
:10304000E80082FFF2CF80E0089582E0089583E0F7
:10305000089581E00895982F973068F59093E900DE
:10306000981739F07091EC002091ED005091F0002C
:1030700003C0242F762F50E021FD02C09F5FECCFCC
:103080003091EB003E7F3093EB003091ED003D7FBF
:103090003093ED003091EB0031603093EB00709392
:1030A000EC002093ED005093F0002091EE0027FDFE
:1030B000E5CF80E008958F708093E90081E0089566
:1030C00080912E0287FF11C08091E80082FD05C02B
:1030D00080912D028111F8CF11C08091E8008B778B
:1030E0000BC080912D02882349F08091E80080FF79
:1030F000F8CF8091E8008E778093E80008952091C2
:10310000E4003091E50095E64091EC00842F817059
:1031100040FF23C08091E80080FD1DC080912D02FA
:10312000882399F0853099F08091EB0085FD11C0DE
:103130004091E4005091E5002417350729F39150A0
:1031400011F09A01E1CF84E0089582E0089583E0D0
:10315000089581E0089580E008954091E80042FFDD
:10316000DDCF08950E9420190E942819E0EEF0E0BA
:10317000808181608083E8EDF0E080818F778083BB
:1031800019BCA7EDB0E08C918E7F8C9380818F7EEF
:10319000808310922C0208950F931F93CF93DF9397
:1031A0000E9420190E942819C8EDD0E088818F77ED
:1031B000888388818068888388818F7D888319BC13
:1031C00010922D021092290210922B0210922A02C4
:1031D00000EE10E0F80180818B7F80838881816020
:1031E000888342E060E080E00E942B18E1EEF0E08E
:1031F00080818E7F8083E2EEF0E080818160808339
:10320000808188608083F80180818E7F80838881BF
:1032100080618883DF91CF911F910F910895E8ED30
:10322000F0E080818F7E8083E7EDF0E08081816037
:10323000808384E082BF81E080932C020C94CC18C0
:10324000E8EDF0E080818E7F80831092E2000895A7
:103250001092DA001092E10008951F920F920FB6BB
:103260000F9211242F933F934F935F936F937F930C
:103270008F939F93AF93BF93EF93FF938091E10060
:1032800082FF0BC08091E20082FF07C08091E100C5
:103290008B7F8093E1000E94A31B8091DA0080FF66
:1032A0001FC08091D80080FF1BC08091DA008E7F04
:1032B0008093DA008091D90080FF0DC080E189BD44
:1032C00082E189BD09B400FEFDCF81E080932D022B
:1032D0000E94801505C019BC10922D020E948E1507
:1032E0008091E10080FF19C08091E20080FF15C04D
:1032F0008091E2008E7F8093E2008091E200806105
:103300008093E2008091D80080628093D80019BC3D
:1033100085E080932D020E9492158091E10084FF48
:1033200030C08091E20084FF2CC080E189BD82E141
:1033300089BD09B400FEFDCF8091D8008F7D8093B8
:10334000D8008091E1008F7E8093E1008091E200BF
:103350008F7E8093E2008091E20081608093E200A2
:1033600080912902882311F084E007C08091E30056
:1033700087FD02C081E001C083E080932D020E949E
:1033800093158091E10083FF29C08091E20083FFC3
:1033900025C08091E100877F8093E10082E08093E7
:1033A0002D02109229028091E1008E7F8093E1002E
:1033B0008091E2008E7F8093E2008091E200806144
:1033C0008093E20042E060E080E00E942B18809150
:1033D000F00088608093F0000E949115FF91EF91BA
:1033E000BF91AF919F918F917F916F915F914F911D
:1033F0003F912F910F900FBE0F901F9018951F9225
:103400000F920FB60F9211242F933F934F935F9318
:103410006F937F938F939F93AF93BF93CF93DF93DC
:10342000EF93FF93C091E900CF708091EC00D82F0B
:10343000D17080FDD0E81092E9008091F000877F84
:103440008093F00078940E94431A1092E9008091D2
:10345000F00088608093F000CD2BCF70C093E9001E
:10346000FF91EF91DF91CF91BF91AF919F918F919C
:103470007F916F915F914F913F912F910F900FBE70
:103480000F901F9018951F93CF93DF93CDB7DEB7A2
:10349000AA970FB6F894DEBF0FBECDBFEEE2F2E002
:1034A0008091F100819322E0E633F207C9F70E9490
:1034B0009F158091E80083FF2EC180912E0290918C
:1034C0002F02492F50E04A30510508F024C1FA017B
:1034D000EC58FF4F0C94BF1B803821F0823809F064
:1034E0001AC108C080912A0290912B02992389F079
:1034F00082600FC0809132028F70873008F00BC15C
:103500008093E9008091EB0085FB882780F9109279
:10351000E9009091E800977F9093E8008093F10094
:103520001092F100D1C0282F2D7F09F0F4C088231C
:1035300019F0823061F0EFC080913002813009F0E3
:10354000EAC0933009F080E080932B022EC0809176
:10355000300281112AC0809132028F702FEF280F24
:10356000263008F0D8C08093E9002091EB0020FFBE
:103570001CC0933021F48091EB00806214C09091C4
:10358000EB0090619093EB0021E030E0A90102C0D4
:10359000440F551F8A95E2F74093EA001092EA0023
:1035A0008091EB0088608093EB001092E90080919D
:1035B000E800877F8093E8000E946018ACC081110A
:1035C000AAC0109130021F778091E3008078812B90
:1035D0008093E3008091E800877F8093E8000E9459
:1035E00060188091E80080FFFCCF8091E300806844
:1035F0008093E300111102C082E001C083E0809358
:103600002D0289C08058823008F085C08091300238
:10361000909131028C3D53E0950779F583E08A83E0
:103620008AE289834FB7F894DE01139620E03EE0EA
:1036300051E2E32FF0E050935700E49120FF03C0E4
:10364000E295EF703F5FEF708E2F90E0EA3010F060
:10365000C79601C0C0968D939D932F5F243149F783
:103660004FBF8091E800877F8093E8006AE270E0B6
:10367000CE0101960E946C1716C0609132027091C3
:103680003302AE014F5F5F4F0E949B16BC01892B36
:1036900009F441C09091E800977F9093E8008981F8
:1036A0009A810E94CA178091E8008B778093E80086
:1036B00032C0803881F58091E800877F8093E800F0
:1036C000809129028093F1008091E8008E7772CF7B
:1036D000811121C080913002909131029927029787
:1036E000D4F48091E800877F8093E80080913002D5
:1036F000809329020E94601880912902811106C0DE
:103700008091E30087FD02C081E001C084E08093E6
:103710002D020E9495158091E80083FF0AC08091D8
:10372000E800877F8093E8008091EB0080628093BF
:10373000EB00AA960FB6F894DEBF0FBECDBFDF91A7
:10374000CF911F9108950895CF9380912D028823E2
:10375000A1F0C091E900CF709091EC00892F8170A9
:1037600090FD80E8C82B1092E9008091E80083FD6D
:103770000E94431ACF70C093E900CF910895EE0FD5
:10378000FF1F0590F491E02D0994F999FECF92BDA9
:1037900081BDF89A992780B50895A8E1B0E042E08C
:1037A00050E00C94F91B262FF999FECF92BD81BDF4
:1037B000F89A019700B4021639F01FBA20BD0FB66F
:1037C000F894FA9AF99A0FBE08950396272F0E944B
:1037D000D41B0E94D31B252F0E94D41B242F0C9492
:1037E000D41B0196272F0E94D41B0C94D31BDC0101
:1037F000CB01FC01F999FECF06C0F2BDE1BDF89AFC
:10380000319600B40D9241505040B8F70895F894A5
:02381000FFCFE8
:10381200D701EC143915EF143515231501E200E92F
:1038220000EA00B500B600B700CD008301CC008AE3
:103832000192019401210223022402250226022779
:10384200022A02B300B4006F0070008182839736AF
:10385200F09635F19434F4F5E200E900EA00B5009F
:10386200B600B700CD008301CC008A019201940119
:103872002102230224022502260227022A02B30081
:0A388200B4006F0070008182830023
:00000001FF
