:020000040800F2
:1000000000040020E101000847640008E301000843
:10001000E3010008E3010008E3010008E301000830
:10002000E3010008E3010008E3010008E301000820
:10003000E3010008E3010008E3010008E301000810
:10004000E3010008E3010008E3010008E301000800
:10005000E3010008E3010008E3010008E3010008F0
:10006000E301000875720008ED6F00080D700008CC
:10007000E3010008E3010008E30100084D770008F0
:100080009D790008E3010008E30100080D54000811
:10009000E3010008E3010008E3010008D973000848
:1000A000E3010008E3010008E3010008E3010008A0
:1000B000E3010008E3010008E3010008ED7900080E
:0800C000F1000008C90000086E
:1000C80010B5064C2378002B07D1054B002B02D026
:1000D800044800E000BF0123237010BD000E00207B
:1000E800000000009C960008044B10B5002B03D0BC
:1000F8000349044800E000BF10BDC04600000000EE
:10010800040E00209C96000872B6244880F30888E4
:10011800234880F30988022080F31488BFF36F8F87
:1001280005F094FE07F03CFF1E481F491B4A914208
:1001380002DA08600431FAE71C49194A914202DAE6
:1001480008600431FAE71A491A4A1B4B9A4204DA42
:100158000868106004310432F8E700201749184A8B
:10016800914202DA08600431FAE705F073FE05F0FF
:100178006EFE144C144DAC4203DA216888470434EF
:10018800F9E705F03BFC114C114DAC4203DA21684C
:1001980088470434F9E70F490847000000040020A5
:1001A800000C002055555555000000200004002083
:1001B8009C960008000C0020FC0D0020000E00207A
:1001C8001C1D0020C0000008C4000008C40000086E
:1001D800C8000008595E000896E700F000F8FEE73E
:1001E800F0B544464D4656465F46F0B46B46CB6084
:1001F800C3689D46F0BCA046A946B246BB46F0BDC2
:1002080062B6281CA047002006F056F805F0FAFF51
:10021800014A024B1360FEE704ED00E00000008095
:1002280002B4714649084900095C49008E4402BC81
:100238007047C04603B47146490840004900095E4A
:1002480049008E4403BC704703B471464908400016
:100258004900095A49008E4403BC704700224308EC
:100268008B4274D303098B425FD3030A8B4244D376
:10027800030B8B4228D3030C8B420DD3FF220902B8
:1002880012BA030C8B4202D31212090265D0030B77
:100298008B4219D300E0090AC30B8B4201D3CB036D
:1002A800C01A5241830B8B4201D38B03C01A5241AF
:1002B800430B8B4201D34B03C01A5241030B8B42B1
:1002C80001D30B03C01A5241C30A8B4201D3CB029C
:1002D800C01A5241830A8B4201D38B02C01A524181
:1002E800430A8B4201D34B02C01A5241030A8B4284
:1002F80001D30B02C01A5241CDD2C3098B4201D39C
:10030800CB01C01A524183098B4201D38B01C01A19
:10031800524143098B4201D34B01C01A5241030990
:100328008B4201D30B01C01A5241C3088B4201D33F
:10033800CB00C01A524183088B4201D38B00C01AEC
:10034800524143088B4201D34B00C01A5241411A13
:1003580000D20146524110467047FFE701B5002020
:1003680000F0F0F802BDC0460029F7D076E77047E4
:1003780003460B437FD4002243088B4274D30309FE
:100388008B425FD3030A8B4244D3030B8B4228D39F
:10039800030C8B420DD3FF22090212BA030C8B42C5
:1003A80002D31212090265D0030B8B4219D300E065
:1003B800090AC30B8B4201D3CB03C01A5241830BEA
:1003C8008B4201D38B03C01A5241430B8B4201D39A
:1003D8004B03C01A5241030B8B4201D30B03C01AC3
:1003E8005241C30A8B4201D3CB02C01A5241830A3D
:1003F8008B4201D38B02C01A5241430A8B4201D36C
:100408004B02C01A5241030A8B4201D30B02C01A95
:100418005241CDD2C3098B4201D3CB01C01A5241FC
:1004280083098B4201D38B01C01A524143098B4285
:1004380001D34B01C01A524103098B4201D30B016E
:10044800C01A5241C3088B4201D3CB00C01A524193
:1004580083088B4201D38B00C01A524143088B4258
:1004680001D34B00C01A5241411A00D201465241F1
:10047800104670475DE0CA0F00D04942031000D310
:100488004042534000229C4603098B422DD3030A65
:100498008B4212D3FC22890112BA030A8B420CD375
:1004A800890192118B4208D3890192118B4204D39E
:1004B80089013AD0921100E08909C3098B4201D31E
:1004C800CB01C01A524183098B4201D38B01C01A58
:1004D800524143098B4201D34B01C01A52410309CF
:1004E8008B4201D30B01C01A5241C3088B4201D37E
:1004F800CB00C01A524183088B4201D38B00C01A2B
:100508005241D9D243088B4201D34B00C01A524101
:10051800411A00D20146634652415B10104601D38E
:100528004042002B00D54942704763465B1000D318
:10053800404201B5002000F005F802BD0029F8D0BE
:1005480016E770477047C046002B11D1002A0FD11B
:10055800002900D1002802D00021C943081C07B493
:10056800024802A14018029003BDC046D9FFFFFF10
:1005780003B4684601B5029800F030F8019B9E4626
:1005880002B00CBC7047C046F0B5CE4647461504CD
:100598002D0C2E0080B50704140C3F0C9946030C53
:1005A8007E435D43674363437F19340CE4199C46DB
:1005B800A54203D980235B029846C4444B46434373
:1005C8005143250C36046544360C2404A4195B19E0
:1005D800591820000CBC90469946F0BDF0B5574616
:1005E8004E464546DE46E0B5040083B00D0092460F
:1005F80099468B4230D82DD04946504600F0C0F875
:1006080029000600200000F0BBF8331A9846203B6A
:100618009B4633D45A465346934042461F0053469E
:1006280093401E00AF423AD8AF4200D17BE05B4610
:10063800A41BBD41002B00DA78E0002200230092C1
:10064800019301235A469340019301234246934064
:10065800009328E08242CFD9002200230092019320
:100668000C9B002B01D01C605D600098019903B0C1
:100678003CBC90469946A246AB46F0BD4246202374
:100688009B1A5246DA40414613004A468A401700F0
:1006980042461F43534693401E00AF42C4D900222E
:1006A8000023009201934346002BD9D0FB079C46B8
:1006B800614672080A437B0846460EE0AB4201D108
:1006C800A2420CD8A41A9D41012024196D41002191
:1006D800013E24184D41002E06D0AB42EED9013E12
:1006E80024196D41002EF8D1009801995B46001934
:1006F8006941002B25DB2B005A464446D3402A008B
:10070800E2401C005B461500002B2BDB26005F46F1
:10071800BE40330026004746BE403200801A994149
:10072800009001919CE7A342B9D880E74246202374
:1007380000219B1A0022009101920122DA400192C5
:1007480083E7424620239B1A2A0046469A40230004
:10075800F340444613432A00E2401C005B46150060
:10076800002BD3DA2023424626009B1ADE402F00B6
:10077800B4464646B74066463B003343CAE7C046E0
:1007880010B5002903D100F007F8203002E0081C5A
:1007980000F002F810BDC0461C2101231B0498423A
:1007A80001D3000C10391B0A984201D3000A0839FA
:1007B8001B09984201D30009043902A2105C4018B1
:1007C8007047C04604030202010101010000000055
:1007D8000000000010B5041C00F071F800280FD0CC
:1007E80090230122DB05E1070BD41A830222A1071B
:1007F80009D41A8390230422DB05610705D41A83E0
:1008080010BD5A83F2E75A83F4E75A83F8E70120C8
:1008180070470120704710B5FFF7FBFF10BD704708
:1008280010B5FFF7FCFF10BD13B50F4B00901B78F8
:10083800002B14D16B469B78002B0BD003F064F986
:1008480004000100009803F019F92000009900F055
:10085800ADF816BD009803F037F90400F5E70098E5
:1008680003F052F90099F2E70C180020020010B5C5
:10087800538800881B0418439188FFF7D5FF10BDE3
:1008880010B50400FFF7F2FF2100FFF7C9FF10BD04
:1008980010B503F045FE03F0ADFA002801D103F0CE
:1008A8003FFB01F001FE00F05CFA10BD10B500F04E
:1008B8005DFA10BD704710B5FFF7FCFF10BD0120B1
:1008C800704710B50400FFF7F6FF201CFFF782FF02
:1008D80010BD704710B502F0E1FCFFF7FAFF0348BE
:1008E80005F0EFFC03F074FC10BDC046C40900001D
:1008F80070B50400FFF7BAFF21000500FFF78BFF72
:10090800002801D1002070BD2100280001F0D0FC92
:100918000028F7D02100280001F0C6FE0028F1D0F9
:100928002100280001F00CFF0028EBD0210028004E
:1009380002F016F80028E5D02100280001F0C0FADE
:100948000028DFD0A378002B1ED0114B9D4208D081
:10095800104B9D4215D0DE3B9D4215D1FFF7BAFFE3
:10096800D0E701220C490D480B78DC07E40F54400E
:1009780093431C430C70144000D0094803F0B8FDA1
:10098800C0E703F0CDFABDE72000FFF740FFBAE764
:10099800015C0000DE5C0000BF180020CD8100086B
:1009A800BC810008002070477047000005234343BE
:1009B8000A04120E9B18C9B21B015B18024A5B009D
:1009C800D05A82B002B070477C800008014B4000CA
:1009D800185A70471082000837B501AB1980019981
:1009E800FFF7E4FF00F0ECF8624B0400984233D8BC
:1009F8008023DB01984200D390E0E72819D8E0284B
:100A080022D2A7280BD8A52800D36BE001281BD039
:100A180003B2002B01D0042816D2002414E0BE280B
:100A280066D9C028F9D3C03880B2FFF7CFFF0400D9
:100A38000AE0514B984209D8FF2862D8F028ECD335
:100A4800A020C0010443A4B2201C3EBD4B4B9842D9
:100A58005CD80005000DE8E7494B984219D8A82250
:100A6800C3B2D201904275D2464A904205D8FF3AA5
:100A7800904258D31C02444841E0444A904260D80E
:100A8800032498082340023C9C4040012043404CEA
:100A9800D8E7404B98420FD8FF3B98425DD23E4B77
:100AA8009842BAD8C0B200F007F9F82400026401ED
:100AB80020400134FF3422E0384B984250D9384B5B
:100AC8002D4AC3189BB29342A7D8C004C00E00F0A9
:100AD800F3F8F82300025B011840E4B204438020D5
:100AE80080010CE05B342F4AE4B2145D1C43ABE791
:100AF8005834E4B22C4B6400E05A8824E4010443DF
:100B0800A2E7000A80B20002E4B29BE7C3B2020582
:100B180002D5C8242402E9E7C024FBE7234804409F
:100B2800A0200002EBE7040903209A0804400240D1
:100B380003400238984024025201144304431448E5
:100B480080E7032498082340023C9C40400120434E
:100B5800174C77E71B02174CC8E70002164C71E7E1
:100B68000F25284000F0A8F824092C40240204434B
:100B7800124867E7FF4F0000FF1F0000FF2F00002B
:100B8800FF540000FF510000F1A00000FF520000D8
:100B9800008CFFFFFF580000FF550000FF590000C0
:100BA80000A0FFFFDF810008E2810008FF0F0000BE
:100BB800008AFFFFF4A00000F0A0FFFF0090FFFFF5
:100BC80010B582280CD011D8312861D004D8292832
:100BD80058D02A2862D010BD35284DD03928FAD1EE
:100BE800344B1B789B07F6D0E020F4E7E32827D0A6
:100BF8000BD8E02816D0E228EDD12E4B1B785A07E7
:100C0800E9D5E320DB0619D4E5E7E62826D0E7286E
:100C180029D0E428DFD1274B5A789207DBD51B78F7
:100C2800E720EFE7234C0121227813000B403BD14A
:100C380064780C42CFD0E320D206CCD50020CAE796
:100C48001C4A1378590731D45278D207CCD41022D1
:100C580013405A4253415B421840BCE7154B1B787E
:100C68001A07DDD4B7E7134A1378190720D4527846
:100C78009207ECD5E420AEE70E4B1B789B06AAD56D
:100C88002920A8E70B4B1B789B06A4D53520A2E7A3
:100C9800084B1B785B069ED52A209CE7054B1B78E2
:100CA8005B0698D5312096E7392094E7E22092E751
:100CB800E62090E7CC18002030B5042427490A78AC
:100CC800224205D018230340082B27D198432043FC
:100CD800130708D51824050014232540A54225D15B
:100CE800A843C0B2184301244978214206D01823EA
:100CF8000340082B21D19843C0B220438B0708D565
:100D08001821040011230C408C421FD1A043C0B20B
:100D18001843D30601D5E723184030BD14230340F8
:100D2800042BD5D1984304331843D1E70340142B3F
:100D3800D9D19843C0B22043D5E711230340012BF2
:100D4800DCD19843C0B207331843D7E70340112BCF
:100D5800DFD19843C0B20843DBE7C046CC18002077
:100D6800704710B5FFF7FCFF10BD704710B5FFF7CF
:100D7800FCFF10BD014B4000185A70471C0E0020A4
:100D880010B50D4803F0B4FB002421000B4803F014
:100D9800AFFB0B4803F0ACFB0A4B6200D05A03F0E0
:100DA80012F80100084803F0A3FB0134074803F0D8
:100DB8009FFB052CE9D110BD10820008278200088E
:100DC8008F8F00081C0E00202C820008198500084F
:100DD80010B5012005F075FA10BD0000F8B5194CE2
:100DE8000F2526000127143601CC390003002B40BB
:100DF8009940A843202206F046FAA642F4D1124CA4
:100E08000F2526000127403601CC390003002B406E
:100E18009940A843202206F036FAB442F4D10023C0
:100E28000A490B4A05200B8013804B8053808B8026
:100E38009380CB80D3800B81138100F067F8FFF794
:100E480027FDF8BD7482000834820008260E0020B1
:100E58001C0E0020F0B50027274C284E85B02388AB
:100E68000F210393336800251A008A430192012257
:100E78000B409A400292029901220198258006F0BF
:100E880002FA6B46019A1B895383FFF7A1FF1C4A9C
:100E9800238894466146AA0052580F2011008143C6
:100EA80009690240D1400E381BB20022014202D12A
:100EB8000200AA4012B2134301359BB2102DE9D1AA
:100EC800238020220299019806F0DDF92388039AED
:100ED80002349B1A5A1E93411F430A4B04369C4204
:100EE800BDD13B0005220849034800F011F8FFF77F
:100EF800DDFC380005B0F0BD260E00207482000825
:100F080034820008300E00201C0E002070470000BC
:100F1800F8B505000E0017000E4C002B05D0012374
:100F2800237003F049F90C4B18802378002B0BD061
:100F3800094B188803F045F9052805D900237F00D7
:100F4800BB4202D100232370F8BDEA5AF2520233A1
:100F5800F6E7C046300E0020320E002010B500F033
:100F680061F9014810BDC046FF0F000010B50648E2
:100F780000F014F9054800F011F9054800F00EF9E1
:100F8800044800F00BF910BD00E0010800E8010872
:100F980000F0010800F801081C4BF7B50D00984255
:100FA80001D90020FEBD1A4A43009F1801933A88D0
:100FB800184B84129A4205D189B2380000F00EF914
:100FC80080B2EFE78022124B134EE402E4181201BC
:100FD8002100300007F038F83B789D42E1D00F48F7
:100FE800019B802703402000F55400F0D7F8002526
:100FF8003F01735D0A4919434B1C03D089B260193C
:1010080000F0ECF80235BD42F3D1D9E7FF0F00003C
:1010180000E00108FFFF0000340E0020FE0700007A
:1010280000FFFFFF034B80B24000C0180078C0B239
:101038007047C04600E0010810B580B2FFF7ACFF6A
:1010480010BD0000064983B25B005B1801301A78B6
:1010580083B25B005B181878000210437047C046E3
:1010680000E0010870B50D0084B2C9B22000013457
:10107800FFF792FF290AA0B2FFF78EFF70BD10B5E7
:10108800FFF7F0FF10BD000010B583B2591C0C4CDF
:1010980089B2580049000019091902780878991C82
:1010A80089B24900033309199BB209785B001B19FF
:1010B8001B7809040002084310431B06184310BD9F
:1010C80000E00108F7B51A4D80B243005B191B78A0
:1010D800471C861CBFB2B6B2019372007B005B1935
:1010E80052191B7812780C0094462900C51CADB221
:1010F8006A00521861461B0209040B4312780199D1
:1011080012060B431343A34210D0E1B2FFF744FF8A
:10111800210AC9B23800FFF73FFF210CC9B23000DD
:10112800FFF73AFF210E2800FFF736FFF7BDC0464C
:1011380000E001080122094B1000D96811420CD1C6
:10114800D9689018490708D4D9688018C90604D402
:10115800D86810404342584104307047002002408C
:1011680037B50400FF25FFF7E5FF012811D1002C52
:1011780001D105303EBD002301930195019B002B51
:1011880003D1FFF7D7FF013CEFE7019B013B019338
:10119800F4E7002CEED10620ECE7000070B506005D
:1011A8000C48FFF7DDFF052813D102250A4C094832
:1011B80023692B432361402366612269134323611A
:1011C800FFF7CEFF062802D02369AB4323613423FF
:1011D800E36070BDFF0F000000200240F8B5F8235F
:1011E8001B06C2180D4B06000F0007209A4214D8A0
:1011F8001830FFF7B5FF05280FD10125084C1A3024
:1012080023692B4323613780FFF7AAFF062802D002
:101218002369AB4323613423E360F8BDFEFF070075
:1012280000200240024B034A5A60034A5A60704742
:101238000020024023016745AB89EFCDF0B5030CD0
:10124800050A2B4A85B0DBB2EDB20190D45C03AE3F
:10125800002D0BD134707470B47072783078B37814
:1012680012021B041043184305B0F0BD062001AB61
:101278001F78FF217843FFF77BF855235B424343F0
:101288007F00FF1803237B43FF22DBB21F00D31A22
:101298006F436B433F121B12511BD71BD31A614379
:1012A8006743634309123F121B12C9B2FFB2DBB294
:1012B80006281AD8FEF7B4FF06040A0F1419060008
:1012C80023003C0033707470B170C6E71A00230025
:1012D8000C001100F6E723000C0019003B00F1E7B1
:1012E8001A000B0021001400ECE70B003900E9E7B5
:1012F80010880008704713B51C006B4659709A7027
:1013080018700098FFF79AFF020403021B0E120ED2
:1013180062702070A37013BD074A0121137818006A
:10132800884304D10B4049180B4313707047492B6D
:10133800FCD90B404821F7E76C16002010B50820AF
:10134800FFF7A2FE10BD10B50400FFF7E5FF21006E
:101358000820FFF7B7FE10BD002210B5034B044864
:101368001A711860FFF7EFFF10BDC0466C16002019
:101378000300FFFF70B501241A4D2B78234230D0AB
:10138800194803F0B5F82B7823422AD0174E18488D
:101398003178C907C90F03F0ABF82B78234220D066
:1013A80031781448E14003F0A3F82B78234218D091
:1013B8007178114803F09CF82B78234211D0B1784A
:1013C8000E4803F095F82B7823420AD0F1780C48A0
:1013D80003F08EF82B78234203D03179094803F0C3
:1013E80087F870BDBF1800209F8200086C16002087
:1013F800B8820008D5820008F08200080A83000835
:10140800248300083E830008034B1A78D307DB0FB8
:10141800181E00D0500870476C16002010B5054AF9
:101428001379022B01D8013313711068FFF78BFF72
:1014380010BDC0466C16002010B5054A1379002B64
:1014480001D0013B13711068FFF77DFF10BDC04646
:101458006C16002070B5104B104C1978104B1A7888
:10146800D207D20F07D003200E4B1B785843201801
:1014780001F072F870BD0C4B18780C4B1D780323E3
:101488004343E3188542EED901305A701A709A70B6
:10149800C0B20333F6E7C046000C00203D1600201A
:1014A8006C1600203A1600203B160020010C002084
:1014B8000C4B70B51B78DB070BD503250A4B1C7842
:1014C8000A4B65431E780A4B5B19B44202D3FFF7F7
:1014D800C1FF70BD0134587019709A70E4B20333BB
:1014E800F3E7C0466C1600203B160020010C0020D4
:1014F8003D160020074B13B51B78DB0708D501AC58
:101508002300FFF7F8FEA27821786078FFF7D0FF74
:1015180013BDC0466C16002010B504000379054AB7
:10152800D25C054B99785878FFF7E4FF23790133AB
:10153800237110BDB78300086C16002010B5040095
:10154800044B0079DA789978FFF7D4FF23790133CF
:10155800237110BD6C16002073B5154D0400287852
:10156800002807D1FF2201AE33001100FFF7C3FEA8
:1015780073782B702179012912D000290DD0022906
:1015880012D0002210001100FFF792FF20790321EA
:101598000130FEF7D3FF217173BD28780A00F3E705
:1015A800002229781000EFE700202A780100EBE7F5
:1015B80068160020F0B516000122424C050020787C
:1015C8008BB002910693104228D03F494308C95C6A
:1015D8003E4F90433970022822D109AC320002995B
:1015E80028002300FFF787FEA27821786078FFF7AC
:1015F8005FFF344C029B6570A370069BE670344F06
:10160800002B57D02068FFF79EFE3B78DB0705D5F7
:10161800E378A27861782F4802F06AFF0BB0F0BD3A
:10162800022901D1E678E4E7062902D1254B5D7845
:10163800DFE70929FAD01929DBD1193BDBB21900F8
:1016480011400491110000249943059122495B0837
:10165800CB5C07920393214B1978A14202D8FFF77C
:10166800F9FEC6E703986043FEF782FE049BC0B20A
:101678002F1AFFB2002B01D12818C7B2144B079AB2
:101688001B78134207D0039B3A0000932100059B67
:10169800134802F02DFF0322124B02991B783800E1
:1016A8001B195343104A0134D3183200FFF723FEA5
:1016B800E4B2D0E73B78DB07B0D53300029A2900C3
:1016C8000A48A9E76C1600205A83000874160020FF
:1016D800BF180020ED8500088C820008020C00204D
:1016E800C68500083B1600203D160020128600081B
:1016F80010B5054C0300E278A17864780834E0B2AC
:10170800FFF758FF10BDC0466C16002010B5012029
:10171800FFF7EEFF10BD000010B5054C0300E2789E
:10172800A1786478083CE0B2FFF744FF10BDC046DA
:101738006C16002010B50120FFF7EEFF10BD000069
:1017480070B5074D0300AC78EA781134211CFF2CE2
:1017580000D9FF216878C9B2FFF72CFF70BDC046D9
:101768006C16002010B50120FFF7EAFF10BD00003D
:1017780070B5074D0300AC78EA78113C24B2211CFF
:10178800002C00DA00216878C9B2FFF713FF70BD9A
:101798006C16002010B50120FFF7EAFF10BD00000D
:1017A80010B5074C0300E17811310A1CFF2900D954
:1017B800FF22D2B2A1786078FFF7FCFE10BDC046C8
:1017C8006C16002010B50120FFF7EAFF10BD0000DD
:1017D80010B5074C0300E178113909B20A1C002939
:1017E80000DA0022D2B2A1786078FFF7E3FE10BDDC
:1017F8006C16002010B50120FFF7EAFF10BD10B5E8
:101808000023FFF7D7FE10BDF7B505000024154BE0
:101818001978A14209D8FFF71DFEAA782B79D207BB
:101828001DD501335BB22B71F7BD0F4BFF201E781E
:10183800032336195E430D4B9E190D4BDA7801923E
:101848009F78FEF795FD60432B79019AC018C0B2C6
:10185800330039000134FFF74EFDE4B2D7E7013B0E
:10186800E0E7C046020C00203B1600203D16002091
:101878006C160020F7B5012283780092134202D03B
:1018880001235B4200930025274C2378AB420CD8F8
:10189800FFF7E0FD009B254D012B3ED12B78002B57
:1018A80000D12378013B2B70F7BD214B00241E7813
:1018B800032376195E431F4B27009E196B461B783E
:1018C80074703470B4700193184B19786118C9B2E8
:1018D80048B20E281ADD0E21FEF730FE48B28542C6
:1018E8000BD10422144BD21BD97858784A43921052
:1018F8009978D2B23300FFF7FEFC019B0137E41858
:10190800E4B2042FE0D10135EDB2BDE70028E6DAF4
:10191800054B1878081840B2E1E72878217801309B
:10192800FEF70CFE2970BFE7020C002069160020A4
:101938003B1600203D1600206C160020F8B5284BF9
:1019480000211A78274B284D187803235343EB18A6
:1019580090421DD800240327244B254E1978A14214
:101968001DD8FFF777FD234C234833780178227878
:10197800CB188A185BB252B233702270002A04DD89
:101988001A4A1278013A934201DB49420170F8BDC4
:101998000132597019709970D2B20333D8E7200018
:1019A800FEF7CCFD00220E4BB2561B78CB18DBB2EB
:1019B8007B4394420EDB0F4A127852B2944209DC00
:1019C8000E48EB18C27881784078FFF794FC013410
:1019D800E4B2C1E70022E9184A70EA548A70F6E7CF
:1019E8003B160020010C00203D160020020C0020B0
:1019F80067160020030C0020040C00206C16002041
:101A0800F7B50125060000240327838801950133D3
:101A18002B4083800E4B1B78A34202D8FFF71AFD98
:101A2800F7BDB5886008AC46019D6044284055253F
:101A3800084B094A1B7809491B197B436843D3188B
:101A48000134CA788978FFF756FCE4B2E2E7C04669
:101A5800020C00203B1600203D1600206C160020CA
:101A6800F8B5040000250326134B1A78AA4207DCB0
:101A7800FFF7F0FC01222379013313402371F8BDED
:101A88000E4B0F491B780F4F5B197343CB18217905
:101A980078788C465208B978AA4207DD6246002A4F
:101AA80007D0FA78FFF727FC0135DDE76246002A00
:101AB800F7D00022F6E7C046020C00203B160020B3
:101AC8003D1600206C1600200C4B10B519780B221F
:101AD80049080B4806F0ADFA002802D10122094B4B
:101AE8005A7002F069FB084B1880084B1B78DB071B
:101AF80002D5074802F0FCFC10BDC0466C16002059
:101B0800050C00207416002034160020BF18002091
:101B1800528600080022054B10B55A70044B1B78FA
:101B2800DB0702D5034802F0E3FC10BD7416002061
:101B3800BF1800203986000870B51F4C2378DA07D3
:101B480026D50122002824D113409218134323706C
:101B58001A4D002926D02068FFF7F5FB2B78DB0704
:101B680004D521781648490802F0C2FC21780B22D6
:101B78004908144806F05DFA00281AD0FFF7CAFF92
:101B88000122114BDA70E278A1786078FFF737FE0E
:101B980070BD242802D913404822D7E740001340DB
:101BA8000343D4E72B78DB07E0D5217807484908B9
:101BB800DAE7FFF789FFE3E76C160020BF1800207B
:101BC8008C850008050C002034160020A885000824
:101BD800054B01001B7810B55B08581C242800D958
:101BE8000120FFF7A9FF10BD6C16002010B50120D9
:101BF800FFF7EEFF10BD0000064B01001B7810B583
:101C08005B08013BD8B2002800D12430FFF794FFCD
:101C180010BDC0466C16002010B50120FFF7ECFF80
:101C280010BD10B50121FFF787FF10BD012110B5C8
:101C3800074C23780B432370064B1B780B4202D0CA
:101C4800054802F055FC20784008FFF7EAFF10BD70
:101C58006C160020BF180020B784000810B50021BA
:101C6800FFF76AFF10BD000070B5224E3378002BD5
:101C78003ED10125204C23782B4208D01F4802F082
:101C880037FC23782B4202D01D4802F031FC02F0C9
:101C9800B1F8002809D12378DB0702D5194802F0EA
:101CA80027FC02F03DF9FFF757FBFFF747FB01233D
:101CB800154D28609843C0B200280AD122781A42EC
:101CC80002D0124802F014FCFFF746FBFFF736FB80
:101CD8002860FFF721FBFFF74DFB00220C4B28780B
:101CE8005A70C30702D54008FFF7B8FF01233370C5
:101CF80070BDC0463C160020BF180020EE840008C6
:101D0800058500081B8500086C160020438500081F
:101D18007416002070B501250C4C2378AB43237052
:101D28002068FFF710FB0A4B1B782B4205D021785F
:101D38000848C907C90F02F0DBFBFFF7EBFEFA20E2
:101D4800400004F0BEFAFFF785FB70BD6C1600205A
:101D5800BF1800207F8300080B4B10B51A780123A9
:101D68000A4C1A4206D021780948C907C90F5940B8
:101D780002F0BEFB2378DB0702D5FFF7CBFF10BDCF
:101D8800FFF754FFFBE7C046BF1800206C16002081
:101D98006B860008F8B52B4B5A78002A21D01A78A0
:101DA800294B2A4C1B785B089B1ADBB2A370022ACA
:101DB80018D1274A274ED55CE378002B07D0002797
:101DC800E77002F0F9F9EB43C0182080A78020885B
:101DD80002F0F7F9A84204D323882000ED182580E3
:101DE800B047F8BD062A03D11B4A1C4ED55CE3E771
:101DF800092A04D11A4A5B08D55C1A4EDCE70F2A77
:101E080004D1194A5B08D55C184ED5E7152A03D1C9
:101E1800174A184ED55CCFE7182A0BD0232A03D1CE
:101E2800154B164E1D88C7E7FA25242A06D16D00E2
:101E3800134EC1E7FA25134EAD00BDE7ED00124E73
:101E4800BAE7C046741600206C160020341600202D
:101E580088820008211500089482000845150008AA
:101E680097820008111800089C8200087D18000855
:101E780091820008451900089A8200086115000837
:101E8800691A0008091A0008FD12000810B5002890
:101E980001D0904710BD8847FCE770B504000D00DD
:101EA800FFF7B2FAA04206D3FFF7AEFAA84202D271
:101EB800FFF79CFE70BD2000FFF7B3FEFAE70000B5
:101EC80070B58C780500002C55D001F0A1FE2223B6
:101ED8002A4A0340A81813280ED8FEF7A1F90A0FBA
:101EE80015181B1E2124272A2D3034393C3F424522
:101EF800474AFFF731FF0024200070BD204A2149DE
:101F08001800FFF7C3FFF6E71E4A1D49F8E71E4A07
:101F18001E49F5E71D4A1C49F2E71D4A1D49EFE72E
:101F28001C4A1B49ECE71C4A1C49E9E71B4A1A49A9
:101F3800E6E71B4A1B49E3E71A4A1949E0E701208B
:101F4800FFF76FFED7E705210220FFF7A6FFD2E7CC
:101F580008210620F9E70E210920F6E714210F20B1
:101F6800F3E717211520F0E71820E9E722211920C7
:101F7800EBE72320E4E70124BEE7C0463EA3FFFFCA
:101F8800211C0008F51B00083D170008151700085C
:101F98009D1700086D170008FD170008CD170008E9
:101FA8004114000825140008014B1878C008704730
:101FB800761600200220094B10B51A7802420CD17F
:101FC8001043187001F048FF054B1B78DB0702D55A
:101FD800044802F08DFA00F059FA10BD7616002078
:101FE800BF180020FC860008094B10B51878820736
:101FF8000DD502229043187001F02EFF054B1B7877
:10200800DB0702D5044802F073FA00F06DFA10BD40
:1020180076160020BF180020CD8600080A4B10B5A0
:102028001C780A4BA4071B78E40FDB0703D52100B3
:10203800074802F05DFA002C02D0FFF7D5FF10BD6B
:10204800FFF7B8FFFBE7C04676160020BF18002050
:102058005A870008024B18788007C00F7047C0469F
:1020680076160020014B18787047C046100C0020E7
:1020780010B501F0BFFE002801D101F051FF01F0B9
:10208800E6FE084B1870372804D907221040293279
:102098001043187001201B78184000D0D80800F0B1
:1020A80053F910BD7616002070B5104C2278D3086D
:1020B800052B07D81F2101330B401839DB000A40D4
:1020C80013432370012520782843207001F0C4FEB3
:1020D800074B1B782B4204D021780648C90802F028
:1020E80007FA2078C00800F02FF970BD7616002096
:1020F800BF1800201887000810B5114C0722237854
:10210800190091430DD0083BDBB2190091430A0036
:1021180001218B43501E824118001043207001F0AA
:102128009BFE084B1B78DB0704D521780648C908B5
:1021380002F0DEF92078C00800F006F910BDC046AC
:1021480076160020BF180020A2860008012310B5CB
:102158000C4C22781A4213D113432370012B01D15E
:1021680008332370207801F077FE074B1B78DB07D4
:1021780002D5064802F0BCF92078C00800F0E4F85F
:1021880010BDC04676160020BF180020EA86000859
:102198000A4B10B51878C2070ED50124A043187051
:1021A80001F05AFE064B1B78234202D0054802F084
:1021B8009FF9002000F0C8F810BDC0467616002030
:1021C800BF180020BA8600080A4B10B51C780A4BC5
:1021D800E4071B78E40FDB0703D52100074802F06A
:1021E80087F9002C02D0FFF7D3FF10BDFFF7AEFF31
:1021F800FBE7C04676160020BF1800204487000879
:102208001F2170B5144C2378DA0801320A401839B6
:10221800062A1FD8D2000B401343237023780722C5
:102228001900012591430A00AB43501E8241180052
:102238001043207001F010FE084B1B782B4204D08D
:1022480021780748C90802F053F92078C00800F03F
:102258007BF870BD0B40E0E776160020BF18002021
:102268003087000810B5031C062800D9062307226A
:102278000949D8B20B78C40013402343DBB21C00D1
:1022880094432200541EA2410124A34313430B701C
:1022980000F05AF810BDC0467616002010B5FFF7BA
:1022A800E1FF024B187801F0D7FD10BD761600202B
:1022B8008B7810B5002B20D0114A8018062809D831
:1022C800FDF7AEFF040A0C0F121518000620FFF7E1
:1022D800E5FF0023180010BD0020F8E7FFF70CFF0A
:1022E800F7E7FFF7E1FEF4E7FFF76EFFF1E7FFF727
:1022F80087FFEEE7FFF792FEEBE70123EAE7C04628
:1023080045A3FFFF0C4B10B5984204D80921FDF7EF
:10231800A5FF80B210BD094B0949C0180002FDF79E
:102328009DFF0300434358438023000A5B02984201
:10233800EFD10448EEE7C0467B140000F628000001
:10234800F5280100FFFF000010B50F4C002804D14C
:102358000100200004F096FA10BD0C4B62689A4206
:10236800FAD00104081A0621FDF778FF80B2FFF7BA
:10237800C9FFA36806495843FDF770FF0021020012
:10238800200004F074FAE7E75C1C0020480C0020E9
:10239800FFFF00007047000010B50E4C200004F04D
:1023A8005AFA0D49200004F048FA72B6200004F0E9
:1023B80074FA0123E26809491343E360A368180427
:1023C800C01AFDF74BFF00210200200005F092FA29
:1023D80062B610BD5C1C0020480C0020FFFF000006
:1023E80010B5044C200004F036FA0349200004F02C
:1023F80024FA10BD5C1C0020140C002070B5FFF7F7
:1024080031FE04001C4D2102288864000130FEF7CB
:1024180095F888B22880A1B2FDF720FF7F24174BDA
:1024280004401B78022B04D1402C06D1FFF7D8FFBB
:1024380003E0012B01D17F2CF8D0114B0621185D48
:102448000002FDF70BFF84B2FFF7AEFD604380B2D8
:10245800FFF758FF72B601230A4C0B49E268134391
:10246800E360A3685843FDF7F9FE0021020020004D
:1024780005F040FA62B670BD781600207A16002082
:102488007A8700085C1C0020FFFF0000002310B5BD
:10249800034A1380034A1370FFF77EFF10BDC0463E
:1024A800781600207A160020902010B5822240214C
:1024B800C00504F0E8FE01230849094ACB60D3604F
:1024C800084804F0BAF9FFF76FFDFFF73DFFFFF783
:1024D800C1FD002801D0FFF7D9FF10BD140C002062
:1024E800480C00205C1C002010B5FFF779FFFFF7AF
:1024F8005BFDFFF729FF10BD03230200591A4900AD
:102508000A4110B50B330400D20700D4063B02225F
:1025180018008A408038C0B2144201D0203BD8B29B
:1025280010BD0000802110B502220902074804F0FE
:10253800AAFE074C200004F0E0F90649200004F048
:10254800C0F9200004F0C7F910BDC04600040048D7
:10255800281C0020FC870008F0B5234C87B023789E
:1025680004900591002B03D1FFF7DCFF01232370B2
:102578000024059B9C4207D3BA211C4A49001C48E9
:1025880004F0B3F907B0F0BD03230C25002663431C
:10259800049A6543D3181A7801925A789B78039263
:1025A8000293124BED182F1D31000198FFF7A4FF7D
:1025B800B8550136042EF7D12F0000260837310010
:1025C8000398FFF799FFB8550136042EF7D1002676
:1025D8000C3531000298FFF78FFFA8550136042EFD
:1025E800F7D10134E4B2C4E77B1600207C16002042
:1025F800281C0020F8B5150082781F000C00284B15
:10260800002A11D0197001F0D7FD264B188023003D
:102618002033DBB2072B06D8072301201C40A0403B
:10262800C0B200F0F8FBF8BD1E788E422DD11D4BCC
:10263800188801F0C6FDC72827D82C002034AE42E0
:1026480015D033002033DBB2072B06D8072301202F
:102658001E40B040C0B200F0E6FBE3B2072B06D83C
:10266800072301202B409840C0B200F0D4FB38006B
:10267800E4B200F0C1FB072CD5D8072301201D4088
:10268800A840C0B200F0CFFBCDE723002033DBB277
:10269800072BC8D8072301201C40A040F1E7C046FB
:1026A800F0170020F21700201E4A030010B508009A
:1026B800934221D00FD81C4A93421AD01B4A934206
:1026C8002AD01B4A93420DD12623E1221100FFF79D
:1026D80091FF002010BD174A934215D010D3164A17
:1026E800934215D0807800281AD00022134B1A7014
:1026F800F0E72723E522E9E72623E122E021E6E7C0
:102708002723E522E421E2E72623E122E221DEE78E
:102718002723E522E621DAE728230122E521D6E767
:102728000120D7E7F35C0000D85C0000D95C00000A
:10273800D75C0000F55C0000F65C0000F017002094
:10274800F8B505008878002800D1DCE06F4FBD425D
:1027580024D36F4EB54203D96E4BEB18082B1DD806
:1027680001F05EFB6C4C6D4B20809D4200D197E0E0
:102778002FD86B4B9D4200D175E017D8694B9D420D
:1027880000D164E00BD8BD4259D0674B9D425BD065
:10279800208801F051FB00F081FD0020F8BD634B5B
:1027A8009D425DD056D9227820234AE0604B9D4255
:1027B80066D007D85F4B9D425ED057D90122237857
:1027C80093433FE05C4B9D4260D05CD92378102254
:1027D800F6E75A4B9D4240D01AD8594B9D4265D0D6
:1027E8000BD8584B9D425ED0574B9D42D0D100F03C
:1027F80055FD7F222378134024E0B5425CD076D380
:10280800524B9D42C4D10123627813436370BFE7E2
:102818004F4B9D424DD007D84E4B9D423DD038D9A5
:10282800032362789A43F0E74B4B9D4269D051D31A
:102838004A4B00209D42ABD101F076FBA8E701236B
:10284800227813432370A3E722780223F9E722783A
:102858000423F6E722780823F3E762780223D4E713
:1028680022781023EDE722784023EAE700F016FDEE
:10287800802322785B42E4E70C2322789A43E0E73E
:10288800237802229CE72378042299E723780822F8
:1028980096E7012263789343B8E763780222FAE760
:1028A800237820228CE72378402289E723780C229A
:1028B80086E763780322EEE70121042023785A078C
:1028C800D20F4A400A40910083430B430821D200AB
:1028D8008B43B6E701216378DA07D20F4A400A40F2
:1028E8008B4313435100022293430B438EE700F0BE
:1028F800D5FC01222378D9094A407F21D2010B4017
:102908009FE7012098E7012048E7C046025C0000E5
:10291800155C000006A3FFFFCC180020105C000027
:10292800085C0000045C0000035C0000065C00001A
:102938000C5C00000A5C00000E5C0000FB5C000000
:10294800135C0000115C0000125C0000FA5C0000DF
:10295800FF5C0000FD5C0000015D0000025D0000FE
:10296800124A10B501230C00904214D101F050F91D
:10297800A3780F4A002B10D0AA2303401900481E41
:10298800814135201170002B00D10C3801F00AF973
:1029980001F0AAF90023180010BD13783520002B88
:1029A80000D10C3801F008F9F2E7C046165C0000C7
:1029B800F4170020014B18607047C046F817002034
:1029C800034B10B51B68181E01D01B68984710BD33
:1029D800F8170020F8B5184B04001B68002B2AD004
:1029E800164A1278002A07D0154A12787F2A03D986
:1029F80002784270052202705B6820009847114DEA
:102A08002B785A0717D5DB0702D50F4801F070FD60
:102A18002600012708362B783B4203D021780B4843
:102A280001F066FD0134B442F5D12B78DB0702D5FD
:102A3800074801F05DFDF8BDF8170020DC0D002007
:102A4800CC180020BF18002010890008228900082F
:102A580019850008044B10B51B68002B03D002220F
:102A680002709B68984710BDF8170020064B10B5F8
:102A78001A88824206D01880044B1B68002B01D0AC
:102A8800DB68984710BDC046FE170020F8170020E5
:102A9800064B10B51A88824206D01880044B1B6872
:102AA800002B01D01B69984710BDC046FC170020B9
:102AB800F81700207047704710B5FFF7FCFF10BDEE
:102AC800704710B5FFF7FCFF10BD10B5FFF7F2FF18
:102AD800FFF7F2FF10BD0120704710B501F04AFB67
:102AE800FEF77CF901F02EFDFFF7C2FAFFF7BCF8FC
:102AF800FFF7E7FF10BD000070B50E4D06002B78FC
:102B08005A0712D5012423420FD00B4801F0F0FCDC
:102B18002B78234209D03100084801F0E9FC2B78D2
:102B2800234202D0064801F0E3FC3000FDF7C9FE5D
:102B380070BDC046BF1800202889000827820008F9
:102B480019850008F0B587B0FEF784F9FFF7C3FFD1
:102B580000284ED00025EBB2E8B20193FEF70AF93F
:102B68002C4B6F00FE5A009086423FD002222A4B1F
:102B78001B78134201D0FEF703F900230124009AC1
:102B8800564026422CD002AA13701300019A5A709C
:102B9800009B23405A1E934102AA937001F00CFB3C
:102BA800012302AA034393800298039900F038F89E
:102BB800184BDB5B5C40174BDC53FFF7EBF8FFF778
:102BC800E9FB01F095FEFFF7FBFE144C23788342E6
:102BD80004D0FFF7F5FE2070FFF78EFF07B0F0BDB9
:102BE80001336400DBB2A4B2102BCAD10135052D24
:102BF800B1D1012304AC5B4223800023A37001F010
:102C0800DBFA01230343A3800498616800F008F805
:102C1800D3E7C04602180020BF1800200018002083
:102C28001FB50E22002402AB6A44148002909980DA
:102C3800039900F0CBFD1FBD10B5008800F086FF9A
:102C480010BD000010B5041E13D0822812D1FFF762
:102C5800B7FE83070DD4392000F0A4FF01F044F833
:102C6800FA20800003F02DFB392000F0A5FF01F0C9
:102C78003BF810BD83280ED1FFF7A2FEC307F8D496
:102C8800532000F08FFF01F02FF8FA20800003F0A6
:102C980018FB5320E9E784280ED1FFF791FE43077C
:102CA800E7D4472000F07EFF01F01EF8FA208000EC
:102CB80003F007FB4720D8E7031FDBB2A02B13D88C
:102CC80002F072FA0028D4D11C4B2100186801F0D8
:102CD8004DF9002804D0200000F06EFF01F004F840
:102CE800200000F05FFFC2E703002033DBB2072BB0
:102CF80007D8072301201C40A040C0B200F08EFF77
:102D0800B5E703005B33DBB2022B04D80C4AD05C76
:102D1800FFF7ACFEADE703005833DBB2162B05D83E
:102D2800084A5B00985AFFF7B3FEA2E7EF28A0D93C
:102D380001F08EFC01F074FD9BE7C0467C0C00207E
:102D48003B8900083E89000810B500280FD082286A
:102D58000ED1FFF735FE830709D5392000F022FF91
:102D680000F0C2FF392000F027FF00F0BDFF10BDC2
:102D780083280AD1FFF724FEC307F8D5532000F0B3
:102D880011FF00F0B1FF5320EDE784280AD1FFF7C7
:102D980017FE4307EBD5472000F004FF00F0A4FF1F
:102DA8004720E0E7031FDBB2A02BDCD90300203368
:102DB800DBB2072B07D80723034001209840C0B295
:102DC80000F034FFD1E703005B33DBB2022B03D8FA
:102DD8000020FFF74BFECAE703005833DBB2162B7F
:102DE80003D80020FFF754FEC1E7EF28BFD901F050
:102DF8009DFC01F015FDBAE710B50400FFF722FFAE
:102E08000120392C01D1C820800003F05AFA200093
:102E1800FFF79AFF10BD10B5002803D000F0FEFEA2
:102E280000F062FF10BD10B5002803D000F0FEFED0
:102E380000F05AFF10BD0000F0B58679857885B09E
:102E480001900C1C3609002D01D000F00DFF00F098
:102E5800D5FE0290002811D0002302939D420DD088
:102E680023002033DBB2072B08D9022000F082FFB1
:102E780000F0C4FE01234340DBB202932304180F81
:102E88000393FDF7E1F91000100064006400B3003B
:102E9800C70041004100F400470158015801B3013F
:102EA80041004100BC010F22230426051B0E360FEA
:102EB800934300D03601E4B2002D14D0002E0BD07D
:102EC80023002033DBB23000072B01D9002C07D1B7
:102ED80000F0A4FE00F008FF2000FFF7B3FE13E0A7
:102EE80000F0B2FEF6E72000FFF72EFF002E0BD011
:102EF80023002033DBB23000072B01D9002C23D16B
:102F080000F094FE00F0F0FE039B1B0F083B032B20
:102F180003D8FFF755FDFDF7D4FC029B002B11D019
:102F280000F064FE012318400CD1019B987000F05A
:102F380055FE00F05FFD019800F07AF900F04EFEB2
:102F480000F064FD05B0F0BD00F086FEDAE70F2260
:102F5800230427051B0E3F0F9343202B00D03F016E
:102F6800E4B2002C0ED0012C2BD0002D32D0002E34
:102F78002BD0019B9B79DA07AED50F221340019A1B
:102F8800937122E0002D11D0002E06D100F088FEAA
:102F98003843C0B2FFF73FFFB6E7012EF6D100F085
:102FA8007FFE3843C0B200F087FEADE7002E05D1A2
:102FB80000F08EFE3800FFF736FFA5E7012EA3D0FC
:102FC800F6E7002D03D0052E9ED83800E2E7042E40
:102FD8009AD8EFE7002EEDD0392C03D1C820800015
:102FE80003F06FF92000FFF7AFFE8DE723059B0F75
:102FF80009D0012B00D087E7281E01D0A005800D3D
:10300800FFF746FD80E7281E01D0A005800DFFF7D9
:103018002DFD79E7E0B2002D15D0F5280DD0F62862
:103028000ED0F42804D10123784A11680B431360A9
:1030380001F00EFB01F0F4FB66E7744A0223F4E7A3
:10304800724A0423F1E7F5280BD0F6280CD0F428AF
:1030580004D101236D4A11689943116001F066FBA0
:10306800E8E76A4A0223F6E7684A0423F3E72304F9
:103078009B019B0F21D1002D00D045E723065B0F54
:1030880020079B00000F9840E20602D50F359D40AF
:10309800ED432405A40F2843022C08D00AD8012C9C
:1030A80002D000F077FC2FE700F06AFC2CE700F074
:1030B8007BFC29E700F05FFC26E7A205920FD1B25E
:1030C8000123002D1AD01340002B00D11CE7220643
:1030D800520F20079200000F90400023E10602D50E
:1030E8000F339340DB432405A40F1843022C0BD065
:1030F8000DD8012C05D000F0ABFC05E749080B40C2
:10310800E2E700F09BFCFFE600F0ACFCFCE600F018
:103118005BFCF9E6E6B22405240F002D04D020005C
:1031280000F068FC300035E73000FFF77CFE200037
:1031380000F06CFCE8E6E7B23800F03804283ED826
:10314800FDF76EF80311181D2700002D07D0042E77
:1031580000D9D9E6E004C00E00F064FCD4E6052EE0
:1031680000D9D1E6F6E7E004C00E002DE0D000F06B
:1031780041FCC9E6E004C00E002DF8D0D8E7002DC8
:1031880004D0E004C00E00F02EFCBDE600F026FCE2
:10319800BAE6002D09D0E404E40E200000F02AFC71
:1031A8000321200000F0CCFDAEE6012000F0E2FD96
:1031B800012E00D8A8E6022000F0DCFDA4E6002DD0
:1031C80006D0002E01D0380087E6E004C00ECEE716
:1031D800002E08D00120392F01D1C820800003F02B
:1031E80070F83800FFE6E004C00EA1E72205120FD0
:1031F800E1B20198FDF7D6FB00F058FB84E6220502
:10320800120FE1B20198FDF7CFFB7DE61018002000
:1032180070B504008078218800F0A2FC051C00F03D
:103228002BFC00F0A7FB291C2000FFF705FE70BD52
:1032380073B5868801AD040001000222280004F05D
:1032480003FF002E0ED02A88074B9A420AD020008E
:10325800FDF74EFB002805D02000FFF7D9FF20001E
:10326800FDF70EFB73BDC046FFFF000010B500F070
:10327800FBFC00F00FFD00F037FD01F023FC01F02E
:10328800CFFA0020FFF7F2FB0020FFF701FC10BD8A
:1032980010B500F09BFCFFF7E9FF10BD10B500F07A
:1032A800CDFCFFF7F5FF10BD012110B50C0002049D
:1032B800120F944090221202C3B2224018D10E4835
:1032C800044203D1402020400DD110BD0800F02B4E
:1032D800FBD004D8E721994252411000F5E7F43BAE
:1032E80058425841F1E70800E72BEED9F13BF7E7E0
:1032F800C00A0840E9E7C0460C0C000007B501AB5E
:103308001880019800F022FCFFF7CEFF0EBD82B0B6
:1033180002B0704782B002B07047000070B5072550
:103328000B4B1C780B4B1B78A34200D170BD0A4B8A
:10333800E200D15A9B1858889A8800040843D98813
:10334800013409041143FFF7E5FF2C40EAE7C046C2
:103358005D1800205C1800201C180020064B10B5D2
:1033680058881A88D988000410439A880904114398
:10337800FFF7D0FF10BDC04614180020F7B50F2284
:103388001F488379934336D18378002B33D01D4B64
:1033980001A91B781C4A12789A422CD0828894463C
:1033A800002A29D0047847780C704F700A88174D86
:1033B800AA4221D0164ADE0092195578BD421BD187
:1033C800134D755DA54217D19478002C14D165462C
:1033D8009488641BA4B2C72C0ED80F2410218379BB
:1033E80023400B4383719379234019439171FFF76D
:1033F8001FFFFFF793FFF7BD072201331340C9E70B
:10340800141800205D1800205C180020FFFF000041
:103418001C180020F0B5040097B010AD010006227A
:10342800280004F011FE2378B44F9C46A37839880D
:103438000193A38807910293BB886078069309AB30
:1034480019803978069A049179780391002A00D175
:10345800FBE01988AA4B994200D1F6E0BE78002E0D
:1034680000D1F2E0B9790F220B0093430593069A35
:10347800029B9A1A92B2059BC72A00D99FE0002B9B
:1034880055D1049B0AAA1370039B5370019B1288A1
:1034980003939B4B9A4218D0634668702B702A8816
:1034A800079B9A4211D1019B002B00D054E10F33A6
:1034B800194001331943B971FFF750FF3800FFF77E
:1034C800B7FEBB79A37100262EE0029B002B00D02B
:1034D80046E1019B002BF6D00123884A91790B43E2
:1034E8009371F0E7DD0051194F78874205D1AD5C43
:1034F800654502D189780029E5D1072101330B40C0
:1035080041E1114201D0002B0DD02033DBB2072B53
:1035180009D92000FFF78CFE039604E01142F4D08D
:10352800A2798A43F1D1039E300017B0F0BD049A06
:103538000BAB1A70039A5A701B88714A934215D0C4
:10354800634668702B702B88079A93420ED1019BB3
:10355800002B0BD1A1712000FFF76AFE0822210081
:10356800380004F071FDFFF7F9FEDDE7624610ABA5
:103578001A7058701098FFF7C1FE00281BD0019BE5
:10358800002B18D05D4A93791F2B09D912A81288ED
:10359800028000228270029A83718280FFF748FEBF
:1035A80008222100554804F04FFDFFF7E7FEFFF71A
:1035B800D5FE0126B8E72000FFF73AFEF9E7002B11
:1035C80014D1019B6870AB70029BAB8063462B7073
:1035D80003CDFFF79CFE3800FFF72AFE0822059965
:1035E800380004F03AFDFFF7B9FE6CE7049A0CAB1B
:1035F8001A70039A5A701B88414A934213D0634643
:1036080068702B702B88079A93420CD1019B002B72
:1036180009D1A1712000FFF70BFE0822019938009B
:1036280004F01BFD80E7624610AB1A7058701098C2
:10363800FFF764FE0028BED0019B002BBBD02F4AA9
:1036480014A893791F2BABD9A1E72C4A0DAB12888C
:103658000592069A002A67D0049A1A70039A5A703B
:103668001988274B99425FD0244A9678002E5BD15F
:10367800029A0699521A92B2C72A43D8019E002E7E
:1036880099D004990EAA117003991C4F5170118892
:1036980010AA994221D06346507013701388059977
:1036A8008B421AD1BB79DA0711D40F221900914342
:1036B8000DD01900A3719143F02900D14BE70F21D8
:1036C8001A09013212010B401343A37143E7082280
:1036D8002100380004F0B8FC26E7634650701370E8
:1036E8001098FFF70BFE002800D059E70123BA799C
:1036F80020001343BB71FFF79BFD15E7141800204A
:10370800FFFF0000019A10AB9A70029A58709A80D5
:1037180062461A7010981199FFF7F9FD08223100D6
:10372800254804F09AFC1EE7019B002B00D142E7D4
:10373800634668702B701098FFF7E0FD061E00D1F5
:1037480039E708222100380004F07EFC3800FFF732
:1037580073FAFFF713FE06E7029B002B00D1BBE6C6
:1037680063460FAA137050701288144B9A4200D106
:10377800AFE6019B002B00D0AEE6114A114B127840
:103788001B780192104A01998B4200D0AAE6624642
:1037980010AB1A705870109800F0D8F90204C3B230
:1037A800100F032800D9B4E60F21120EFCF742FDD2
:1037B800A9FEA9FEB6FEB6FE14180020FFFF000001
:1037C8005C1800205D1800201C180020F0B587B098
:1037D8006C46009020006160FFF71CFE04A9071EDC
:1037E8002D4D0DD02288A3880A80002B06D02B4BA4
:1037F80092B29A4202D003CCFFF78CFD072743E030
:103808000B00220041CA41C30888A28803AB188074
:10381800002AF3D0214B82B29A42EFD0204B18787D
:103828000723441C1C402B789C420AD01D4BC00027
:103838001818082204F008FC194B1C70FFF76EFDDD
:10384800DCE7FFF72BFD164B0822390016481F70DE
:103858002F7004F002FCD1E7124CC0002018FFF7CB
:10386800D9FD002815D02B78DB001A5BE418608896
:10387800E188A3880004090419431043FFF74AFDAF
:103888002B7801333B402B70054B28781B788342FB
:10389800E2D107B0F0BDC0465D180020FFFF000070
:1038A8005C1800201C18002014180020F8B5002807
:1038B8000BD0002607270378441C732B06D8042B4B
:1038C80041D2012B0FD0022B22D0F8BD752B37D057
:1038D8002CD31A007C32D2B26F2AF6D87F20184037
:1038E800FFF732FA0DE0841C407802002032D2B291
:1038F800072A29D838408340D8B200F0BBF900F035
:10390800F3F93500013DEDB2FF2D20D12000D2E7BB
:10391800841C407803002033DBB2072BE0D8012356
:1039280038408340D8B200F0ADF9E8E74578841C08
:10393800013DEDB2FF2DE4D00A2002F0C2FCF7E70A
:10394800841C4678DDE71800FFF77CF9D9E70A20E0
:1039580002F0B7FCD6E7704710B5FFF7FCFF10BDC3
:1039680010B5FFF7F9FF024B1860FFF77FFC10BD99
:1039780060180020704710B5FFF7F2FF10BD000077
:1039880010B5034B1B681843FFF7EAFF10BDC0468C
:103998006018002010B5034B1B681840FFF7E0FFC4
:1039A80010BDC0466018002010B5034B1B68584076
:1039B800FFF7D6FF10BDC04660180020704710B54D
:1039C800FFF7FCFF10BD000010B5FFF7F8FF024B32
:1039D8001860FFF74BFC10BD6418002010B50020DC
:1039E800FFF7F2FF10BD0123834010B51800FFF761
:1039F800EBFF10BD0123834010B5034A106818433C
:103A0800FFF7E2FF10BDC046641800200123834081
:103A180010B5034A10689843FFF7D6FF10BDC0469B
:103A2800641800200123834010B5034A10685840E9
:103A3800FFF7CAFF10BDC0466418002010B5034B3D
:103A48001B681843FFF7C0FF10BDC046641800206C
:103A580010B5034B1B681840FFF7B6FF10BDC046F2
:103A68006418002010B5034B1B685840FFF7ACFFE3
:103A780010BDC046641800207047000073B50126C9
:103A8800030401AC021C2080180E07233400000137
:103A98008018C0B203409C4005230022C008584348
:103AA800084BE4B218180B00D340057833405B424A
:103AB8006B4023406B40013203700130052AF2D17C
:103AC80073BDC0466818002037B501A908800721D2
:103AD80005240304021C180E000180180022C0B23D
:103AE8000140C0086043074C012524181000A35C5E
:103AF800CB402B40934001321843C0B2052AF6D17F
:103B08003EBDC04668180020F7B51F2401270D4B9D
:103B180001AE1A680C4B30801B681A430092009B58
:103B2800E5B2E3403B4204D1013CF8D2002528002D
:103B3800FEBD31682800FCF74FFF80B20128F3D0A2
:103B4800F5E7C046641800206018002007B501ABEF
:103B580018800198FFF7D8FF0199FCF73DFF0EBDCB
:103B680037B50F4B01AC1B782180002B03D001988F
:103B7800FFF7ECFF3EBD00280CD02068FFF7C4FF1C
:103B8800050001002068FFF779FF01992800FCF77C
:103B980023FFEFE72068FFF797FF0500F5E7C0462A
:103BA8000C18002010B5034B0100186800F060FAEB
:103BB80010BDC0467C0C002010B5034B01001868EE
:103BC80000F06AFA10BDC0467C0C002010B5024B0C
:103BD800186800F075FA10BD7C0C00200020024B1C
:103BE8001856C010C0B27047BB180020024B187896
:103BF800072318407047C046BB180020034B1878AD
:103C080007231840431E9841C0B27047BB180020D4
:103C1800014B18787047C046BD180020024B1A782F
:103C2800104318707047C046BD180020024A137828
:103C3800834313707047C046BD1800200022014B13
:103C48001A707047BD180020024B1A78104318707C
:103C58007047C046BE180020024A13788343137089
:103C68007047C046BE1800200022014B1A707047EA
:103C7800BE180020024B1A78104318707047C046CF
:103C8800BA180020024A1378834313707047C0465D
:103C9800BA1800200022014B1A707047BA18002089
:103CA800014B18787047C046BC180020704710B503
:103CB800FFF7FCFF10BD000010B5044B1A788242D4
:103CC80002D01870FFF7F3FF10BDC046BC180020E3
:103CD80010B5044B1A78002A03D000201870FFF79B
:103CE800E6FF10BDBC18002010B50D4B0D4A1B781F
:103CF80012780D4C13430D4A2068127813430C4A6E
:103D080003701278002A07D01343037000F012F9E9
:103D1800002801D0FFF7DCFF2068FEF75BFE10BD2E
:103D2800BD180020BE1800207C0C0020BA18002006
:103D3800BC180020704710B5FFF7FCFF10BD00004D
:103D480010B5C300054C0B432370FFF753FE00204A
:103D58002056C010C0B2FFF7EEFF10BDBB18002000
:103D6800002010B5024B1870FFF7E5FF10BDC046E4
:103D7800BB180020002310B5084AD3561900814308
:103D880048B21070420708D1DBB2834205D0C01098
:103D9800C0B2FFF73BFEFFF7E3FF10BDBB180020E2
:103DA8003322030100091843C0B283008010104079
:103DB80093430343DBB2223258005B109043134015
:103DC8001843C0B2704770B50500C0B2FFF7E8FFEE
:103DD8000400280AFFF7E4FF2402204380B270BDE4
:103DE80010B5FDF7C3F802490020FDF748F910BDEA
:103DF800FFFF000010B50020FDF724F9024BC018A2
:103E080043425841C0B210BD1401FFFF10B5022053
:103E1800FDF708F910BD10B50320FDF703F910BD33
:103E280010B50420FDF7FEF804002120FDF7FAF88C
:103E38000002204380B210BD10B50400C1B20420B6
:103E4800FDF7FAF8210A2120FDF7F6F810BD10B5A4
:103E58000620FDF7E7F810BD10B501000620FDF7B4
:103E6800EBF810BD10B501000F20FDF72BF910BDC0
:103E780010B501001320FDF725F910BD10B500207D
:103E8800FFF7F6FF10BD10B50020FFF7EBFFFFF7B7
:103E9800F5FF10BD10B50024FDF768F81E49002095
:103EA800FDF7EDF800210220FDF7C6F800210320F8
:103EB800FDF7C2F8194B210004201C60FDF7BCF87F
:103EC80021002120FDF7B8F821000520FDF7B4F8FE
:103ED80021000620FDF7B0F8FF210720FDF7ACF818
:103EE80021000820FDF7EEF821000D20FDF7A4F8C9
:103EF80021001820FDF7E6F821001720FDF79CF8AF
:103F080021001C20FDF7DEF821002020FDF794F8A1
:103F1800FFF7B9FF10BDC046ECFE00006018002096
:103F280010B5FFF7B7FF10BD10B501000E20FDF763
:103F380083F810BD0B4B1A780623002A04D00A4ACE
:103F480012787F2A00D91833821C0020013BDBB28B
:103F5800FF2B00D170471178002901D00130C0B281
:103F68000132F3E7DC0D0020CC1800200B1E16D020
:103F7800124B1B78002B14D0114B1B787F2B10D9B8
:103F8800CA0800231D2A0AD807331940063B8B406C
:103F98001900801883780B40581E8341DBB2180043
:103FA8007047831C08301A788A4204D00133834250
:103FB800F9D10023F3E70123F1E7C046DC0D002027
:103FC800CC18002001220023F0B55242851CEC5C7D
:103FD8005EB28C420BD0571C02D1002C00D13200AB
:103FE8000133062BF3D1531C01D080188170F0BD2A
:103FF800002210B5831C08301C788C4200D11A703E
:1040080001338342F8D110BD10B5CB081D2B08D859
:10401800C01807231940063B8B40827813438370EE
:1040280010BD044B1B78DB07FAD5034800F060FA93
:10403800F6E7C046BF1800206C89000810B5CB0809
:104048001D2B08D8C0180723012219408A408378FD
:104058009343837010BD044B1B78DB07FAD50348E4
:1040680000F046FAF6E7C046BF1800208A89000823
:1040780010B5074B1B78002B06D0064B1B787F2BFF
:1040880002D9FFF7C1FF10BDFFF79CFFFBE7C04651
:10409800DC0D0020CC18002010B5074B1B78002B36
:1040A80006D0064B1B787F2B02D9FFF7C7FF10BD40
:1040B800FFF79EFFFBE7C046DC0D0020CC18002070
:1040C80010B5074B02301B78002B04D0054B1E227D
:1040D8001B787F2B00D80622002103F0BEFF10BDFD
:1040E800DC0D0020CC180020704710B5FFF7FCFF4E
:1040F80010BD10B5FFF7F9FFAA2002F0E2F810BDD5
:104108007047704710B5FFF7FBFF0024FCF7A2FECD
:10411800FFF7F7FF2000FCF72DFE002804D101343B
:10412800E4B2052CF6D110BD0120FCE7704710B5AC
:10413800FFF7FCFF10BD10B5FFF780FDFFF794FDFA
:10414800FFF744FD00F0BEFC0020FEF78FFC0020C6
:10415800FEF79EFCFDF78CFFFFF7E9FF10BD00009E
:1041680072B68023DB055A6A62B6014B1A60704743
:10417800C018002010B5FFF7F3FF10BD10B572B6D8
:104188008023DB05586A62B6FA22084B92001B6846
:104198000021C01A0023FCF7F7F90023044A80180D
:1041A8005941044A0023FCF7CFF910BDC01800207C
:1041B8000F2700001027000010B5FFF7DFFF80B2BF
:1041C80010BD10B50400FFF7D9FF001B80B210BD69
:1041D800054B064A1A60BFF34F8F054B054ADA6054
:1041E800BFF34F8FC046FDE7FC3F0020EFBEADDEBA
:1041F80000ED00E00400FA050A4B0B4A043B19687D
:1042080010B591420CD100221A6082F31488074B32
:104218001B6883F3088862B6054B1B689847FEE75E
:1042280010BDC04600400020EFBEADDE00C8FF1F35
:1042380004C8FF1FF0B50D001E00012485B00290D0
:10424800039221000298FCF709F8A84206D200233D
:104258000193002C04D1347005B0F0BD6C43F0E735
:1042680002982100FCF780F802910700290020003D
:10427800FBF7F4FF019B002B05D1002F03DCAC42B8
:1042880010D30400E5E73023092F04DD039A073330
:10429800002A00D12033DF19019B377001330193C5
:1042A8000136EEE73023F6E7F0B50D001E000124D5
:1042B80085B00290039221000298FBF7CFFFA84235
:1042C80006D200230193002C04D1347005B0F0BD50
:1042D8006C43F0E702982100FCF746F802910700CA
:1042E80029002000FBF7BAFF019B002B05D1002F06
:1042F80003DCAC4210D30400E5E73023092F04DDCA
:10430800039A0733002A00D12033DF19019B377045
:10431800013301930136EEE73023F6E7F8B50500DF
:104328000E003027002B00D1103F069B99185042F1
:10433800085C1400531E002801D0002A08DC002C59
:1043480008DC069C0134631E1978002907D1F8BDE2
:104358001A00ECE739002800B047013CEFE72800D5
:10436800B047EFE7F0B515001C0091B00390049139
:104378002978002938D0252904D001350398049BD1
:104388009847F5E76A78302A1AD00023AE1C0593BF
:104398001300303B0027092B1AD831000A201300DC
:1043A800303BDDB20E00092D05D9313B052B0BD86A
:1043B8000A330A2B0CD147430A78DF190131EEE79B
:1043C800EE1CAA780123E2E71300413B052BEFD945
:1043D8006C2A52D13278751C632A3ED00ED8252A11
:1043E80049D003D8002AC3D111B0F0BD582A1AD039
:1043F800622ABDD107AB002202211DE0732A30D00A
:104408000DD8642AB4D101CC07AB002816DB0022F2
:104418000A21FFF70FFF07AB0093059B24E0752ADD
:1044280007D0782AA4D1583A53425A41102107ABF1
:1044380002E000220A2107AB01CCEAE72D221A701C
:104448000D2304AA40429B18E1E72D221A700D2380
:1044580004AA40429B182BE0350002CCC9B28DE774
:10446800350008CC009300233A0004990398FFF71D
:1044780055FF7DE73500252180E7632AECD00ED86B
:10448800252AF7D003D8002AAED0350070E7582A7D
:1044980018D0622AF9D107AB0022022117E0732A4B
:1044A800DED00BD8642AF0D101CC07AB0028CCDBD6
:1044B80000220A21FFF7F8FE3500ACE7752A08D07C
:1044C800782AE2D11021583A53425A4107AB01CC1D
:1044D800F0E707AB00220A21F9E70000024B196058
:1044E800024B18607047C046C4180020C818002046
:1044F8000FB407B5064904AB064804CB0968006841
:104508000193FFF72FFF012003B008BC04B0184740
:10451800C4180020C818002010B5FFF761FC10BDB2
:1045280010B5FCF797FC642001F0CBFEFCF792FC79
:104538000020FCF71FFCC30703D5FFF7EDFFFFF7CB
:1045480047FE10BD10B5FFF755FC002801D1FFF755
:10455800E7FCFFF75BFC054B1870FFF761FC044BA9
:104568001880FFF758FCFFF706FA10BDBF180020A7
:10457800CC18002010B5184B1A78D3070CD5174B58
:104588001878052343439B087F20834203D87E384D
:10459800002B00D0D8B210BD930705D50F4B187863
:1045A800052343435B08EFE70523520703D50B4A6E
:1045B80010784343E8E70A4A1278002AEAD0094902
:1045C8000648097800788A42F3D250435843FBF7EB
:1045D800CFFE83B2D8E7C046DA180020820C00204C
:1045E800DB180020830C002010B5154B1A78012326
:1045F8001A4207D0134B1B789B080120002B0ED0C2
:10460800D8B20CE0910703D50E4B1B785B08F4E792
:10461800520705D50B4B1B787F208342EDD910BD7F
:10462800094A1278002AEBD0084B1978054B1878FC
:104638008A4201D383B2EFE75043FBF799FEF9E7CB
:10464800DA180020860C0020DB180020870C0020D8
:1046580010B5F02805D1FFF78DFF4042314BD870D7
:1046680010BDF12802D1FFF785FFF7E7F22805D141
:10467800FFF780FF40422B4B9870F1E7F32802D1F7
:10468800FFF778FFF7E7F92804D1FFF7ADFF254BCF
:104698001871E5E7FA2803D1FFF7A6FF4042F6E7CD
:1046A800FB2805D1FFF7A0FF40421E4B5871D7E702
:1046B800FC2802D1FFF798FFF7E7F42805D101237A
:1046C800184A51780B435370CAE7F52803D1154AA5
:1046D80002235178F6E7F62803D1124A04235178C9
:1046E800F0E7F72803D10F4A08235178EAE7F828BA
:1046F80003D10C4A10235178E4E7FD2805D10123A2
:10470800094A11780B431370AAE7FE2803D1064A19
:1047180002231178F6E7FF28A2D1034A042311786F
:10472800F0E7C046D4180020DA180020022210B59D
:10473800384B9A56F02807D1D9787F2901D900211A
:10474800D970002A0DD010BDF12804D10321595683
:104758000029F4DCF5E7F2280CD1002AF1DA00226E
:104768009A70DA7819795B790A431343EBD12A4AAC
:104778001370E8E7F32802D1002AF0DCE1E7F92812
:1047880006D1042159560029DBDD00211971D8E72B
:10479800FA2803D119797F29D3D9F6E7FB2805D15F
:1047A80059797F29CDD900215971CAE7FC2804D14C
:1047B800052159560029F6DCC3E7F42804D15978B5
:1047C800F33881435970BCE7F528F8D0F62802D1B0
:1047D8005978F238F5E7F72802D15978EF38F0E739
:1047E800F82802D15978E838EBE7FD2805D10124EB
:1047F8000A480178A1430170A3E7FE2803D10748BE
:1048080002240178F6E7FF289BD1044804240178A4
:10481800F0E7C046D4180020DB180020DA18002082
:10482800254B70B51B78254C1B073CD52448FFF752
:104838005FFE61782348FFF75BFE2348FFF758FEC9
:104848000221224D61562800FFF752FE204E30000B
:10485800FFF74EFE032128006156FFF749FE30009E
:10486800FFF746FE042128006156FFF741FE30009D
:10487800FFF73EFE052128006156FFF739FE15486F
:10488800FFF736FE144B154D19782800FFF730FE58
:104898001348FFF72DFE134B28001978FFF728FE61
:1048A8001148FFF725FE2000FEF7D4F8FFF784FC37
:1048B8000E4B188070BDC046BF180020D4180020C9
:1048C800A889000827820008CB890008CD8900083C
:1048D8003F8D0008D0890008DB180020D389000824
:1048E800D6890008DA1800203A8E0008CE18002071
:1048F800F0B56B4C85B06378022603930423032537
:10490800E356A657655701930523E3562778029384
:1049180033002B430BD0634B1888FFF752FC624BD4
:104928001B78002B16D0614A127890421CDC5C4C34
:104938002379627913430BD05D4B1888FFF741FC4C
:10494800594B1B78002B58D05A4A127890425EDC9B
:1049580005B0F0BD584A11780A224A439042E6DD74
:10496800514A0133137001E0FF2BF9D10023237161
:1049780063710223E356002B02DDFFF7FBFDA070F5
:10498800A3787F2B03D9FFF7F5FD4042A0700323DE
:10499800E356002B02DDFFF7EDFDE070E3787F2B97
:1049A80003D9FFF7E7FD4042E07002216156002974
:1049B8000DD003202056002809D0B52359430912E9
:1049C80016D0A1704343364A1B1214D0D370FFF798
:1049D80027FF3A4B1A88334B1A80314B039A1F70C2
:1049E8005A70019A9E701A71029ADD705A719EE788
:1049F8000122A270E6E70123E8E7314A11780A228A
:104A08004A439042A4DD284A0133137001E0FF2B8A
:104A1800F9D10023A370E3700423E356002B02DDD1
:104A2800FFF7E2FD207123797F2B03D9FFF7DCFD27
:104A3800404220710523E356002B02DDFFF7D4FD29
:104A4800607163797F2B03D9FFF7CEFD4042607117
:104A58000421615600290DD005202056002809D0D0
:104A6800B5235943091216D0217143430C4A1B122E
:104A780014D05371FFF7D4FE104B1A880C4B1A80D0
:104A8800074B039A1F705A70019A9E701A71029A06
:104A9800DD705A715CE701222271E6E70123E8E73D
:104AA800D4180020D0180020DB180020810C00202A
:104AB800D2180020850C0020800C0020CE18002081
:104AC800840C002010B506220021044803F0C5FA22
:104AD8000023034A1370034A137010BDD418002032
:104AE800DB180020DA18002010B50448FFF700FD95
:104AF800012205210248FFF7FBFC10BDF48F0008D6
:104B0800EF900008013810B505280FD8FBF788FB8F
:104B1800030F19232D371F4A13785B18FF21FE2B2B
:104B280000DCD9B21C481170FFF7E2FC10BD1B4A2B
:104B380013785B18FF21FE2B00DCD9B211701848DE
:104B4800F2E7184A13785B18FF21FE2B00DCD9B274
:104B580011701548E8E7154A13785B18FF21FE2BFA
:104B680000DCD9B211701248DEE7124A13785B18DC
:104B7800FF21FE2B00DCD9B211700F48D4E70F4A91
:104B880013785B18FF21FE2B00DCD9B211700C489A
:104B9800CAE7C046800C00203D910008810C002027
:104BA8004C910008820C00205E910008830C0020C4
:104BB80071910008860C002086910008870C00205F
:104BC8009F910008013810B50B0005280FD8FBF796
:104BD80027FB030F19232D371E48002102789A421C
:104BE80001D9D31AD9B201701B48FFF781FC10BD57
:104BF8001A48002102789A4201D9D31AD9B2017011
:104C08001748F2E71748002102789A4201D9D31AC7
:104C1800D9B201701448E8E71448002102789A4292
:104C280001D9D31AD9B201701148DEE71148002121
:104C380002789A4201D9D31AD9B201700E48D4E742
:104C48000E48002102789A4201D9D31AD9B20170CC
:104C58000B48CAE7800C00203D910008810C002019
:104C68004C910008820C00205E910008830C002003
:104C780071910008860C002086910008870C00209E
:104C88009F91000810B5010004000548FFF730FCAB
:104C98000120A040FEF76FFEFEF700FB10BDC046E6
:104CA800BA910008F8B5030005383E2800D9F2E1AA
:104CB800FBF7CAFA4C013D0157014B00F101F10124
:104CC8003B01F101F1017D01F1018D01D601F101F5
:104CD800F101F101F101B601F101F101A201F101C6
:104CE8006B01F1013F00EF01EF01EF01EF01EF016F
:104CF800EF01EF01EF01EF01E801F1014C0135018E
:104D0800F101F101F101F101F101F101F101F1010B
:104D1800F101F101E801F101F1013B01F101EC01BF
:104D2800EC01EC01EC01EC01EC01EC01EC01EC0113
:104D3800E801DB48FFF7DCFB00F0BCFBFDF740FEB9
:104D4800FBF7BFFD01242000F8BDD648FFF7D0FBD4
:104D5800D548FFF7CDFBFFF75EF8D44D01002800DA
:104D6800FFF7C6FBD24C2000FFF7C2FBFFF74EF857
:104D78000600D048FFF7BCFBCF4F31003800FFF7E3
:104D8800B7FB2000FFF7B4FBCC48FFF7B1FBF107F6
:104D9800C90F2800FFF7ACFB2000FFF7A9FBC848A4
:104DA800FFF7A6FBB107C90F2800FFF7A1FB2000FA
:104DB800FFF79EFBC348FFF79BFB7107C90F28004D
:104DC800FFF796FB2000FFF793FBBF48FFF790FB28
:104DD8003107C90F2800FFF78BFB2000FFF788FB7E
:104DE800FFF71EF80600B948FFF782FB31003800CC
:104DF800FFF77EFB2000FFF77BFBB548FFF778FB4A
:104E0800F107C90F2800FFF773FB2000FFF770FBBD
:104E1800B048FFF76DFBB107C90F2800FFF768FB23
:104E28002000FFF765FBAC48FFF762FBF105C90FEF
:104E38002800FFF75DFB2000FFF75AFBA748FFF7A4
:104E480057FBB105C90F2800FFF752FB2000FFF7F9
:104E58004FFBA348FFF74CFB7107C90F2800FFF76A
:104E680047FB2000FFF744FB9E48FFF741FB310753
:104E7800C90F2800FFF73CFB2000FFF739FB9A48D1
:104E8800FFF736FBF106C90F2800FFF731FB2000BA
:104E9800FFF72EFB9548FFF72BFBB106C90F28003B
:104EA800FFF726FB2000FFF723FB9148FFF720FBC5
:104EB8007106C90F2800FFF71BFB2000FFF718FB3E
:104EC8008C48FFF715FB3106C90F2800FFF710FBC8
:104ED8002000FFF70DFBFEF7BAFF06008648FFF734
:104EE80007FB31003800FFF703FB2000FFF700FB4A
:104EF8007248FFF7FDFAF107C90F2800FFF7F8FA23
:104F08002000FFF7F5FA7D48FFF7F2FA3106C90EDF
:104F18002800FFF7EDFA2000FFF7EAFA12E77848D1
:104F2800FFF7E6FAFEF7FCFF0CE77648F4E70F21F7
:104F38000124754A754813788B431370FFF7D8FA24
:104F48007348FFF7D5FA734B1C70FCE6FEF7A6F919
:104F58007148FFF7CDFA714801F0B3F9FFF738F956
:104F6800F0E60124684D6E482A78D307DB0F6340CA
:104F7800A24313432B70234216D16A48FFF7B8FAAD
:104F88000E222B7893432B70DDE601245E4D02211F
:104F98002A7865489307DB0F6340A3408A4313438D
:104FA8002B700B4221D16148FFF7A2FACBE601240E
:104FB8000421554D5E482A785307DB0F63409B0058
:104FC8008A4313432B700B420FD15A48ECE7012454
:104FD80008214D4D2A781307DB0F6340DB008A4315
:104FE80013432B700B4205D05348FFF781FA2B78F7
:104FF8002343C8E75148D7E75148FFF779FA5148A2
:10500800FFF776FA5048FFF773FA5048FFF770FA3F
:105018004F48FFF76DFA4F48FFF76AFA4E487BE7AB
:105028004E48FFF765FAFDF7CBFC01004C48FFF747
:105038005FFA4C4B4C481978FFF75AFA4B4B4C48DF
:105048001978FFF755FA4B4B4B481978C909FFF700
:105058004FFAFFF793F801004848FFF749FA71E65D
:105068000124FEF71BF97F2042490A78D3096340DF
:10507800DB01024013430B70834201D9404893E798
:10508800404891E70020FFF7FDFD5BE6393BD8B2C9
:10509800F9E71D3BFBE73C48FFF72AFA002452E6F4
:1050A800EA8C0008E2890008ED890008D389000825
:1050B80019850008FD89000827820008108A000861
:1050C8001A8A0008248A0008308A0008398A0008E9
:1050D8004D8A0008668A00087D8A00088F8A0008C1
:1050E800A18A0008B38A0008C58A0008CF8A000888
:1050F800E18A0008FD8A0008058B00081C8B00085F
:10510800258B0008368B0008BF180020FA8C000891
:10511800218D0008DC180020258D000810270000CC
:10512800418D00084D8D00085A8D0008678D0008D4
:10513800758D0008848D0008948D0008A08D0008E6
:10514800AD8D0008BC8D0008D38D00080A8E0008BC
:105158003D8E0008778E0008B88E0008C48E0008BF
:10516800D28E0008DC0D0020EC8E00081C1A0020EE
:10517800038F0008CC180020168F00082E8F000817
:10518800458F00084F8F00085A8F0008002070478D
:10519800002070471E38C3B20020092B01D8014AED
:1051A800D05C7047D8890008F8B57E4F06003C7877
:1051B800012C19D065B2002D03D0022C41D000205B
:1051C8007AE0FEF725FD03002800222B0BD13000E2
:1051D800FFF7DCFF03000120002B02D13000FFF7AE
:1051E80061FD01231840F8BDFEF712FD2228EED01C
:1051F8003000FFF7CDFF002816D1142E16D008D89E
:105208000B2E0AD0102E14D06748FFF771F900242E
:105218000AE0292E0AD0382EF6D16448FFF768F93B
:105228006348FFF765F901242000DCE700243C709F
:10523800FAE7FFF759FC5F48FFF75AF902233B707A
:10524800F2E7232817D81E2800D37FE00B2819D0AF
:1052580006D8072800D18EE05348FFF749F91BE02C
:1052680013282BD01428F7D1534B1A78002A1FD0B3
:1052780000221A7008E04B2879D00FD82928F3D0DB
:105288003828E9D1FFF730FC4B4B1978002900D1B9
:1052980085E04A48FFF72CF90120A4E7512860D09F
:1052A800522858D04E28D7D1434B0A2118785BE0B2
:1052B8003F48FFF71DF90120387094E74048FFF791
:1052C80017F94048FFF714F93F4D404B280019786B
:1052D800FFF70EF93E4C2000FFF70AF93D48FFF7AB
:1052E80007F93D4B28001978FFF702F92000FFF76E
:1052F800FFF83A48FFF7FCF8394B28001978FFF710
:10530800F7F82000FFF7F4F83648FFF7F1F8364BC6
:1053180028001978FFF7ECF82000FFF7E9F8334880
:10532800FFF7E6F8324B28001978FFF7E1F820007C
:10533800FFF7DEF82F48FFF7DBF82F4B2800197826
:10534800FFF7D6F82000FFF7D3F89DE7FFF722FF15
:10535800194B187098E70121174B1878FFF7D2FB03
:1053680092E70121144B1878FFF72CFC8CE7124BBD
:105378000A211878F2E71E22144B20481A70164B9F
:1053880014321A70164B283A1A70174B0A321A70D0
:10539800174B0C3A1A70184B20321A70D3E718487A
:1053A8005BE7C046DC1800205A8F0008FA8C00081A
:1053B800218D00085C8F0008DD180020EB8F0008A5
:1053C800608F00086E8F0008D3890008800C0020C9
:1053D80019850008808F0008810C0020928F000832
:1053E800820C0020A18F0008830C0020B28F0008D7
:1053F800860C0020C78F0008870C0020DE8F00086D
:10540800F18F000870B50F4C7546238801339BB2A5
:105418002380DBB2002B02D10220FBF752FA63781B
:1054280009499B082278CB5C9A4202D10020FBF7FD
:1054380048FA0121054A280013698B43136101F0DA
:1054480005F870BDDE180020BF910008002000405C
:1054580080220E4B5200D96910B51143D961D96920
:10546800196913200A431A611A6909490A401A611D
:105478001B69084A084B9A620322DA62D968023A21
:105488000A43DA60022101F065FD10BD00100240F8
:10549800FFFEFFFFDD020000002000400522014B57
:1054A8001A607047002000400022014B1A607047C4
:1054B800002000400123024A11684B4013607047E6
:1054C800002000407047000070B50D002D0200213B
:1054D8002800074C1043261D61603200190000F0B7
:1054E800D7FA20606068002800D0200070BDC04650
:1054F800001A00207A30084A01781378022907D167
:1055080002318B43012B02D15278044B1A70704739
:10551800024A1370FBE7C046561A0020341A0020CE
:1055280070B5040005292BD80800FAF779FE2C2954
:10553800032C2A3172B61D4A0121200001F031FAEC
:105548001B4A0221200001F02CFA1A4D1A4A2B009E
:10555800B4331978200001F024FA2B00B5331978F8
:10556800164A2000B63501F01CFA2978002903D024
:10557800134A200001F015FA124800F09BFB62B6AE
:1055880070BDFFF78BFF72B60E4800F070FBF6E7B0
:1055980072B60C4800F083FB62B6FEF7CCFDFFF74D
:1055A80083FFFDF70DFAFBF78CF9E9E70092000895
:1055B80024920008880C0020CC0C0020F00C00205D
:1055C800140D00205C0D002010B572B6024800F0E2
:1055D800A7FB62B610BDC0465C0D002070B5084C34
:1055E8000500E3680E00002B02D0200000F0FCFC50
:1055F80033002900034A200000F0BAFC70BDC04601
:10560800201A00201156000870B5040072B60378FD
:10561800042B01D062B670BD134B1B78DB09F9D19E
:10562800124D2B78002BF5D0114B1B78002BF1D0A5
:1056380003899B0704D408230E4A012101F007FAC5
:1056480028780D4A00230021FAF79EFF00230B4A11
:1056580080185941FA2200239200FAF775FF2100B9
:105668008000FFF7BBFFD5E7CC1800201C1A0020EC
:10567800DC0D0020351A002010270000E703000089
:10568800020070B57432117804000B007F200340CB
:10569800212B00D07EE081432AD0802900D079E0F8
:1056A80023007533187802281CD0032810D001284D
:1056B80000D06FE003331B78002B05D1494AA2665E
:1056C8002022E266236770BD0023A366E366F9E73C
:1056D800230078331B88002B5CD10120424AE06606
:1056E800A266EFE70120414BE066A3660023E9E7E5
:1056F800230075331B780A2B42D00B2B0ED0092BB5
:1057080048D1230078331B78012B43D8384BA36644
:105718000223E366374B23670120D4E7230078335D
:105728001B88002B28D1230076331978324D0A00C4
:10573800531E9A41D3B22C4A13702A78DB010240D7
:1057480013432B70002917D1284B1A78002A13D03D
:1057580072B62A4A18780023FAF716FF0023284A57
:1057680080185941FA2200239200FAF7EDFE210031
:105778008000FFF733FF62B60023A366E366CAE73B
:1057880023001D4977331A780978184BC9091A700C
:10579800F2D1DBE71B4B12889A421AD123007933E6
:1057A8001A78013B1B78120213432100220060681B
:1057B800763277314568127809782000A8470028A2
:1057C80001D100207FE74368A3660368E3660023EE
:1057D800A1E70D4BB6331B78002BF2D0200000F068
:1057E8007FFA70E7351A0020DC0D00201C1A002013
:1057F800561A0020FD540008CC180020102700007D
:10580800E703000081060000880C002070470000B4
:1058180070B50500134B144A14499A651A1D144EA5
:10582800144CD167144AA0331A603100200000F0EC
:10583800DFF92000114C310000F002FAA36D104A84
:1058480010481340A36500F03CFD28000E4901F004
:1058580095F88023A26D1B0213430022A3650B4B0E
:10586800DA6070BD880C0020900C0020A40C002089
:10587800380D00205C0D0020B80C0020005C0040B2
:10588800FF7FFFFF983A000048920008201A002086
:10589800014B18787047C046341A002070B50500CF
:1058A80072B61C4C2278042A20D11B492389097816
:1058B8007F291DD919490978002919D013420BD11C
:1058C80020232A000221200001F0C1F8202229000B
:1058D800134802F0B9FB09E001216369494258699C
:1058E8000C3000F0F7FC2378042BE9D062B670BDC9
:1058F8009B0703D408232A000121E4E70121236937
:10590800494258690C3000F0E5FC2378042BEDD1AE
:10591800F0E7C046781C0020CC180020DC0D0020E1
:10592800351A002070B5050072B60C4C2378042B8C
:1059380001D062B670BD22891A4207D0636964211A
:1059480058690C3000F0C6FC431CF2D006232A002C
:105958000221200001F07BF8EBE7C046781C00200C
:1059680037B572B6084C2378042B01D062B637BD20
:10597800694603234871000A01AA887102212000A0
:10598800137001F064F8F1E7781C002013B572B6C3
:10599800084C2378042B01D062B613BD01AA1370FA
:1059A8006B465871000A987102210323200001F008
:1059B8004EF8F1E7781C002007B56B46D91D087032
:1059C8000348012203685B68984740B20EBDC04691
:1059D8005C0D002010B5054888B0036820221C6AB9
:1059E80069460023A04708B010BDC0465C0D0020E2
:1059F80010B50800FFF7E0FF10BD000010B500F07B
:105A08003DFD00F041FAFBF7A9FAFDF75EF81A4CE4
:105A18002000FFF7FDFE19490020FEF75FFDFA2080
:105A2800400000F04EFC1648FEF762FDFDF755F801
:105A38001448FCF7BFFFFFF70BFD1348FEF758FDAE
:105A48002378052B09D11148FEF752FD2378052B41
:105A580008D0FEF749F9FEF7E3FEFDF773F8FFF704
:105A6800B9FFEDE7FEF745FBFEF74CFB0028EDD04C
:105A7800200000F0FFFFE9E7781C0020F959000832
:105A880058920008E00D0020699200087A920008F8
:105A9800030A032B12D006D8012B20D0022B21D0C9
:105AA8000020030019E0212B11D0222BF8D1022964
:105AB800F6D80E4B8800C3580D4806E0C0B203283C
:105AC800EED80C4B8100CB580B49405C05E002290D
